:020000040800F2
:10000000482A00209D010008873B0008EB2F0008CC
:10001000853B00083D080008C148000800000000BA
:10002000000000000000000000000000ED42000899
:10003000D508000800000000653C0008EF420008F9
:10004000B7010008B7010008B7010008B7010008B0
:10005000B7010008B7010008B7010008B7010008A0
:10006000B7010008B7010008B7010008B701000890
:10007000B7010008B7010008B7010008B701000880
:10008000410800084D080008B7010008B701000842
:10009000B7010008B7010008B7010008B701000860
:1000A000B7010008B7010008B7010008B701000850
:1000B000B7010008B7010008B7010008B701000840
:1000C000B7010008B7010008B7010008B701000830
:1000D000B7010008A9480008B5480008B7010008A2
:1000E000B7010008B7010008B7010008B701000810
:1000F000B7010008B7010008B7010008B701000800
:10010000B7010008B7010008B7010008B7010008EF
:10011000B7010008B701000895430008A143000893
:10012000B7010008B7010008B7010008B7010008CF
:10013000B7010008B7010008B7010008B7010008BF
:10014000B7010008B7010008B7010008B7010008AF
:10015000B7010008B7010008B7010008B70100089F
:10016000B7010008B7010008B7010008B70100088F
:10017000B7010008B7010008B7010008000000003F
:10018000B7010008B7010008DFF80CD000F044FB0D
:100190000048004705530008482A002006488047C9
:1001A00006480047FEE7FEE7FEE7FEE7FEE7FEE75C
:1001B000FEE7FEE7FEE7FEE7854300088901000849
:1001C0002DE9F05F0546002092469B46884606468C
:1001D000814640241BE0284641464746224600F01F
:1001E00034FA53465A46C01A914110D31146184664
:1001F000224600F01BFA2D1A67EB01084F462246F3
:100200000120002100F012FA17EB00094E41201ED8
:10021000A4F10104DFDC484631462A464346BDE8E6
:10022000F09FD2B201E000F8012B491EFBD27047CB
:100230000022F6E710B513460A4604461946FFF7B2
:10024000F0FF204610BD2DE9FE4F804681EA0300F5
:10025000C00F0C46009021F0004123F00045B8EBA0
:100260000200A94105D24046214690461C460B4655
:10027000024623F00040104347D0270DC7F30A0081
:10028000C3F30A510290401A019040286BDAC3F37D
:10029000130040F4801B0098924620B10023D2EB5B
:1002A000030A63EB0B0B01985946C0F1400250461C
:1002B00000F0BCF906460D4650465946019A00F03A
:1002C000D4F910EB08006141002487EA115284EA56
:1002D000E7731A4340D0009A62B3019A012A4FEAA9
:1002E000075215DC001B61EB02014FF0004202EAED
:1002F0000752CDE90042001C41F5801132462B46E1
:1003000000F00BFA03B0BDE8F08F40462146F9E754
:10031000001B61EB0201001C41F5801300185B41DA
:100320002018A2F5001747EB030140EAD570B61973
:100330006D4111E06D084FEA360645EAC0754FEA97
:100340000752001B61EB0201001C41F580114908B6
:100350004FEA30000019514132462B4603B0BDE848
:10036000F04F00F0CBB90098012240000023D0EB01
:10037000020263EBE073009821464FEAE074B8EBA9
:10038000000061EB0401E9E783F000435BE781F0E3
:10039000004158E72DE9FE4F81EA030404F00044D0
:1003A00021F0004100944FF0000B23F0004350EA8D
:1003B00001045ED052EA03045BD0C3F30A54C1F3D4
:1003C0000A552C44A4F2F3340194A0FB0254C1F367
:1003D000130141F48011C3F3130343F4801301FBB1
:1003E000024400FB034E840A970A44EA815447EA18
:1003F0008357A4FB076802958D0A05FB07854FEA22
:10040000932C04FB0C542705029D4FEA065847EA3B
:100410001637B5EB08056EEB070C870E920E47EA10
:10042000811742EA8312A7FB0201B6EB0B0164EBD2
:1004300000042B0D43EA0C335E1844EB1C50DA46E3
:100440005146E7FB0201C5F313044FEA0B3343EABD
:1004500014534FEA0432019C43EA0603A4F10C044E
:100460000294009CCDE900B400F057F903B0BDE858
:10047000F08F00200146F9E72DE9F04D81EA0304F1
:1004800004F0004B21F0004514464FF0000A23F021
:10049000004150EA050220D054EA01021DD0C5F304
:1004A0000A570246C5F31303C1F31300C1F30A56FA
:1004B00040F4801543F48013A7EB0608101BD646C2
:1004C00008F2FD3873EB050002D308F1010801E0E2
:1004D00092185B41B8F1000F03DA00200146BDE835
:1004E000F08D00204FF48011064684460EE0171B65
:1004F00073EB050705D3121B63EB050306434CEAB8
:10050000010C49084FEA300092185B4150EA01079C
:10051000EDD152EA030012D082EA040083EA050119
:10052000084305D0101BAB4106D20122002306E090
:1005300000224FF0004302E06FF0010253101AEB6B
:1005400006004CEB085110EB0A0041EB0B01BDE833
:10055000F04D00F0D3B80EB540F2334102910021C6
:10056000CDE900110A460B4600F0D7F803B000BDF4
:10057000C1F30A5210B5C1F3130140F2FF3341F445
:1005800080119A4201DA002010BD40F233439A42B2
:10059000A2F2334203DC524200F057F810BD904003
:1005A00010BD00F0004230F000400AD0C10D01F54E
:1005B0006071C0F3160042EA0151C20840071143BE
:1005C000704700200146704701F0004330B421F02D
:1005D000004150EA010206D00A0DA2F56072C1F393
:1005E0001301002A02DC30BC00207047440F44EAAB
:1005F000C104C100E01830BC00EBC25000F047B8A5
:1006000030B50B46014600202022012409E021FAE2
:1006100002F59D4205D303FA02F5491B04FA02F5DF
:100620002844151EA2F10102F1DC30BD202A04DBB2
:10063000203A00FA02F1002070479140C2F12003F5
:1006400020FA03F3194390407047202A04DB203A34
:1006500021FA02F00021704721FA02F3D040C2F1E2
:1006600020029140084319467047202A06DBCB1729
:10067000203A41FA02F043EAE07306E041FA02F35D
:10068000D040C2F12002914008431946704700292A
:10069000A8BF7047401C490008BF20F00100704708
:1006A00010B4B0FA80FC00FA0CF050EA010404BF68
:1006B00010BC704749B1CCF1200421FA04F411FABE
:1006C0000CF118BF012121430843A3EB0C01CB1D02
:1006D0004FEA00614FEA102042BF002010BC704773
:1006E00000EBC35010440029A4BF10BC7047401C4D
:1006F000490008BF20F0010010BC704710B5141E5F
:1007000073F1000408DA401C41F1000192185B41CA
:100710001A4301D120F0010010BD2DE9F04D9246A1
:100720009B4611B1B1FA81F202E0B0FA80F22032B8
:100730009046FFF77BFF04460F4640EA0A0041EA75
:100740000B0153465A46084313D0114653EA0100A1
:1007500019D0C8F140025046FFF777FF05460E4614
:10076000504659464246FFF761FF084305D0012035
:1007700004E020463946BDE8F08D0020054346EAF6
:10078000E0762C4337430A986305E40AA0EB08009F
:100790000022FD0A44EA47540A3002D500200146EF
:1007A000E9E7010510196941DDE9084500196941CA
:1007B000BDE8F04DA2E7C1F30A52C1F3130140F2C4
:1007C000FF3341F480119A4202DA0020014670475B
:1007D00040F233439A42A2F2334202DC5242FFF724
:1007E00034BFFFF723BF000030B5041E71F10004D1
:1007F00004DB4FF00044404264EB0101141E73F12E
:10080000000405DB1C464FF00043524263EB040337
:10081000994208BF904230BD064C074D06E0E068A3
:1008200040F0010394E8070098471034AC42F6D337
:10083000FFF7AEFC2C6800084C680008FEE70000DB
:10084000014800F0BDB9000090030020014800F00D
:10085000B7B90000F003002001681823CAB2103AAB
:10086000B2FBF3F2054B6FF30901032A9B5CC365EE
:1008700000D9091D8165084670470000205900080D
:1008800010B5014600208B698A6A4FF0C07453B1DD
:10089000B3F5005F15D072B1012A0CD0022A0AD03C
:1008A000032A09D104E01AB1012A06D0022A03D191
:1008B000C96AC90100D5012010BDC96AA142FAD098
:1008C00010BD002AF7D0012AF2D0022AF3D0032A61
:1008D000F3D010BD704700002DE9F14F002482B025
:1008E0002646DFF844904FF4784A4FF6FF7B0F4FCF
:1008F0004FF00A080E4D12E0CDE9006902988442DB
:1009000001D1534600E05B4604EB840007EBC002D4
:1009100008EB800081B20A2003F0FCFA641C28680E
:100920008442E9DBBDE8FE8F1C6800084806002011
:100930001400002072B6FEE72DE9F04F002493B0BA
:100940002046FFF7C9FFDFF838A14E4EDFF8389197
:100950000AF1040800274FF6FF7B01214D46484667
:1009600000F072FB68B9DAF800106018401E90FBC6
:10097000F1F201FB12042046FFF7AEFFC82000F0A1
:1009800059FA0221284600F05FFB60B9DAF800004E
:10099000641C94FBF0F100FB11442046FFF79CFF20
:1009A000C82000F047FA0421A946284600F04CFB75
:1009B000E8BB002003F0D3FACDE900765B4633A212
:1009C00032210A2003F0A6FA334804EB840100EB3D
:1009D000C102CDE9007615465B463C210A2003F0B2
:1009E00099FAC82000F026FA6D6A98F8001040467F
:1009F000FF292CD14178FF2929D18178FF2926D1DF
:100A0000C17811B1FF291BD021E00179F9B998F81B
:100A10000500E0B92A4621A10AA803F053FFCDE959
:100A200000765B460AAA50210A2003F073FA0821D7
:100A3000484600F009FB00288FD113B0BDE8F08FC5
:100A40000179FF2903D198F80500FF2816D00C4939
:100A50000622091D284600F02BF804F021FFAD1DE9
:100A60002A460EA102A803F02DFFCDE900765B46D1
:100A700002AA50210A2003F04DFAB6E7AD1DB4E7F3
:100A8000140000201C680008000C0240506C6179C2
:100A9000696E673A0000000048060020666C6173CA
:100AA000685F6164726573733A25640A0000000030
:100AB000F8B50D4603218DF80010010C8DF80110DA
:100AC000010A8DF802100E4E14468DF80300002224
:100AD0000121304600F0BDFA4FF0FF373B460422BB
:100AE0006946084801F057FA3B4622462946054820
:100AF00001F0A4F901221146304600F0AAFAF8BD2F
:100B000000040240980400202DE9F0410446876D5E
:100B100000F0A4FA064694F835000025022806D015
:100B20008020606584F834500120BDE8F0812068A1
:100B3000016821F0160101602068416921F08001FF
:100B40004161206C08B9A06C20B12068016821F0D7
:100B5000080101602068016821F0010101600CE0DA
:100B600000F07CFA801B052807D92020606503204F
:100B700084F8350084F83450D7E720680068C0074F
:100B8000EED194F85C103F208840B860012084F8D2
:100B9000350084F834500020C7E790F8351002295A
:100BA00003D08021416501207047052180F8351070
:100BB0000068016821F00101016000207047000019
:100BC0002DE9F84304464FF00009CDF80090634842
:100BD0004FF41651A56D0068B0FBF1F72E6894F83C
:100BE0005C10082000FA01F131420FD021680A6838
:100BF00052070BD50A6822F004020A6094F85C10D0
:100C00008840A860606D40F00100606594F85C1059
:100C10004FF0010808FA01F0304208D02168496914
:100C2000090604D5A860606D40F00200606594F884
:100C30005C1004208840304208D021680968890788
:100C400004D5A860606D40F00400606594F85C1005
:100C500010208840304218D021680968090714D54F
:100C6000A86020680168490304D50068000308D51E
:100C7000A16C07E00168C90503D4016821F00801EF
:100C80000160216C09B12046884794F85C1020204F
:100C90008840304231D021680968C9062DD5A86046
:100CA00094F8350005282068016806D0490347D527
:100CB000006800031DD4616C1CE021F01601016086
:100CC0002068416921F080014161206C08B9A06C65
:100CD00020B12068016821F00801016094F85C10DF
:100CE0003F208840A86084F8358084F83490216DD6
:100CF0001FE0E16B09B120468847606D00282BD0CA
:100D0000606DC00714D0052084F8350020680168A4
:100D100021F0010101600098401C0090B84203D806
:100D200020680068C007F6D184F8358084F83490D4
:100D3000E16C002910D001B02046BDE8F04308471F
:100D40000168C905D5D4016821F01001016084F85B
:100D5000358084F83490CCE7BDE8F883100000209B
:100D60002DE9F041044600F079F906465CB1022015
:100D700084F83500002584F834502068016821F09B
:100D8000010101600DE00120BDE8F08100F066F98D
:100D9000801B052805D920206065032084F83500D4
:100DA000F2E720680068C007F0D122681168204887
:100DB0000140D4E901031843D4E90336334318430F
:100DC00063691843A3691843E3691843236A184306
:100DD0000843616A042903D1D4E90B13194308437A
:100DE000106020684069666A20F0070130460E43B3
:100DF000012704280CD1A06A0643E06A40B12046CE
:100E0000FFF73EFD20B14020606584F83570BAE7F9
:100E1000206846612046FFF71FFD94F85C203F21C3
:100E200091408160656584F835700020ACE7000072
:100E30003F8010F070B5044600F010F90546601CC4
:100E400002D004480078044400F008F9401BA04296
:100E5000FAD370BD040000202DE9F84FDFF8BCA1E3
:100E60000022012503264FF00F090AF1040BAAF115
:100E7000040E00BF0B6805FA02F42340A34270D1B0
:100E80000F7907F00307012F01D0022F16D18768D1
:100E90004FEA420806FA08FC27EA0C07D1F80CC012
:100EA0000CFA08FC4CEA070CC0F808C04768A743D6
:100EB0000C79C4F3001494403C4344600C79E4433F
:100EC000A4070AD0C4684FEA420C06FA0CF7BC43E8
:100ED0008F6807FA0CF72743C7600C7904F0030406
:100EE000022C12D1D40800EB840CDCF82040570708
:100EF000FF0E09FA07F824EA0804D1F8108008FA6E
:100F000007F848EA0408CCF8208004684FEA420C4D
:100F100006FA0CF7BC430F7907F0030707FA0CF742
:100F2000274307604C6814F4403F70D03C4C27685E
:100F300047F480472760246822F0030704F48044C4
:100F40000094384C07EB040CDCF8084897074FEA8C
:100F5000177809FA08F7BC43334FB84202D100278B
:100F600024E054E0314FB84201D101271EE0304F58
:100F7000B84201D1022719E02E4FB84201D1032710
:100F800014E02D4FB84201D104270FE02B4FB84297
:100F900001D105270AE02A4FB84201D1062705E012
:100FA000284FB84201D1072700E0082707FA08F7C1
:100FB0002743CCF80878DAF800405746D1F804C047
:100FC0009C435FEACC2C00D51C433C60DBF800401E
:100FD0005F46D1F804C09C435FEA8C2C00D51C43CB
:100FE0003C60DEF800407746D1F804C09C435FEADD
:100FF0008C3C00D51C433C60084F083F3C68D1F84E
:1010000004C09C435FEACC3C00D51C433C60521CAE
:10101000102AFFF42FAFBDE8F88F0000083C014014
:101020004438024000300140000002400004024009
:1010300000080240000C0240001002400014024070
:1010400000180240001C02400069084000D0012046
:1010500070470AB1816170470904FBE70148806865
:10106000704700000400002070B5040025D094F8FB
:101070003D00002520B984F83C50204600F03EFA9F
:10108000242084F83D002068016821F001010160FE
:101090002068016841F4004101602068016821F482
:1010A0000041016000F000FC4D4A6168914201D8A6
:1010B0004C4900E04C49884201D2012070BD4B49A7
:1010C0002368B0FBF1F15E6826F03F060E435E60D8
:1010D0006368934206D94FF4967359434FF47A7379
:1010E000B1FBF3F12368491C1E6A26F03F06314329
:1010F00019626168914210D84900401EB0FBF1F2BC
:10110000521CC2F30B02042A01D2042022E0B0FBDD
:10111000F1F0401CC0F30B001CE0A268F2B301EB3D
:10112000C10303EB0116431EB3FBF6F35B1C43F450
:1011300080431B0549D092B301EBC10202EB0111C0
:10114000401EB0FBF1F0401CC0F30B0040F48040A7
:1011500040F400402168CA694CF6FF739A4310437B
:10116000C861D4E9071001432068026822F0C00278
:1011700011430160D4E9030101432068826848F209
:10118000FF339A4311438160D4E905010843216884
:10119000CA6822F0FF021043C86001E00EE016E0CA
:1011A0002068016841F0010101602564202084F875
:1011B0003D00256384F83E50002070BD01EB4106E0
:1011C000431EB3FBF6F35B1CB3E70120C2E701EB60
:1011D0004101401EB0FBF1F0401CC0F30B00B7E72B
:1011E000A086010080841E0000093D0040420F00DF
:1011F0002DE9F84F1F4690468A460446DDF82890B0
:10120000FFF72CFF054694F83D00202875D11923DF
:1012100001226C492046009501F0EAFF0028F5D133
:1012200094F83C00012868D0012084F83C00206834
:101230000168C90703D1016841F00101016020681C
:10124000016821F400610160222084F83D00102033
:1012500084F83E0000262664C4F824806785608DEB
:1012600020855948E0622B464A465146204601F007
:10127000D5FE002878D1208D544F68B1012814D0B4
:1012800002282068016816D041F48061016020685E
:1012900041698069009087E0206841698169009117
:1012A000016841F4007101607EE02068016821F46A
:1012B00080610160F0E721F48061016020680168CD
:1012C00041F40061E2E7032848D801280AD0022847
:1012D00014D04B46002239462046009501F088FF85
:1012E000D8BB27E02A464946204602F000F8A0BBBA
:1012F00020680069616A08704DE061E04B46002299
:1013000039462046009501F073FF30BB2068016824
:1013100041F40071016020680069616A0870606AC8
:10132000401C6062218D491E2185618D491E6185A9
:1013300021682EE02068016821F480610160206846
:101340000069616A0870606A401C6062208D401EFE
:101350002085608D401E6085D0E705E02A4649461D
:10136000204601F0C4FF10B10120BDE8F88F2068CD
:101370000069616A0870606A401C6062218D491EC4
:101380002185618D491E618521684A69D2435207D2
:101390000AD409690170606A401C6062208D401E99
:1013A0002085608D401E6085208D00288BD12020F7
:1013B00084F83D0084F83E6084F83C600020D4E767
:1013C0000220D2E7020010000000FFFF040001002D
:1013D0002DE9F84F1F4690468A460446DDF82890CE
:1013E000FFF73CFE054694F83D0020287FD11923E5
:1013F000012240492046009501F0FAFE002876D1EE
:1014000094F83C00012872D0012084F83C00206848
:101410000168C90703D1016841F00101016020683A
:10142000016821F400610160212084F83D00102052
:1014300084F83E0000262664C4F824806785608D09
:1014400020852D48E0622B464A465146204601F051
:101450005BFE90B9206841698069009036E02A46B9
:101460004946204601F076FF50B1206C042804D193
:101470002068016841F4007101600120BDE8F88F27
:10148000606A216800780861606A401C6062618D52
:10149000491E6185218D491E89B2218522685369C3
:1014A000DB435B070BD451B100781061606A401CCC
:1014B0006062608D401E6085208D401E20852A461A
:1014C0004946204601F06EFE0028CED1208D00282E
:1014D000C5D154F83D0B016841F400710160202032
:1014E00004F81E09E67766770020C7E7FFE70220C9
:1014F000C4E70000020010000000FFFFF0B587B055
:10150000044614216846FEF793FE2768234CDFF853
:1015100088C00022214912230325042620481034C4
:10152000674518D10F6847F002070F60096802AFDE
:1015300001F002010591C021CDE9001387E86400A4
:101540006946FFF789FC206840F40010206020689D
:1015500000F400101CE0DFF84CC0674519D10F689B
:1015600047F002070F60096802AF01F00201059120
:101570004FF44061CDE9001387E864006946FFF746
:101580006BFC206840F480002060206800F480003C
:10159000059007B0F0BD0000005400403038024014
:1015A000000402400058004002488168027811445B
:1015B00081607047040000200B4810B5016841F4B9
:1015C00000710160016841F480610160016841F4CB
:1015D00080710160032000F09BF80F2000F006F8F6
:1015E00000F050F8002010BD003C024030B5054628
:1015F0001F4887B00024016841F0100101600068B5
:1016000006A900F01000009001A800F02DF9049840
:10161000A8B100F049F940001649174AB0FBF1F1B2
:101620001648491E026040F2E732C0E90324C0E9CF
:101630000114846100F0C8FE040003D015E000F03E
:1016400033F9E9E70D4800F063FF04000DD13620BF
:1016500000F030F8102D07D200222946362000F085
:1016600037F80748056000E0012407B0204630BD88
:101670004038024040420F0000100040500400205B
:10168000080000200A4808B5016841F48041016063
:10169000006800F4804000900548001F016841F098
:1016A00080510160006800F08050009008BD00008B
:1016B00044380240002809DB00F01F02012191405C
:1016C0004009800000F1E020C0F8001170470000E0
:1016D000F0B40E4B1B680C46C3F30223C3F107059D
:1016E000042D00D90425191D072901D2002300E08B
:1016F000DB1E012606FA05F1491E214099409E4055
:10170000761E16403143F0BC03F0F0B80CED00E05B
:10171000064900F0070208684FF6FF03184040EA48
:101720000220034A10430860704700000CED00E0FF
:101730000000FA052DE9F0470E46050065D0DFF8F8
:101740001481D8F80000F7B200F00700B04207D2C9
:1017500088F80070D8F8000000F00700B04254D1BB
:1017600028683D4C810712D5400703D5206840F416
:10177000E05020602878000703D5206840F46040DE
:1017800020602068A96820F0F000084320602878D5
:10179000C0072DD0304968680839012812D00228C6
:1017A00013D0032811D00968890700292DDA216890
:1017B00021F0030101432160FFF750FC814641F213
:1017C000883A0EE009688903EFE709688901ECE7C8
:1017D000FFF744FCA0EB0901514502D90320BDE805
:1017E000F0872068696800F00C00B0EB810FEFD142
:1017F000D8F80010404601F00701B14207D9077040
:10180000006800F00700B04201D00120E7E7287827
:10181000400705D52068E96820F4E05008432060BF
:101820002878000706D52068296920F4604040EA3E
:10183000C100206000F058F82168084AC1F3031184
:10184000515CC8400649086006480068FFF7CEFEB4
:101850000020C4E7003C0240083802402859000834
:1018600010000020080000200F2202600C4A1368BC
:1018700003F003034360136803F0F003836013680D
:1018800003F4E053C36012684FF4E05303EAD2025A
:1018900002610448006800F007000860704700001B
:1018A00008380240003C02400448054900680968C5
:1018B000044AC1F38221515CC840704710000020E7
:1018C000083802403859000804480549006809688A
:1018D000044AC1F34231515CC840704710000020F7
:1018E0000838024038590008154810B5006810F053
:1018F0000C02144813D04110042A0FD0082A0ED12C
:101900000F4C241F2268236802F03F025B0207D5B8
:101910002068C0F38810A0FB010106E0084610BD56
:101920002168C1F38811A1FB00010023FEF748FCE8
:101930002168C1F30141491C4900B0FBF1F010BD21
:10194000083802400024F4002DE9F84F04006ED05E
:101950002078DFF84C93C007A9F104054AD009F1BB
:1019600004000168C1F38101012908D00068C0F3B7
:10197000810002280AD1D9F80000400206D5286863
:10198000800337D560680028E1D033E06068B0F5A7
:10199000803F10D0B0F5A02F286810D020F4803000
:1019A0002860286820F4802028606068A8B1FFF7CC
:1019B00055FB06460DE0286840F48030F4E740F41B
:1019C00080202860F7E700BFFFF748FB801B6428F2
:1019D00073D828688003F7D50CE0FFF73FFB064675
:1019E00005E000BFFFF73AFB801B6428F0D82868A9
:1019F0008003F7D42078DFF8AC8280074FF0000A2C
:101A00003ED5A748001D016811F00C0F08D00068F2
:101A1000C0F3810002280BD1D9F80000400207D49E
:101A20002868800716D5E068012800D112E033E16C
:101A3000E068B8B10120C8F80000FFF70FFB0646C8
:101A400005E000BFFFF70AFB801B0228C0D828680A
:101A50008007F7D52868216920F0F80040EAC10026
:101A600028600DE0C8F800A0FFF7F8FA064604E089
:101A7000FFF7F4FA801B02281FD828688007F7D4E4
:101A80002078000722D5864F87486169703771B189
:101A900001210160FFF7E2FA064604E0FFF7DEFAF3
:101AA000801B022809D838688007F7D50EE0C0F8F7
:101AB00000A0FFF7D3FA064605E082E0FFF7CEFA72
:101AC000801B02287DD838688007F7D4207840072B
:101AD00068D5DFF8CCB100270BF13C0BDBF8000038
:101AE000C0000BD4DBF8001041F08051CBF800109F
:101AF000DBF80000012700F0805000906B4E30684A
:101B0000C00510D4306840F480703060FFF7A6FA4A
:101B1000009005E0FFF7A2FA0099401A022850D879
:101B20003068C005F6D55E4EA0686C3601280FD02F
:101B30000528306810D020F001003060306820F0B7
:101B400004003060A068B8B1FFF788FA00900FE099
:101B5000306840F00100F4E740F004003060F7E73F
:101B6000FFF77CFA0099411A41F28830814266D829
:101B700030688007F4D50EE0FFF770FA009007E0B8
:101B8000FFF76CFA0099411A41F28830814256D829
:101B900030688007F4D42FB1DBF8001021F08051B9
:101BA000CBF80010A069C8B33D49091D0968C1F30D
:101BB000810102294AD00228504607D0C8F86000A7
:101BC00000E03CE0FFF74AFA04463BE04746C8F82D
:101BD0006000FFF743FA064605E000BFFFF73EFA54
:101BE000801B02282BD828688001F7D4D4E907018C
:101BF0000843A16A2E4A490802EB0141626A41EAA0
:101C00008211084394F82C1040EA0161C9F80010D1
:101C100001203866FFF722FA044606E03EE000BFE6
:101C2000FFF71CFA001B022809D828688001F7D5A5
:101C300034E000BFFFF712FA001B022802D903208C
:101C4000BDE8F88F28688001F4D427E00128F7D098
:101C5000D9F80000E26900F4800191421CD1226AA7
:101C600000F03F01914217D147F6C071626A01400E
:101C7000B1EB821F10D1A26A4FF0FF3300F4403164
:101C800003EB5202B1EB024F06D194F82C1000F096
:101C90007060B0EB016F01D00120D1E70020CFE7E9
:101CA0000438024000004742800E47420070004066
:101CB0000000FFFF70B5040009D0606A002540B144
:101CC00025616561A56294F8510040B10CE00120E6
:101CD00070BD6068B0F5827FF4D0E561F2E784F80A
:101CE0005050204600F044F8022084F8510020684B
:101CF000016821F040010160A088218900F4827010
:101D000001F404410843A18901F400610843217CE6
:101D100001F002010843217D01F001010843218BFC
:101D200001F400710843217F01F03801084394F861
:101D3000201001F080010843218D01F40051084377
:101D400021680860A069042101EA104094F8241079
:101D500001F010010843216848602068C16921F43E
:101D60000061C1616565012084F85100002070BDEB
:101D70002DE9F04186B0044614216846FEF758FA72
:101D8000294A216800242948022503260527DFF86F
:101D9000A080914213D1254914310A6842F480523F
:101DA0000A60096801F480510591016841F002015F
:101DB0000160006800F002000590382028E01D4A0C
:101DC00091422ED1194910310A6842F480420A60CA
:101DD000096801F480410591016841F00401016046
:101DE000016801F004010591016841F00201016000
:101DF000006802AA00F0020005900C20CDE9000561
:101E000082E8D00069460C48FFF726F84FF40050EE
:101E1000CDE9000502AA694682E8D0004046FFF7F6
:101E20001BF806B0BDE8F0810030014030380240B8
:101E30000004024000380040000802402DE9F84F3D
:101E4000044640680025984616460F464FF0040B9E
:101E5000B0F5827F01D1A06888B194F850000128C4
:101E600018D0012084F85000FFF7F8F8814694F864
:101E700051004FF0000A01280ED0022582E084F8BC
:101E800051B013460A462046CDF8008000F036F9DE
:101E9000BDE8F88F0220FBE7002F72D0002E70D033
:101EA00084F851B0C4F854A0A763A687E687C4F8A5
:101EB00030A0A4F834A0A4F836A0C4F840A0C4F818
:101EC00044A0A068B0F5004F09D12068016821F056
:101ED000400101602068016821F4804101602068B0
:101EE0000168490603D4016841F040010160E068DF
:101EF000D8B139E020688168C90709D0007BA16B9F
:101F00000870A06B401CA063E08F401EE0870CE0CF
:101F1000FFF7A4F8A0EB0901414503D3B8F1FF3F57
:101F200003D036E0B8F1000F33D0E08F0028E1D1C4
:101F30001DE020688168C90709D0C068A16B0880CE
:101F4000A06B801CA063E08F401EE0870CE0FFF7D1
:101F500085F8A0EB0901414503D3B8F1FF3F03D059
:101F600017E0B8F1000F14D0E08F0028E1D14A4605
:101F70004146204601F090FE08B120206065606D6A
:101F800000B10125012084F8510084F850A02846B2
:101F90007EE70325F6E72DE9F84F044690F8500058
:101FA00000271D461646894601280DD04FF0010B2B
:101FB00084F850B0FFF752F8804694F85100BA46C2
:101FC000012804D0022793E00220BDE8F88FB9F180
:101FD000000F73D0002E71D0032084F85100C4F894
:101FE00054A0C4F83090A686E686C4F838A0A4F8B9
:101FF0003CA0A4F83EA0C4F844A0C4F840A0A06847
:10200000B0F5004F09D12068016821F0400101605E
:102010002068016841F48041016020680168490638
:1020200003D4016841F040010160E068B0F5006F41
:10203000606803D030B3012E24D041E008B1012EF6
:102040001CD1206B21680088C86006E02068816888
:10205000890709D5216B0988C160206B801C20632A
:10206000E08E401EE08609E0FEF7F8FFA0EB0800D6
:10207000A84202D3681C01D031E07DB3E08E002875
:10208000E4D120E0206B21680078087306E0206826
:102090008168890709D5216B09780173206B401C81
:1020A0002063E08E401EE0860AE0FEF7D7FFA0EB3B
:1020B0000800A84203D3681C02D010E017E06DB1FD
:1020C000E08E0028E3D142462946204601F012FE68
:1020D00008B120206065A06818B106E0FFE703277B
:1020E00006E02068C16880680090606D00B101273B
:1020F00084F851B084F850A0384666E72DE9F84FCF
:10210000044690F8500000270A9E1D4692468B46D2
:102110004FF0010901280ED0012084F85000FEF78D
:102120009DFF804694F85100616801280CD0B1F5FC
:10213000827F07D102E00220BDE8F88FA16809B9CB
:10214000042801D00227C2E0BBF1000F27D0BAF16A
:10215000000F24D01DB394F85100042802D00520AC
:1021600084F8510000206065C4F838A0E587A58791
:10217000C4F830B0E586A5862064606420680168F4
:10218000490603D4016841F040010160E068B0F500
:10219000006F606805D0E8B3012D46D07FE00127CD
:1021A00095E008B1012D39D1206B21680088C86005
:1021B000206B801C2063E08E401EE0862EE02068AD
:1021C000816889070FD5E18E69B1B9F1010F0AD194
:1021D000216B0988C160206B801C2063E08E401E4B
:1021E000E0864FF0000920688168C9070CD0E18FB4
:1021F00051B1C068A16B0880A06B801CA063E08F08
:10220000401EE0874FF00109FEF728FFA0EB080011
:10221000B04200E009E001D3701C50D1E08E0028EC
:10222000CDD1E08F0028CAD13FE0206B2168007833
:102230000873206B401C2063E08E401EE0862EE079
:102240002068816889070FD5E18E69B1B9F1010F66
:102250000AD1216B09780173206B401C2063E08E4A
:10226000401EE0864FF0000920688168C9070CD045
:10227000E18F51B1C068A16B0870A06B401CA063D6
:10228000E08F401EE0874FF00109FEF7E7FEA0EB6C
:102290000800B04202D3701C01D010E07EB1E08E85
:1022A0000028CDD1E08F0028CAD1424631462046D1
:1022B00001F020FD28B101272020606507E00327F9
:1022C00005E0A06818B92068C16880680090012006
:1022D00084F85100002084F8500038462CE77047FD
:1022E000704710B590F83C20012A22D0012280F8D6
:1022F0003C20CA688C6822F4407222434C6822F465
:10230000806222430C6822F4006222430C6922F4AA
:10231000805222434C6922F400522243C9690023AF
:1023200022F480420A4301684A6480F83C3000206D
:1023300010BD022010BD000070B590F83C20012AAD
:1023400032D0012480F83C40022280F83D2003680E
:102350005A689D6822F070060A6832435A60134B2F
:1023600002689A4214D0B2F1804F11D0104B9A42B9
:102370000ED0104B9A420BD00F4B9A4208D00F4B05
:102380009A4205D00E4B9A4202D00E4B9A4204D18B
:10239000496825F080031943916080F83D40002191
:1023A00080F83C10084670BD022070BD000001405E
:1023B0000004004000080040000C00400004014000
:1023C000004001400018004010B5040003D094F80C
:1023D0003D0010B107E0012010BD002084F83C0052
:1023E000204600F01FF8022084F83D00211D2068DF
:1023F00001F0DCFF012084F8460084F83E0084F8F8
:102400003F0084F8400084F8410084F8420084F8DA
:10241000430084F8440084F8450084F83D0000201F
:1024200010BD000008B501681748814208D117485F
:10243000016841F001010160006800F001000BE05B
:102440001248134A001F914208D1016841F002016D
:102450000160006800F00200009008BD0D4A914242
:10246000FBD1016841F0200101600068002200F00A
:102470002000009006213720FFF72AF9BDE8084028
:102480003720FFF717B90000000001404438024030
:10249000000400400014004090F83D10012901D0D4
:1024A00001207047022180F83D10006811498842E0
:1024B00014D0B0F1804F11D00F4988420ED00F498F
:1024C00088420BD00E49884208D00E49884205D078
:1024D0000D49884202D00D49884204D1816801F03B
:1024E0000701062903D0016841F0010101600020C5
:1024F0007047000000000140000400400008004058
:10250000000C004000040140004001400018004061
:1025100090F83D10012901D001207047022180F878
:102520003D100168CA6842F00102CA6000681149A2
:10253000884214D0B0F1804F11D00F4988420ED09C
:102540000E4988420BD00E49884208D00D49884276
:1025500005D00D49884202D00C49884204D18168D7
:1025600001F00701062903D0016841F00101016073
:1025700000207047000001400004004000080040B7
:10258000000C0040000401400040014000180040E1
:1025900070B5044690F83C000025012817D00126AC
:1025A00084F83C60022084F83D002068826822F0B4
:1025B000770222F47F4282600868502838D00DDC10
:1025C00020284FD005DC90B3102811D14AE002201A
:1025D00070BD302846D040280AD13BE060282FD07B
:1025E00070280DD0B0F5805F03D0B0F5005F12D039
:1025F000012584F83D60002084F83C00284670BD29
:10260000CB68D1E90121206801F041FF2068816891
:1026100041F0770109E0CB68D1E90121206801F0A0
:1026200036FF2068816841F480418160E1E719E06C
:10263000CA684968206801F0FFFF5021206806E061
:10264000CA684968206802F008F86021206801F033
:1026500028FFCEE7CA684968206801F0EDFF4021F5
:102660002068F4E7226801461046F0E7704770B52D
:102670000446006801694FF00005C943890715D475
:10268000C168C943890711D4E91E0161012020777F
:10269000206880698007204602D0FFF7E7FF04E04A
:1026A00000F038F9204600F013FA25772068016918
:1026B000C943490717D4C168C943490713D46FF008
:1026C00004010161022020772068806910F4407FB6
:1026D000204602D0FFF7CAFF04E000F01BF92046B5
:1026E00000F0F6F9257720680169C943090716D477
:1026F000C168C943090712D46FF0080101610420C1
:1027000020772068C0698007204602D0FFF7AEFF1F
:1027100004E000F0FFF8204600F0DAF925772068A1
:102720000169C943C90617D4C168C943C90613D48E
:102730006FF010010161082020772068C06910F453
:10274000407F204602D0FFF791FF04E000F0E2F85E
:10275000204600F0BDF9257720680169C943C90703
:1027600008D1C168C943C90704D1891E0161204647
:1027700000F014FA20680169C943090609D4C16848
:10278000C943090605D46FF0800101612046FFF7B7
:10279000A6FD20680169C943490609D4C168C94337
:1027A000490605D46FF040010161204600F000FAAF
:1027B00020680169C94389060BD4C168C9438906E9
:1027C00007D46FF0200101612046BDE87040FFF79B
:1027D00087BD70BD70B586B0044614216846FDF70C
:1027E00027FD24683F4D00223F4902233F48AC4269
:1027F00011D10C6844F010040C60096801F010015C
:1028000005914FF4D4410091CDE901320121CDE988
:102810000321694612E0364DAC4213D1086840F0FE
:10282000080008600868694600F0080005904FF449
:1028300020400090CDE901322E4814E0FEF70CFB59
:1028400006B070BD2C4DAC4210D1086840F00100BC
:1028500008600868694600F0010005900F200090AC
:10286000CDE901322548CDE90323E7E7244E0325CE
:10287000B4420FD1086840F0040008600868694657
:1028800000F0040005904FF470700090CDE9013223
:102890001C480FE01C4EB4420FD10C6844F01004E9
:1028A0000C60096801F01001059160210091CDE9EB
:1028B00001326946CDE90325C0E714488442BFD1FF
:1028C000086840F0020008600868694600F00200ED
:1028D0000590E0000090CDE901320920CDE9032008
:1028E0000B48ABE7000001403038024000100240C6
:1028F00000080040000C0240000C004000000240B4
:10290000000401400008024000400140001800405F
:1029100000040240704770B5044690F83C00002661
:102920000D4601280FD0012084F83C006AB1042A2A
:102930001DD0082A2FD00C2A3FD00126002084F871
:102940003C00304670BD022070BD206801F0B2FD31
:102950002068816941F0080181612068816921F066
:1029600004018161206881692A69114311E02068AE
:1029700001F0D0FD2068816941F400618161206827
:10298000816921F480618161206881692A6941EA55
:1029900002218161D2E7206801F0F2FD2068C1695F
:1029A00041F00801C1612068C16921F00401C161E1
:1029B0002068C1692A69114311E0206801F014FE02
:1029C0002068C16941F40061C1612068C16921F4D6
:1029D0008061C1612068C1692A6941EA0221C1613F
:1029E000ACE710B5040003D094F83D0010B107E047
:1029F000012010BD002084F83C00204600F01EF8A5
:102A0000022084F83D00211D206801F0CFFC012048
:102A100084F8460084F83E0084F83F0084F84000C3
:102A200084F8410084F8420084F8430084F84400AC
:102A300084F8450084F83D00002010BD08B51E4A0A
:102A400001681E48914207D1016841F0040101600C
:102A5000006800F0040009E0194A914208D10168B9
:102A600041F008010160006800F00800009008BD16
:102A7000124A144B121D994207D1106840F002000F
:102A80001060106800F00200F0E70F4B994207D188
:102A9000106840F480301060106800F48030E5E782
:102AA0000A4A9142E3D1016841F0400101600068A7
:102AB00000F04000DAE70000000800404038024023
:102AC000000C00400004014000400140001800409C
:102AD0007047000010B50446022249B104290ED007
:102AE000082913D094F84100012816D0012010BD08
:102AF00094F83E000128F9D184F83E200FE094F8C4
:102B00003F000128F2D184F83F2008E094F840000B
:102B10000128EBD184F8402001E084F84120012213
:102B2000206801F0A7FC16492068164A884201D0A7
:102B3000904203D1436C43F40043436420688842CD
:102B400013D0B0F1804F10D00F4988420DD00F49FB
:102B500088420AD00E49884207D0904205D00D49DC
:102B6000884202D00C49884204D1816801F00701F3
:102B7000062903D0016841F001010160002010BD69
:102B80000000014000040140000400400008004033
:102B9000000C00400040014000180040006803495C
:102BA000884201D1FEF700BD7047000000100040D0
:102BB0007047704770470000F8B501680446086820
:102BC000CA684B6910F00F0F4FF0000559D003F0A1
:102BD000010602F49077374365D0C10705D0D105CF
:102BE00003D5216C41F001012164410705D5D907C6
:102BF00003D0216C41F002012164810705D5D9077A
:102C000003D0216C41F004012164010707D502F0D3
:102C10002001314303D0216C41F008012164216C73
:102C200000293AD0800604D5900602D5204601F04E
:102C300055FD20684069216CC0F38010090700D45D
:102C400060B3204601F023FD20684069400621D58D
:102C50002068143050E8001F21F0400140E80012C5
:102C6000002AF5D1A06BA8B16C490165A06BFDF7F6
:102C700094FF002811D0A06B016D01B0BDE8F040B9
:102C8000084783060FD593060DD52046BDE8F840CA
:102C900001F024BD2046FFF78DFFF8BD2046FFF769
:102CA00089FF2564F8BD266B2023012E79D1C60645
:102CB00077D5D60675D508684868009048694006FB
:102CC00040D5A16B086840680004000CEAD0A28DD2
:102CD0008242E7D9E085C869B0F5807F2DD02068B1
:102CE0000C3050E8001F21F4807140E80012002AE7
:102CF000F5D12068143050E8001F21F0010140E8B0
:102D00000012002AF5D12068143050E8001F21F08D
:102D1000400140E80012002AF5D184F83E302563D6
:102D200020680C3050E8001F21F0100140E800122C
:102D3000002AF5D1A06BFDF7E7FEA08DE18D401ACA
:102D400081B229E0A08DE18D401A81B2E08D00288A
:102D5000A8D00029A6D020680C3050E8002F22F41B
:102D6000907240E80026002EF5D12068143050E81B
:102D7000002F22F0010240E80026002EF5D184F851
:102D80003E30256320680C3050E8002F22F01002FE
:102D900040E80023002BF5D12046FFF70AFFF8BDDD
:102DA000FFE705062BD5150629D594F83D00212807
:102DB000F5D1A068B0F5805F01D12069B0B1206A7B
:102DC000411C2162216800784860E08C401E0004AC
:102DD000000CE084E3D12068C16821F08001C1606B
:102DE0002068C16841F04001C160D8E7206A0088CE
:102DF000C0F308004860206A801C2062E5E74006B6
:102E0000CDD55006CBD5CA68204622F04002CA6014
:102E100084F83D3000F0E8F8C1E700007F46000884
:102E200070B5040004D094F83D00002510B106E010
:102E3000012070BD84F83C50204600F023F8242087
:102E400084F83D002068C16821F40051C16020462B
:102E500001F0A4FC2068016921F49041016120681F
:102E6000416921F02A0141612068C16841F40051A3
:102E7000C1602564202084F83D0084F83E000020D5
:102E800070BD00002DE9F04387B006461421684666
:102E9000FDF7CEF9414F316841480222032307254F
:102EA0000024B94221D13E4914310E6846F0100683
:102EB0000E60096801F010010591016841F00101FF
:102EC00001600068694600F00100059058028DE835
:102ED0001500CDE903353348FDF7BEFF0022092177
:102EE0002520FEF7F5FB252053E02F4FB94252D1A4
:102EF0002B4910310F6847F400370F60096801F45F
:102F000000310591016841F00801016000686946DF
:102F100000F00800059060208DE81500CDE903352C
:102F20002248FDF799FF234D21484FF000692860A2
:102F3000C5E901940715C5E903476C614FF4803872
:102F4000AC61C5E9074828466C62FDF709FF08B186
:102F5000FDF7F0FCB563AE63164D154860351830CB
:102F6000E5E80209402091C5124845F8144960304F
:102F7000AC61C5E907486C62FDF7F2FE08B1FDF7E8
:102F8000D9FC7563002207212620AE63FEF7A0FB63
:102F90002620FEF78FFB07B0BDE8F083001001404C
:102FA000303802400000024000440040000C024063
:102FB00088600240900300200068084988420CD1D4
:102FC000074801782D2908D1017A0D2905D1407AC9
:102FD0000A2802D1034901200870704700100140FF
:102FE00018000020000000207047FEE701684A69D1
:102FF000D24352050FD46FF480624A61002140F839
:10300000301F202242738173026942F00402026180
:103010000173012070470020704700002DE9F84F30
:103020000446C06A1E4693460D4621680A6842F46B
:1030300080620A60082807D0012805D010F5803F7B
:1030400002D0206B112804D12068016841F48071FE
:1030500001604FF001195B46002249462046009668
:1030600000F0C6F84FF4007840B120680068C00551
:1030700001D5C4F840800320BDE8F88F2069DFF84F
:1030800084A0B0F5804F0FD00620216800EAD51744
:1030900047F0F000086133465A460AF1060120461F
:1030A00000F0DAF858BB03E0E8B240F001001CE0A1
:1030B0002168E8B2086133465A465146204600F07E
:1030C000CBF8E0B92068416981690091016841F459
:1030D000807101605B46002249462046009600F060
:1030E00087F80028C1D147F0F10021680861334614
:1030F0005A465146204600F0AFF80028BCD00120C7
:10310000BAE7000002000100F8B50446C06A1E4696
:103110000D461746082807D0012805D010F5803F36
:1031200002D0206B122804D12068016841F480711C
:103130000160134600224FF001112046009600F076
:1031400057F840B120680068C00502D54FF4007000
:1031500020640320F8BD2069B0F5804F0ED0062012
:10316000216800EAD51040F0F000086133463A4685
:103170000B49204600F070F878B902E005F0FE0037
:1031800000E0E8B221680861054933463A46891FE4
:10319000204600F061F80028DCD00120F8BD0000D6
:1031A0000800010070B516460D4604460DE02046A5
:1031B000FFF71CFF08B1012070BD681C05D0FDF7AA
:1031C0004DFF801BA84207D835B120684069C04335
:1031D0004007ECD4002070BD002044F8300F2021BF
:1031E0006173A073216941F0200121612073E2E73E
:1031F0002DE9F0471E4690460D460446C1F30747A9
:10320000DDF8209008E0701C06D0FDF727FFA0EB4A
:103210000900B0420FD876B12068012F18D080691C
:1032200025EA00000004000C14D000214145EAD03A
:103230000020BDE8F087002044F8300F20216173A2
:10324000A073216941F02001216120730120F0E782
:103250004069E5E70121E9E72DE9F0479A46914603
:103260000E46044600254FF02008C1F3074725E02D
:1032700020684069C043400514D42068016841F4C7
:103280000071016021686FF480604861256384F8F3
:103290003D8084F83E50206C40F00400206484F8A7
:1032A0003C501FE0B9F1FF3F08D0FDF7D7FEA0EB7F
:1032B0000A0149450CD8B9F1000F09D02068012F47
:1032C00013D0806926EA00000004000C0BD0CFE781
:1032D00044F8305F84F80D80A573206940F0200029
:1032E000206125730120BDE8F0874069EAE72DE9F8
:1032F000F041002590460E460446202717E040691D
:10330000C043C0060CD454F8301B6FF01000486165
:1033100044F810596777A577206A2062257717E06F
:10332000FDF79CFEA0EB0800B04208D83EB1206833
:103330004169C9434906E2D40020BDE8F08144F860
:10334000305F6773A573206940F02000206125730A
:103350000120F2E770B516460D4604460DE0204602
:10336000FFF744FE08B1012070BD681C05D0FDF7D1
:1033700075FE801BA84207D835B120684069C0435C
:103380000006ECD4002070BD002044F8300F20214E
:103390006173A073216941F0200121612073E2E78C
:1033A00010B5064C012240212046FDF752FE204672
:1033B0000122BDE810408021FDF74BBE0000024015
:1033C0002DE9F0410E4D0F4E002400BFC4EB041058
:1033D00000EB400004EB840705EBC7012D22401CE5
:1033E000FDF766FB15F83700002807D0FF2805D049
:1033F0003068641C401C3060802CE7DBBDE8F08145
:10340000480600201400002010B50648FFF744F8D5
:1034100000210448FFF75EFB024900200968486369
:1034200010BD0000C80000200D4808B5016841F437
:10343000001101600068002200F4001000900521D6
:103440001020FEF745F91020FEF734F9002205217F
:103450001120FEF73DF9BDE808401120FEF72AB91A
:10346000303802402DE9F04786B014216846FCF759
:10347000DFFE45480024016841F010010160016849
:1034800001F010010591016841F0800101600168BF
:1034900001F080010591016841F0040101600168BB
:1034A00001F004010591016841F00101016001682A
:1034B00001F001010591016841F00201016001681C
:1034C00001F002010591016841F008010160006806
:1034D0002E4F00F008000590002203213846FDF72A
:1034E000B8FDDFF8AC800022C0214046FDF7B1FDF9
:1034F000DFF8A090002201214846FDF7AAFD012235
:1035000006214846FDF7A5FDDFF88CA04FF4AA463A
:10351000002231465046FDF79CFD182001258DE81C
:10352000310069461D48FDF797FC03200090CDE966
:103530000154694638460394FDF78EFCC020009084
:10354000CDE90154694640460394FDF785FC072008
:103550000090CDE90154694648460394FDF77CFC90
:103560000220CDE90240CDE9006569465046FDF7ED
:1035700073FC0F208DE8310069465046FDF76CFC66
:1035800006B0BDE8F0870000303802400008024075
:103590000000024000040240000C02400010024003
:1035A0000D4810B50B4901600C49416000214FF4F2
:1035B00080428160C0E9031241618161C1610162A1
:1035C000FDF752FD002803D0BDE81040FDF7B2B969
:1035D00010BD00000054004020000020A086010023
:1035E0000D4810B50B4901600C49416000214FF4B2
:1035F00080428160C0E9031241618161C161016261
:10360000FDF732FD002803D0BDE81040FDF792B968
:1036100010BD00000058004074000020A08601008A
:103620000F4810B50D4901604FF4827141600021CF
:103630008160C1604FF400720161C0E90512C1618F
:103640000162416281620A21C162FEF733FB0028F8
:1036500003D0BDE81040FDF76DB910BD003001404A
:10366000980400200F4810B50D4901604FF4827195
:10367000416000218160C1604FF400720161C0E9C6
:103680000512C1610162416281620A21C162FEF7D5
:1036900011FB002803D0BDE81040FDF74BB910BD69
:1036A00000380040F004002010B588B01C216846A6
:1036B000FCF7BEFD154814490024C0E9001441F28E
:1036C0006701C0E9024104618461FFF78AF908B12A
:1036D000FDF730F96020CDE900040294002269462C
:1036E0000A480494FFF717F908B1FDF723F90422FB
:1036F00069460648FFF70FF908B1FDF71BF90348C3
:10370000FFF768F808B010BD00180040C0020020A4
:1037100010B596B000240F94109411941294139441
:103720001C2168461494FCF783FD202107A8FCF7B0
:103730007FFD3548334901600121C0E9011441F2A0
:103740006701C0E9031444618461FEF73DFE08B1DE
:10375000FDF7F0F84FF480500F900FA92A48FEF7BC
:1037600017FF08B1FDF7E6F82748FFF73AF908B167
:10377000FDF7E0F82020CDE9130413A92248FEF755
:10378000DBFD08B1FDF7D6F86020CDE90004029416
:10379000039404940594002269461B480694FFF79D
:1037A000BAF808B1FDF7C6F8042269461648FFF7D3
:1037B000B2F808B1FDF7BEF8082269461248FFF7D3
:1037C000AAF808B1FDF7B6F80C2269460E48FFF7D3
:1037D000A2F808B1FDF7AEF80794089409944FF4E5
:1037E00000500A94CDE90B4040000E9007A906480E
:1037F000FEF777FD08B1FDF79DF80348FEF7EAFFF5
:1038000016B010BD00000140C800002010B586B001
:1038100000241648009401940294039404941249DD
:103820000594C0E9001441F26701C0E90241046156
:103830008461FEF7C9FD08B1FDF77CF84FF48050B4
:10384000009069460948FEF7A3FE08B1FDF772F83B
:10385000049404A905480594FEF76EFD002801D0E4
:10386000FDF768F806B010BD00040040100100200C
:1038700010B58AB0002407941C2168460894FCF710
:10388000D7FC1A481849C0E9001441F26701C0E9A1
:10389000024104618461FFF7A4F808B1FDF74AF81A
:1038A000079407A911480894FEF746FD08B1FDF7F3
:1038B00041F86020CDE900040294042269460B48D7
:1038C0000494FFF728F808B1FDF734F80C22694694
:1038D0000648FFF720F808B1FDF72CF80348FEF77B
:1038E00079FF0AB010BD0000000800405801002018
:1038F00010B58AB0002407941C2168460894FCF790
:1039000097FC22482049C0E9001441F26701C0E950
:10391000024104618461FFF764F808B1FDF70AF819
:10392000079407A919480894FEF706FD08B1FDF7AA
:1039300001F86020CDE90004029400226946134892
:103940000494FEF7E8FF08B1FCF7F4FF042269468F
:103950000E48FEF7E0FF08B1FCF7ECFF08226946CD
:103960000A48FEF7D8FF08B1FCF7E4FF0C226946CD
:103970000648FEF7D0FF08B1FCF7DCFF0348FEF76E
:1039800029FF0AB010BD0000000C0040A00100207B
:103990001CB500240E4800940C49019401600521D7
:1039A000C0E90114C7218461C160FEF70DFD08B1B3
:1039B000FCF7C0FF0094694605480194FEF7BCFC83
:1039C000002801D0FCF7B6FF1CBD00000014004029
:1039D000E801002010B592B000240F941C21684625
:1039E0001094FCF725FC202107A8FCF721FC2D48AA
:1039F0002B4901600121C0E9011441F26701C0E9CE
:103A0000031444618461FEF7ECFF08B1FCF792FFF8
:103A10000F940FA923481094FEF78EFC08B1FCF711
:103A200089FF6020CDE90004029403940494059476
:103A3000002269461B480694FEF76DFF08B1FCF7AB
:103A400079FF042269461748FEF765FF08B1FCF7C5
:103A500071FF082269461348FEF75DFF08B1FCF7C5
:103A600069FF0C2269460F48FEF755FF08B1FCF7C5
:103A700061FF0794089409944FF400500A94CDE92B
:103A80000B4040000E9007A90648FEF72AFC08B13B
:103A9000FCF750FF0348FEF79DFE12B010BD00007A
:103AA000000401403002002010B588B01C21684697
:103AB000FCF7BEFB16481549002401600121C0E94E
:103AC000011441F26701C0E903148461FEF789FF24
:103AD00008B1FCF72FFF6020CDE90004029400221A
:103AE00069460B480494FEF716FF08B1FCF722FF65
:103AF000042269460648FEF70EFF08B1FCF71AFFDC
:103B00000348FEF767FE08B010BD0000004001400A
:103B1000780200200C4810B50A4901604FF4E131E9
:103B20004160002181600C22C160C0E90412816102
:103B3000C161FFF775F9002803D0BDE81040FCF71C
:103B4000F9BE10BD00100140080300200C4810B55C
:103B50000A4901604FF4E1314160002181600C228B
:103B6000C160C0E904128161C161FFF759F9002801
:103B700003D0BDE81040FCF7DDBE10BD004400409E
:103B80004C030020FEE7FEE710B50021084601F0D7
:103B90001BFE0021084601F029FE0021084601F025
:103BA00037FE0021084601F045FE0021084601F0DD
:103BB00053FE0021084601F061FE9FED040A01F06A
:103BC00069FCBDE8104000F039B800000000FA447C
:103BD000DFED190A010900F00F0320EE200A062983
:103BE000BCEEC00A27D2DFE801F003080E141A2049
:103BF00010EE102A002101F00FBD10EE102A002156
:103C0000184601F02DBD10EE102A0021184601F0D3
:103C10004BBD10EE102A0021184601F069BD10EED0
:103C2000102A0021184601F087BD10EE102A00214D
:103C3000184601F0A5BD70470000804510B500246E
:103C40002DED028B9FED068A2046B0EE480AFFF765
:103C5000BFFF641CE4B2602CF6D3BDEC028B10BD38
:103C6000000000007047000010B500242DED028B0D
:103C70009FED088A2046B0EE480AFFF7A9FFC8204A
:103C8000FDF7D8F8641CE4B2102CF3D3BDEC028B22
:103C900010BD000000000000F8B5044640684FF475
:103CA0008273984221D1A0684FF48065B0F5004F2F
:103CB00001D0A8420AD12068066826F040060660B6
:103CC0006068984211D1A068A8420ED000920B46BD
:103CD00000228021204600F039F8002804D0606DD1
:103CE00040F0200060650320F8BD00920B460022E2
:103CF0000121EFE738B504461248134B0068B0FBCA
:103D0000F3F04FF47A73584300906068B0F5827F07
:103D10000DD10B46009200228021204600F016F8BB
:103D200070B1606D40F020006065032038BD0098E0
:103D300030B1401E009020688068C0430006F6D570
:103D4000002038BD1000002000366E012DE9F84338
:103D50001E46914688460446089DFDF77FF9401BA4
:103D6000351AFDF77BF9074625480068C0F3CB30CC
:103D7000684338E0701C37D0FDF770F9C01BA842CB
:103D800003D215B1009860B32CE02068416821F09F
:103D9000E00141606068B0F5827F0BD1A068B0F5AA
:103DA000004F02D0B0F5806F04D12068016821F087
:103DB00040010160A06AB0F5005F09D12068016888
:103DC00021F4005101602068016841F40051016054
:103DD000012084F85100002084F850000320BDE841
:103DE000F8830025401E00902068816838EA0100B1
:103DF00004D000214945BDD10020F0E70121F9E7B9
:103E0000100000202DE9FF4F83B09846DDE91094A3
:103E10004A1E637825781A44D3B2421E2A44D2B28D
:103E2000C9B2C0B200F0CAF92C2000F01DFA002679
:103E300037E01F488442059801D12E3800E0203831
:103E400000FB0160616800254FEA192B51F82070D2
:103E50004FEA1820019008F0FF0009F0FF0A0090D7
:103E60001BE000BF07FA05F1102802D94FF000400F
:103E700001E04FF40040014206D001988DF808009F
:103E800000988DF8090003E08DF808B08DF809A0BE
:103E9000022102A800F008FA6D1C2078A842E1D89F
:103EA000761C6178B142C4D807B0BDE8F08F00003D
:103EB000246800082DE9F0411E46069B00241546A3
:103EC0001F0A134ADBB207E002F8147002EB440C3D
:103ED000641C8CF80130A4B2AC42F5D38A19521E8E
:103EE000D3B24219521ED2B2C9B2C0B200F066F9C2
:103EF0002C2000F0B9F900246D0005E029460448A3
:103F000000F0D2F9641CA4B2B442F7D3BDE8F0814A
:103F1000480500202DE9FC479946DDE90A8416464C
:103F20000F46054616E020782844802803D960789B
:103F30000025384487B260783844A0280DD8CDE9F0
:103F400000844B4639462846FFF75CFF2078761CF4
:103F5000284485B23278002AE5D1BDE8FC8708B54F
:103F600000210090A02380220846FFF7A3FF08BD90
:103F700010B500F00DF9112000F076F97820FCF76B
:103F800059FFB12000F070F9012000F04DF92C200C
:103F900000F04AF92D2000F047F9B22000F064F952
:103FA000012000F041F92C2000F03EF92D2000F016
:103FB0003BF9B32000F058F9012000F035F92C202E
:103FC00000F032F92D2000F02FF9012000F02CF93B
:103FD0002C2000F029F92D2000F026F9B42000F063
:103FE00043F9072000F020F9C02000F03DF9A2209D
:103FF00000F01AF9022000F017F9842000F014F9FB
:10400000C12000F031F9C52000F00EF9C22000F007
:104010002BF90A2000F008F9002000F005F9C32070
:1040200000F022F98A2000F0FFF82A2000F0FCF8C6
:10403000C42000F019F98A2000F0F6F8EE2000F014
:10404000F3F8C52000F010F90E2000F0EDF8202064
:1040500000F00AF93A2000F007F9052000F0E4F832
:104060002A2000F001F9002000F0DEF8002000F026
:10407000DBF8002000F0D8F87F2000F0D5F82B20E6
:1040800000F0F2F8002000F0CFF8002000F0CCF8AB
:10409000002000F0C9F89F2000F0C6F8E02000F0F2
:1040A000E3F8022000F0C0F81C2000F0BDF8072063
:1040B00000F0BAF8122000F0B7F8372000F0B4F89A
:1040C000322000F0B1F8292000F0AEF82D2000F0E9
:1040D000ABF8292000F0A8F8252000F0A5F82B2047
:1040E00000F0A2F8392000F09FF8002000F09CF8C2
:1040F000012000F099F8032000F096F8102000F05D
:1041000093F8E12000F0B0F8032000F08DF81D20B6
:1041100000F08AF8072000F087F8062000F084F805
:104120002E2000F081F82C2000F07EF8292000F0ED
:104130007BF82D2000F078F82E2000F075F82E2066
:1041400000F072F8372000F06FF83F2000F06CF8B4
:10415000002000F069F8002000F066F8022000F06E
:1041600063F8102000F060F8132000F07DF80A20BA
:10417000FCF760FE292000F077F80A20FCF75AFED1
:10418000002000F039F8BDE810400020FFF7E7BE3E
:1041900010B5094C002202212046FCF75AFF64208A
:1041A000FCF748FE012202212046FCF752FFBDE841
:1041B00010406420FCF73EBE00080240F8B50746F8
:1041C0001C4615460E462A2000F04EF800200090AE
:1041D0008DF801708DF803500421684600F064F8F2
:1041E0002B2000F041F88DF801608DF80340042188
:1041F000684600F059F8F8BD10B5002430B1012828
:1042000006D0022807D0032805D103E0C02402E02D
:10421000A02400E06024362000F026F82046BDE807
:10422000104000F001B8000031B5012211460B48E2
:10423000FCF70FFF0A4C002202212046FCF709FF81
:104240004FF0FF33012269460648FDF7A4FE012224
:1042500002212046FCF7FDFE38BD000000080240A8
:1042600000040240F004002031B5002201210B4877
:10427000FCF7EFFE0A4C002202212046FCF7E9FE83
:104280004FF0FF33012269460648FDF784FE012204
:1042900002212046FCF7DDFE38BD00000008024088
:1042A00000040240F004002070B50D4604460122CF
:1042B00011460B48FCF7CDFE0A4E00220221304683
:1042C000FCF7C7FEAAB24FF0FF3321460648FDF7C0
:1042D00062FE3046BDE8704001220221FCF7B9BE03
:1042E0000008024000040240F004002070477047BC
:1042F00030B593B030216846FBF79AFF14210CA823
:10430000FBF796FF1D480025016841F080510160D0
:10431000006800F0805011901948016841F4804114
:1043200001600068022400F4804011900120009098
:10433000000401908001CDE9064008AA0420A821CC
:1043400082E813000B906846FDF7FEFA08B172B6DA
:10435000FEE70CA90F2081E831004FF4A0500F9028
:104360004FF48050109005210CA8FDF7E3F90028C8
:1043700001D072B6FEE713B030BD000040380240F5
:10438000007000400248016841F47001016070470C
:1043900088ED00E00148FEF76AB9000050040020F3
:1043A0000148FEF764B90000E8010020F0B502689A
:1043B000254C264D264E274F274B4FF0804CA042D0
:1043C00009D0604507D0A84205D0B04203D0B8421A
:1043D00001D0984204D122F0700E4A6842EA0E02DF
:1043E000A0421BD0604519D0A84217D0B04215D0CA
:1043F000B84213D0984211D0184DA8420ED0184D93
:10440000A8420BD0174DA84208D0174DA84205D09E
:10441000164DA84202D0164DA84203D122F4407591
:10442000CA682A434D6922F080022A4302608A68E2
:10443000C2620A688262A04201D0984201D1096931
:10444000016301214161F0BD000001400004004012
:1044500000080040000C0040000401400040014002
:10446000004401400048014000180040001C00408A
:104470000020004010B501F01F030121046A99409B
:104480008C430462016A9A401143016210BD10B569
:10449000846842EA032224F47F440A432243826070
:1044A00010BD826822F070020A4342F00701816069
:1044B00070470000F0B5026A22F001020262036A4E
:1044C00042688469124E24F073050C682C4323F073
:1044D00002058B682B430D4DA84201D0B04205D197
:1044E00023F00807CB683B4323F00403A84201D024
:1044F000B04205D14D6922F4407215438A692A43BE
:1045000042608461496841630362F0BD000001407C
:1045100000040140F0B5026A22F010020262026A51
:10452000436884690D6824F4E64444EA05248D68F0
:1045300022F0200242EA05120F4D104EA84201D08F
:10454000B04206D1CF6822F0800242EA071222F080
:104550004002A84201D0B04207D14D6923F4406324
:1045600043EA85038D6943EA8503436084614968B2
:1045700081630262F0BD00000000014000040140C0
:10458000F0B5026A22F480720262026A4368C4696A
:1045900022F4007224F073050C68124E2C438D68CF
:1045A00042EA05220E4DA84201D0B04206D1CF68A2
:1045B00022F4006242EA072222F48062A84201D07B
:1045C000B04207D14D6923F4405343EA05138D6986
:1045D00043EA05134360C4614968C1630262F0BDE8
:1045E000000001400004014030B5026A22F480520C
:1045F0000262046A4268C3690D6823F4E64343EA31
:1046000005238D6824F4005444EA0534084DA8427B
:1046100002D0084DA84204D14D6922F4804242EAFA
:1046200085124260C36149680164046230BD0000C4
:10463000000001400004014010B5036A046A24F040
:1046400001040462846924F0F00444EA021423F0B3
:104650000A020A438461026210BD10B5036A23F0A6
:10466000100303628369046A23F4704343EA02324D
:1046700024F0A00343EA01118261016210BD10B56C
:10468000806B0021C185C184FEF794FA10BD0168DA
:104690000C3151E8002F22F4907241E80023002BE6
:1046A000F5D10168143151E8002F22F0010241E8F0
:1046B0000023002BF5D1016B012909D101680C31D0
:1046C00051E8002F22F0100241E80023002BF5D121
:1046D000202180F83E1000210163704708B590F852
:1046E0003E10222901D0022008BD82684FF4805379
:1046F0009A4201D1016921B1816A9A421BD04AB123
:104700000AE00268816A5268C2F308020A80816A7C
:10471000891C08E0026972B10268526802F07F02E7
:104720000A70816A491C8162C18D491E0904090C05
:10473000C18503D019E002685268F1E70168CA68D0
:1047400022F02002CA600168CA6822F48072CA603E
:1047500001684A6922F001024A61202180F83E1076
:10476000016B012903D0FEF727FC002008BD0021C2
:10477000016301680C3151E8002F22F0100241E87A
:104780000023002BF5D101680A68D20602D50A6819
:1047900049680091818DFEF70CFAE6E770B5044692
:1047A00000680169E26821F4405111430161216907
:1047B000A068E26908436169114308432168CA6837
:1047C00049F20C639A430243CA6020684169A269B6
:1047D00021F440711143416131492068884202D07F
:1047E0003049884202D1FDF76FF801E0FDF75CF82F
:1047F000E2690023192164253226B2F5004F626870
:1048000028D0A0FB0101930F9200FBF7D9FC0146D1
:10481000B0FBF5F06FF01802504301EB800006EB9F
:104820000010B0FBF5F000F0F002B1FBF5F002EB88
:104830000012B1FBF5F06FF01803584301EB800054
:1048400006EB0010B0FBF5F000F00F0021681044FB
:10485000886070BDA0FB010192185B41FBF7B0FCC2
:104860000146B0FBF5F00201B1FBF5F06FF0180363
:10487000584301EB800006EBC000B0FBF5F000F000
:10488000F80002EB4002B1FBF5F0584301EB800069
:1048900006EBC000B0FBF5F000F00700D6E7000023
:1048A00000100140001401400148FEF785B90000E6
:1048B000080300200148FEF77FB900004C030020E8
:1048C000FEE700000FB4084B10B504A902AA039834
:1048D00000F07CF9044602A9002000F00EFD2046FD
:1048E00010BC5DF814FB0000FB5200080907090E1C
:1048F000002804DB00F1E02080F80014704700F08D
:104900000F0000F1E02080F8141D70470000000047
:104910002DE9F0412DED020B9FED3D0B2DED028BAE
:104920009FED3D8BDDE90254C4F30A50A0F2FF363F
:10493000142E37DA002E18DA53EC102B9DED020BF3
:1049400051EC100BFBF77FFC53EC182BFBF74CFFE3
:1049500057D2002CA4BF0024254652DA24F0004090
:10496000284318BF2E4C4CD01AE02E4820FA06F7E8
:1049700004EA070028431FD053EC102B9DED020BD7
:1049800051EC100BFBF75FFC53EC182BFBF72CFFE3
:1049900037D2002C03DA4FF48010F0400444BC43BB
:1049A00000252EE0332E07DCA6F114004FF0FF3176
:1049B00021FA00F73D4206D19DED020BBDEC028BC2
:1049C00002B0BDE8F08153EC102B9DED020B51ECD1
:1049D000100BFBF7DCFC53EC182BFBF705FF10D298
:1049E000002C0DDA142E08BF641C09D0C6F1340067
:1049F000012101FA00F02844A84238BF641C054692
:104A0000BD43CDE902549DED020BD7E70000000045
:104A10009C7500883CE4377E000000000000000028
:104A20000000F0BFFFFF0F0002E008C8121F08C11E
:104A3000002AFAD170477047002001E001C1121F1F
:104A4000002AFBD1704700002DE9FF5F82B00021F2
:104A5000DDE90430020DDDF840B0034318D044F620
:104A60001050A2F2FF3242431514119801281FD0B2
:104A7000A5EB0B00401C5FEA000A4FF000064E4F0A
:104A8000DFF83891B046504615D5CAF1000413E05E
:104A9000119801244AA3012801D16FEA0B01029861
:104AA000119AC0E90031C0E9024206B0BDE8F09FAA
:104AB000CBF10000DFE704460021404A491842EBF1
:104AC0000450CDE9001012E0E00707D032463B4623
:104AD00040464946FBF75EFC8046894632463B46E7
:104AE00010461946FBF756FC06460F466410002C8C
:104AF000EAD1DDE90401DDE90023BAF1000F06DAAD
:104B0000FBF748FC42464B46FBF744FC05E0FBF74D
:104B1000B3FC42464B46FBF7AFFC04460E46002270
:104B2000284BFBF761FE03D84FF0FF30014607E04A
:104B30000022254B20463146FBF785FBFBF73BFE69
:104B4000102409E0002C0ADB0A220023FBF738FBC3
:104B5000039B30321A55641E50EA0102F2D1641CE4
:104B6000039AC4F111031444119A012A03D00122BB
:104B700008430DD10AE0084304D000204FF0110B88
:104B8000119072E7A3EB0B056D1E0DE05B4504DD94
:104B90004FF0000205F1010504E003DA4FF00002D6
:104BA000A5F10105002AECD002981199C0E9023163
:104BB000C0E9004579E70000000014400000F03F24
:104BC000300000000000F0430000E03F2DE9FF4FFF
:104BD00095B09B468946064600250FE2252877D1E9
:104BE00000242746F84A0121059400E0044316F802
:104BF000013F203B01FA03F01042F7D130782A2818
:104C000011D06FF02F033078A0F13002092A16D8A6
:104C1000059A44F0020402EB820203EB42021044C4
:104C2000761C0590EFE759F8042B0592002A03DA69
:104C3000504244F40054059044F00204761C30784D
:104C40002E2816D116F8010F44F004042A280DD09E
:104C50006FF02F023078A0F13003092B09D807EB51
:104C6000870302EB4303C718761CF3E759F8047B6C
:104C7000761C30786C280FD006DC4C2817D06828BA
:104C80000DD06A2814D104E0742810D07A280FD1EE
:104C90000DE044F400140AE044F4801401E044F40C
:104CA00040147278824202D104F58014761C761C7E
:104CB000307866280BD013DC582877D009DC002820
:104CC00075D04528F6D04628F4D047281AD19DE162
:104CD00018E0632835D0642879D0652812D195E191
:104CE000702873D008DC6728F1D069286FD06E284F
:104CF0000DD06F2806D1B5E073282CD0752875D05B
:104D0000782874D05A46179990476D1C75E1C4F302
:104D10000250022809D003280DD0D9F80010042829
:104D20000DD00D6009F1040967E1D9F80010EA1708
:104D3000C1E90052F6E7D9F800100D80F2E70D70D6
:104D4000F0E719F8041B8DF8001000208DF8010021
:104D5000EA46012003E059F804AB4FF0FF30610749
:104D60004FF0000102D40DE008F101018846B9427C
:104D70000FDA8045F8DB1AF808100029F4D108E0B2
:104D800008F1010188468142FADB1AF8081000296F
:104D9000F6D105985B46A0EB080721463846179ADE
:104DA00000F094FA284400EB080507E04DE029E103
:104DB0000DE01AF8010B5A4617999047B8F101080F
:104DC000F7D25B4621463846179A13E142E00A22A1
:104DD0000092C4F302524FF0000A022A08D059F898
:104DE00004CB032A4FEAEC710AD00DE029E02AE057
:104DF00009F1070121F00702F2E802C1914609E03A
:104E00000FFA8CFC4FEAEC71042A03D14FFA8CFCA8
:104E10004FEAEC71002907DA0A460021DCF1000CA8
:104E200061EB02012D2202E0220504D52B228DF830
:104E30000420012203E0E20701D02022F7E7904698
:104E400059E00A2102E010220DE010214FF0000A83
:104E500000910BE010224FF0000A44F004040827F0
:104E6000009203E008224FF0000A0092C4F30252BD
:104E7000022A05D059F804CB0021032A08D009E002
:104E800009F1070121F00702F2E802C1914605E0AD
:104E90001FFA8CFC042A01D10CF0FF0C4FF0000823
:104EA000220728D5702806D0009B83F0100353EA10
:104EB0000A0305D00EE040228DF80420012208E00C
:104EC0005CEA010206D030228DF804208DF805003E
:104ED00002229046009B83F0080353EA0A030AD19A
:104EE0005CEA010201D1620705D530228DF8042069
:104EF0004FF001087F1E582804D034A003900EA85C
:104F000002900DE036A0F9E753466046009AFBF7A1
:104F100057F984460398825C0298401E0290027002
:104F20005CEA0100F0D1029806A9081A00F1200AF3
:104F3000600702D524F4803400E00127574502DDE4
:104F4000A7EB0A0000E0002000EB0A0100900598A2
:104F50004144401A0590E00306D45B462146179A67
:104F6000059800F0B3F90544002706E001A85A4669
:104F7000C05D179990476D1C7F1C4745F6DBE00329
:104F80000CD55B462146179A059800F09FF9054419
:104F900004E030205A46179990476D1C0099481E2E
:104FA00000900029F5DC08E0029802995A46007842
:104FB000491C0291179990476D1CBAF10001AAF1A2
:104FC000010AF1DC65E100000928010030313233CB
:104FD0003435363738396162636465660000000035
:104FE000303132333435363738394142434445461F
:104FF0000000000000F058F90544761C30780028C5
:105000007FF4ECAD19B02846BDE8F08F620700D4FC
:10501000062709F1070222F0070CFCE80223E1460B
:1050200003F000485FEA080C02D00FF2702C0DE08C
:105030005FEA045C02D50FF2682C07E05FEAC47CEB
:1050400002D00FF2602C01E0AFF2700C4FF0FF388D
:1050500023F00043CDF850C065280CD006DC45286D
:1050600009D046281DD047283DD13DE0662818D0FC
:1050700067287ED138E00021112F01DB112000E0EC
:10508000781CCDE9000106A90EA8FFF7DDFCDDE9DB
:105090000F010E9A03910021009207F1010A049179
:1050A0004DE04FF000400097CDE9011006A90EA891
:1050B000FFF7CAFCDDE90F0203920E9B1199002253
:1050C000DDF80CA00093049211B9791C00EB010AE1
:1050D000B7EB0A0004D4C0F1FF3007F1010A0490D5
:1050E000AAEB0700019044E0012F00DA012700211C
:1050F000112F01DD112000E03846CDE9000106A99D
:105100000EA8FFF7A1FCDDE90F010E9A0391002123
:1051100004910092BA4621070CD40399514500DA54
:105120008A46BAF1010F05DD009AAAF10101515C2E
:10513000302908D0B84202DA10F1040F06DA012152
:10514000CDE9011015E0AAF10101E9E7002805DC2D
:10515000049901440491AAEB000102E0411C51456D
:1051600000DD8A460499401A401C01904FF000402F
:105170000290200704D40198504501DBCDF804804B
:1051800000208DF84F0002980DF14F07B0F1004F4D
:1051900025D02B200E9002984FF0020800280CDA40
:1051A000404202902D200E9007E00A210298FBF762
:1051B00027FA3031029007F8011DB8F10001A8F17B
:1051C0000108F2DC02980028EFD1791E0E980870D1
:1051D000307800F0200040F0450007F8020D12A8DA
:1051E000C01B00F107081498007800B1012000EB03
:1051F0000A01019801EBE07105984144401A401EF4
:105200000590E00306D45B462146179A059800F006
:105210005DF805441498007818B15A4617999047DC
:105220006D1CE00324D55B462146179A059800F0D3
:105230004DF805441CE00498002807DBDDE9030174
:10524000884203DD0098405C179901E017993020EF
:105250005A469047049805F10105401C04900198B6
:10526000401E019004D12E205A46179990476D1C7C
:10527000BAF10001AAF1010ADDDC05E017F8010B23
:105280005A46179990476D1CB8F10001A8F1010822
:10529000F4DC5B462146179A0598ABE62D0000002A
:1052A0002B000000200000002DE9F04104460025FD
:1052B0001E461746880404D405E039462020B0472E
:1052C0006D1C641EF9D52846BDE8F0812DE9F0413A
:1052D000044600251E469046C80301D5302700E04D
:1052E0002027880404D505E041463846B0476D1CA8
:1052F000641EF9D52846BDE8F0810A68531C0B608E
:10530000107070471A4900200870FCF755F9FEF735
:10531000EFFFFEF7A7F8FEF787F8FEF7FBFBFEF7B7
:1053200015FCFEF773FAFEF733FBFEF7F1F9FEF713
:105330009FFAFEF7DDFAFEF74DFBFEF7B5FBFEF731
:10534000B3F9FEF72DF9FEF74BF9FEF769F9FEF711
:1053500089F9FEF759F8FEF717FCFEF721F8FEF77A
:1053600083FCFEF705FEFEF72BF8FBF7E5FAFEE7F8
:10537000000000203EB542F210748DF804000123B5
:1053800001AA802106480094FCF722F8012302AA12
:10539000802103480094FBF72BFF9DF808003EBDD9
:1053A000740000203EB542F210748DF80400012311
:1053B00001AA822106480094FCF70AF8012302AAF8
:1053C000822103480094FBF713FF9DF808003EBDBF
:1053D000740000203EB542F210748DF804000123E1
:1053E00001AA842106480094FBF7F2FF012302AAD8
:1053F000842103480094FBF7FBFE9DF808003EBDA6
:10540000740000203EB542F210748DF804000123B0
:1054100001AA862106480094FBF7DAFF012302AABD
:10542000862103480094FBF7E3FE9DF808003EBD8B
:10543000740000203EB542F210748DF80400012380
:1054400001AA882106480094FBF7C2FF012302AAA3
:10545000882103480094FBF7CBFE9DF808003EBD71
:10546000740000203EB542F210748DF80400012350
:1054700001AA902106480094FBF7AAFF012302AA83
:10548000902103480094FBF7B3FE9DF808003EBD51
:10549000740000202DE9FF5FDFED5D0A60EE200A59
:1054A0009FED5C0A80EE201AB7EE000AF6EE000AC5
:1054B00031EE400A30EE200A10EE100AFBF771F8C8
:1054C00041EC100BFFF724FA51EC100BFBF750F8EE
:1054D000C0B200900020FFF74DFF81460020FFF78B
:1054E00061FF80460020FFF775FF07460020FFF7A9
:1054F00089FF06460020FFF79DFF05460020FFF7C5
:10550000B1FF044609F07F0040F0100108F07F0071
:1055100040F01000039007F07F0040F01000029070
:1055200006F07F0040F01000019005F07F0040F091
:10553000100B04F07F0040F0100A002000F044F946
:105540000020039900F052F90020029900F060F960
:105550000020019900F06EF95946002000F07CF916
:105560005146002000F08AF9FE20009900F02CF945
:10557000FE20009900F03AF9FE20009900F048F969
:10558000FE20009900F056F9FE20009900F064F921
:10559000FE20009900F072F94946002000F014F94D
:1055A0004146002000F022F93946002000F030F991
:1055B0003146002000F03EF92946002000F04CF969
:1055C0002146002000F05AF90220FBF733FC49F095
:1055D000A101002000F0F8F848F0A101002000F03F
:1055E00005F947F0A101002000F012F946F0A101F1
:1055F000002000F01FF945F0A101002000F02CF977
:1056000004B044F0A101BDE8F05F002000F036B91D
:105610001F856B3F20BCBE4570B5044606200E4674
:1056200000EB84001546C9B2C0B200F0CDF80720E7
:1056300000EB8400C0B2C6F3072100F0C5F80820D3
:1056400000EB8400E9B2C0B200F0BEF8092000EB24
:105650008400C5F30721BDE87040C0B200F0B4B8C3
:1056600070B5044606200E4600EB84001546C9B20C
:10567000C0B200F0BBF8072000EB8400C0B2C6F354
:10568000072100F0B3F8082000EB8400E9B2C0B2B3
:1056900000F0ACF8092000EB8400C5F30721BDE859
:1056A0007040C0B200F0A2B870B5044606200E46A5
:1056B00000EB84001546C9B2C0B200F0A9F807207B
:1056C00000EB8400C0B2C6F3072100F0A1F8082067
:1056D00000EB8400E9B2C0B200F09AF8092000EBB8
:1056E0008400C5F30721BDE87040C0B200F090B857
:1056F00070B5044606200E4600EB84001546C9B27C
:10570000C0B200F097F8072000EB8400C0B2C6F3E7
:10571000072100F08FF8082000EB8400E9B2C0B246
:1057200000F088F8092000EB8400C5F30721BDE8EC
:105730007040C0B200F07EB870B5044606200E4638
:1057400000EB84001546C9B2C0B200F085F807200E
:1057500000EB8400C0B2C6F3072100F07DF80820FA
:1057600000EB8400E9B2C0B200F076F8092000EB4B
:105770008400C5F30721BDE87040C0B200F06CB8EA
:1057800070B5044606200E4600EB84001546C9B2EB
:10579000C0B200F073F8072000EB8400C0B2C6F37B
:1057A000072100F06BF8082000EB8400E9B2C0B2DA
:1057B00000F064F8092000EB8400C5F30721BDE880
:1057C0007040C0B200F05AB81CB502238DF8040036
:1057D00042F210708DF80510009001AA8021024855
:1057E000FBF7F6FD1CBD0000740000201CB5022371
:1057F0008DF8040042F210708DF80510009001AA97
:1058000082210248FBF7E4FD1CBD0000740000206B
:105810001CB502238DF8040042F210708DF80510BB
:10582000009001AA84210248FBF7D2FD1CBD0000B4
:10583000740000201CB502238DF8040042F21070A1
:105840008DF80510009001AA86210248FBF7C0FDE3
:105850001CBD0000740000201CB502238DF804005C
:1058600042F210708DF80510009001AA88210248BC
:10587000FBF7AEFD1CBD0000740000201CB5022328
:105880008DF8040042F210708DF80510009001AA06
:1058900090210248FBF79CFD1CBD00007400002015
:1058A00070B5184C2DED028B9FED158AA088FBF783
:1058B000C1FAA5782078C0B1E078FAF74CFE9FEDE8
:1058C000121B53EC112BFAF765FD9FED111B53ECE6
:1058D000112BFAF7D1FD9FED101B53EC112BFAF7AA
:1058E000B2FCFAF771FE08EE100A153DE8B2B0EE10
:1058F000480ABDEC028BBDE87040FEF769B90000B4
:105900000000000018000020C0F5285C8FC2C53FD1
:105910000000000000C05F409A9999999999E93F69
:10592000000610160006101600000000000000001F
:105930000102030406070809000000000102030435
:105940000000000000000000000000000000000057
:105950000000000000000000000000000000000047
:105960000000000000000000001000000010000017
:1059700000100000001000000010000000100000E7
:105980000000000000100000000000000000000007
:10599000002800000028000000280000000000008F
:1059A00000000000000000000000000000000000F7
:1059B000000000000000000000240000002400009F
:1059C000007C00000024000000480000007C000073
:1059D0000048000000480000000000000000000037
:1059E00000380000005400000050000000380000A3
:1059F00000140000005400000054000000380000B3
:105A00000010000000000000002000000054000012
:105A10000058000000300000002800000054000082
:105A2000001400000008000000000000000000005A
:105A300000100000002800000028000000100000F6
:105A4000003400000048000000480000003400005E
:105A50000000000000000000001000000010000026
:105A60000010000000000000000000000000000026
:105A70000000000000000000000000000000000026
:105A800000080000001000000020000000200000BE
:105A90000020000000200000002000000020000086
:105AA00000100000000800000020000000100000AE
:105AB00000080000000800000008000000080000C6
:105AC0000008000000080000001000000020000096
:105AD0000010000000380000001000000028000046
