:020000040800F2
:10000000201500209D01000893330008C528000832
:100010009133000875050008153D00080000000038
:100020000000000000000000000000008D36000805
:100030000D06000800000000493500088F36000852
:10004000B7010008B7010008B7010008B7010008B0
:10005000B7010008B7010008B7010008B7010008A0
:10006000B7010008B7010008B7010008B701000890
:10007000B7010008B7010008B7010008B701000880
:100080007905000885050008B7010008B7010008D8
:10009000B7010008B7010008B7010008B701000860
:1000A000B7010008B7010008B7010008B701000850
:1000B000B7010008B7010008B7010008B701000840
:1000C000B7010008B7010008B7010008B701000830
:1000D000B7010008FD3C0008093D0008B701000811
:1000E000B7010008B7010008B7010008B701000810
:1000F000B7010008B7010008B7010008B701000800
:10010000B7010008B7010008B7010008B7010008EF
:10011000B7010008B701000835370008413700086B
:10012000B7010008B7010008B7010008B7010008CF
:10013000B7010008B7010008B7010008B7010008BF
:10014000B7010008B7010008B7010008B7010008AF
:10015000B7010008B7010008B7010008B70100089F
:10016000B7010008B7010008B7010008B70100088F
:10017000B7010008B7010008B7010008000000003F
:10018000B7010008B7010008DFF80CD000F0E0F973
:1001900000480047713E00082015002006488047AF
:1001A00006480047FEE7FEE7FEE7FEE7FEE7FEE75C
:1001B000FEE7FEE7FEE7FEE72537000889010008B5
:1001C0002DE9F05F0546002092469B46884606468C
:1001D000814640241BE0284641464746224600F01F
:1001E00020F953465A46C01A914110D31146184679
:1001F000224600F007F92D1A67EB01084F46224608
:100200000120002100F0FEF817EB00094E41201EEE
:10021000A4F10104DFDC484631462A464346BDE8E6
:10022000F09FD2B201E000F8012B491EFBD27047CB
:100230000022F6E710B513460A4604461946FFF7B2
:10024000F0FF204610BD10B5044604E00B7800F81E
:10025000013B03B1491C521EF8D2204610BD2DE9C6
:10026000FE4F804681EA0300C00F0C46009021F04B
:10027000004123F00045B8EB0200A94105D24046F9
:10028000214690461C460B46024623F00040104390
:1002900047D0270DC7F30A00C3F30A510290401A52
:1002A000019040286BDAC3F3130040F4801B0098E0
:1002B000924620B10023D2EB030A63EB0B0B0198AB
:1002C0005946C0F14002504600F09CF806460D46E3
:1002D00050465946019A00F0B4F810EB080061410D
:1002E000002487EA115284EAE7731A4340D0009A47
:1002F00062B3019A012A4FEA075215DC001B61EB39
:1003000002014FF0004202EA0752CDE90042001C10
:1003100041F5801132462B4600F0B4F803B0BDE839
:10032000F08F40462146F9E7001B61EB0201001CFB
:1003300041F5801300185B412018A2F5001747EB28
:10034000030140EAD570B6196D4111E06D084FEA1E
:10035000360645EAC0754FEA0752001B61EB020101
:10036000001C41F5801149084FEA30000019514145
:1003700032462B4603B0BDE8F04F00F074B8009849
:10038000012240000023D0EB020263EBE0730098EF
:1003900021464FEAE074B8EB000061EB0401E9E7A5
:1003A00083F000435BE781F0004158E7C1F30A5254
:1003B00010B5C1F3130140F2FF3341F480119A42AA
:1003C00001DA002010BD40F233439A42A2F23342D8
:1003D00003DC524200F025F810BD904010BD00F043
:1003E000004230F000400AD0C10D01F56071C0F349
:1003F000160042EA0151C20840071143704700202D
:1004000001467047202A04DB203A00FA02F100205E
:1004100070479140C2F1200320FA03F31943904042
:100420007047202A04DB203A21FA02F000217047AD
:1004300021FA02F3D040C2F120029140084319464C
:100440007047202A06DBCB17203A41FA02F043EA34
:10045000E07306E041FA02F3D040C2F1200291407D
:1004600008431946704710B5141E73F1000408DAEA
:10047000401C41F1000192185B411A4301D120F068
:10048000010010BD2DE9F04D92469B4611B1B1FA25
:1004900081F202E0B0FA80F220329046FFF7B2FF1C
:1004A00004460F4640EA0A0041EA0B0153465A4609
:1004B000084313D0114653EA010019D0C8F1400295
:1004C0005046FFF7AEFF05460E4650465946424697
:1004D000FFF798FF084305D0012004E02046394685
:1004E000BDE8F08D0020054346EAE0762C43374313
:1004F0000A986305E40AA0EB08000022FD0A44EA1A
:1005000047540A3002D500200146E9E701051019D9
:100510006941DDE9084500196941BDE8F04DA2E7F0
:1005200030B5041E71F1000404DB4FF0004440427A
:1005300064EB0101141E73F1000405DB1C464FF04F
:100540000043524263EB0403994208BF904230BD1E
:10055000064C074D06E0E06840F0010394E8070010
:1005600098471034AC42F6D3FFF712FEB4440008AB
:10057000D4440008FEE70000014800F0F3B8000092
:1005800088030020014800F0EDB80000E8030020D7
:1005900001681823CAB2103AB2FBF3F2054B6FF3AD
:1005A0000901032A9B5CC36500D9091D81650846C2
:1005B000704700009444000810B5014600208B6984
:1005C0008A6A4FF0C07453B1B3F5005F15D072B1B1
:1005D000012A0CD0022A0AD0032A09D104E01AB158
:1005E000012A06D0022A03D1C96AC90100D5012017
:1005F00010BDC96AA142FAD010BD002AF7D0012A65
:10060000F2D0022AF3D0032AF3D010BD704772B69D
:10061000FEE70000F8B515460E46044600F02AF83D
:1006200002208DF80000200C8DF80100200A8DF8C2
:1006300002008DF803400D4C00220121204600F0FD
:10064000D5FA4FF0FF373B4604226946084801F0CF
:1006500091F93B462A463146054801F08BF90122C3
:100660001146204600F0C2FAF8BD00000004024026
:100670009004002038B506200A4C8DF800000022B6
:100680000121204600F0B2FA4FF0FF330122694603
:10069000054801F06FF901221146204600F0A6FA44
:1006A00038BD000000040240900400202DE9F04114
:1006B0000446876D00F0A0FA064694F83500002540
:1006C000022806D08020606584F834500120BDE8FF
:1006D000F0812068016821F01601016020684169FD
:1006E00021F080014161206C08B9A06C20B1206824
:1006F000016821F0080101602068016821F0010112
:1007000001600CE000F078FA801B052807D9202052
:100710006065032084F8350084F83450D7E72068FA
:100720000068C007EED194F85C103F208840B860A4
:10073000012084F8350084F834500020C7E790F891
:100740003510022903D08021416501207047052121
:1007500080F835100068016821F001010160002077
:10076000704700002DE9F84304464FF00009CDF82A
:10077000009063484FF41651A56D0068B0FBF1F787
:100780002E6894F85C10082000FA01F131420FD075
:1007900021680A6852070BD50A6822F004020A6031
:1007A00094F85C108840A860606D40F001006065BE
:1007B00094F85C104FF0010808FA01F0304208D0BC
:1007C00021684969090604D5A860606D40F00200FF
:1007D000606594F85C1004208840304208D021689D
:1007E0000968890704D5A860606D40F00400606561
:1007F00094F85C1010208840304218D021680968B5
:10080000090714D5A86020680168490304D5006869
:10081000000308D5A16C07E00168C90503D401688D
:1008200021F008010160216C09B12046884794F845
:100830005C1020208840304231D021680968C90608
:100840002DD5A86094F8350005282068016806D0E9
:10085000490347D5006800031DD4616C1CE021F0FA
:10086000160101602068416921F080014161206C1E
:1008700008B9A06C20B12068016821F0080101606E
:1008800094F85C103F208840A86084F8358084F894
:100890003490216D1FE0E16B09B120468847606DFF
:1008A00000282BD0606DC00714D0052084F83500D7
:1008B0002068016821F0010101600098401C00904F
:1008C000B84203D820680068C007F6D184F83580A4
:1008D00084F83490E16C002910D001B02046BDE8C6
:1008E000F04308470168C905D5D4016821F010011B
:1008F000016084F8358084F83490CCE7BDE8F88353
:10090000100000202DE9F041044600F075F906467C
:100910005CB1022084F83500002584F8345020684A
:10092000016821F0010101600DE00120BDE8F081C6
:1009300000F062F9801B052805D92020606503209E
:1009400084F83500F2E720680068C007F0D122681B
:10095000116820480140D4E901031843D4E9033663
:100960003343184363691843A3691843E369184381
:10097000236A18430843616A042903D1D4E90B139D
:1009800019430843106020684069666A20F0070137
:1009900030460E43012704280CD1A06A0643E06AC2
:1009A00040B12046FFF708FE20B14020606584F882
:1009B0003570BAE7206846612046FFF7E9FD94F8F4
:1009C0005C203F2191408160656584F8357000208E
:1009D000ACE700003F8010F070B5044600F00CF961
:1009E0000546601C02D004480078044400F004F975
:1009F000401BA042FAD370BD040000202DE9F84F3F
:100A0000DFF8BCA10022012503264FF00F090AF1EF
:100A1000040BAAF1040E00BF0B6805FA02F4234090
:100A2000A34270D10F7907F00307012F01D0022FE5
:100A300016D187684FEA420806FA08FC27EA0C0735
:100A4000D1F80CC00CFA08FC4CEA070CC0F808C03E
:100A50004768A7430C79C4F3001494403C434460B6
:100A60000C79E443A4070AD0C4684FEA420C06FAA2
:100A70000CF7BC438F6807FA0CF72743C7600C7963
:100A800004F00304022C12D1D40800EB840CDCF82F
:100A900020405707FF0E09FA07F824EA0804D1F8A6
:100AA000108008FA07F848EA0408CCF820800468A7
:100AB0004FEA420C06FA0CF7BC430F7907F0030724
:100AC00007FA0CF7274307604C6814F4403F70D0D6
:100AD0003C4C276847F480472760246822F00307CE
:100AE00004F480440094384C07EB040CDCF808480C
:100AF00097074FEA177809FA08F7BC43334FB84213
:100B000002D1002724E054E0314FB84201D101273F
:100B10001EE0304FB84201D1022719E02E4FB842F3
:100B200001D1032714E02D4FB84201D104270FE073
:100B30002B4FB84201D105270AE02A4FB84201D114
:100B4000062705E0284FB84201D1072700E0082713
:100B500007FA08F72743CCF80878DAF80040574638
:100B6000D1F804C09C435FEACC2C00D51C433C6008
:100B7000DBF800405F46D1F804C09C435FEA8C2C50
:100B800000D51C433C60DEF800407746D1F804C035
:100B90009C435FEA8C3C00D51C433C60084F083FF7
:100BA0003C68D1F804C09C435FEACC3C00D51C43B0
:100BB0003C60521C102AFFF42FAFBDE8F88F0000F4
:100BC000083C01404438024000300140000002402F
:100BD0000004024000080240000C024000100240E5
:100BE0000014024000180240001C02400AB181615A
:100BF00070470904FBE70000014880687047000067
:100C00000400002070B5040025D094F83D000025B4
:100C100020B984F83C50204600F03EFA242084F8A5
:100C20003D002068016821F0010101602068016831
:100C300041F4004101602068016821F40041016035
:100C400000F000FC4D4A6168914201D84C4900E037
:100C50004C49884201D2012070BD4B492368B0FB4A
:100C6000F1F15E6826F03F060E435E6063689342D2
:100C700006D94FF4967359434FF47A73B1FBF3F1ED
:100C80002368491C1E6A26F03F06314319626168D9
:100C9000914210D84900401EB0FBF1F2521CC2F341
:100CA0000B02042A01D2042022E0B0FBF1F0401C28
:100CB000C0F30B001CE0A268F2B301EBC10303EB2D
:100CC0000116431EB3FBF6F35B1C43F480431B0584
:100CD00049D092B301EBC10202EB0111401EB0FBFF
:100CE000F1F0401CC0F30B0040F4804040F40040A1
:100CF0002168CA694CF6FF739A431043C861D4E96E
:100D0000071001432068026822F0C002114301600D
:100D1000D4E9030101432068826848F2FF339A4313
:100D200011438160D4E9050108432168CA6822F0B3
:100D3000FF021043C86001E00EE016E02068016881
:100D400041F0010101602564202084F83D00256305
:100D500084F83E50002070BD01EB4106431EB3FBFA
:100D6000F6F35B1CB3E70120C2E701EB4101401E33
:100D7000B0FBF1F0401CC0F30B00B7E7A086010008
:100D800080841E0000093D0040420F002DE9F84F0D
:100D90001F4690468A460446DDF82890FFF72CFF50
:100DA000054694F83D00202875D1192301226C498D
:100DB0002046009501F088FE0028F5D194F83C000B
:100DC000012868D0012084F83C0020680168C90728
:100DD00003D1016841F0010101602068016821F43C
:100DE00000610160222084F83D00102084F83E005C
:100DF00000262664C4F824806785608D20855948C4
:100E0000E0622B464A465146204601F073FD002819
:100E100078D1208D544F68B1012814D00228206861
:100E2000016816D041F480610160206841698069E1
:100E3000009087E02068416981690091016841F470
:100E4000007101607EE02068016821F4806101602A
:100E5000F0E721F4806101602068016841F40061DD
:100E6000E2E7032848D801280AD0022814D04B46CC
:100E7000002239462046009501F026FED8BB27E027
:100E80002A464946204601F09EFEA0BB2068006924
:100E9000616A08704DE061E04B4600223946204609
:100EA000009501F011FE30BB2068016841F400712B
:100EB000016020680069616A0870606A401C6062B5
:100EC000218D491E2185618D491E618521682EE095
:100ED0002068016821F48061016020680069616A0E
:100EE0000870606A401C6062208D401E2085608D05
:100EF000401E6085D0E705E02A464946204601F0BD
:100F000062FE10B10120BDE8F88F20680069616AB7
:100F10000870606A401C6062218D491E2185618DC8
:100F2000491E618521684A69D24352070AD409697A
:100F30000170606A401C6062208D401E2085608DBB
:100F4000401E6085208D00288BD1202084F83D0034
:100F500084F83E6084F83C600020D4E70220D2E7A9
:100F6000020010000000FFFF040001002DE9F84F0F
:100F70001F4690468A460446DDF82890FFF73CFE5F
:100F8000054694F83D0020287FD1192301224049CD
:100F90002046009501F098FD002876D194F83C0099
:100FA000012872D0012084F83C0020680168C9073C
:100FB00003D1016841F0010101602068016821F45A
:100FC00000610160212084F83D00102084F83E007B
:100FD00000262664C4F824806785608D20852D480E
:100FE000E0622B464A465146204601F0F9FC90B992
:100FF000206841698069009036E02A4649462046CB
:1010000001F014FE50B1206C042804D1206801685E
:1010100041F4007101600120BDE8F88F606A216829
:1010200000780861606A401C6062618D491E6185BC
:10103000218D491E89B2218522685369DB435B07F4
:101040000BD451B100781061606A401C6062608D01
:10105000401E6085208D401E20852A464946204638
:1010600001F00CFD0028CED1208D0028C5D154F808
:101070003D0B016841F400710160202004F81E0955
:10108000E67766770020C7E7FFE70220C4E70000A5
:10109000020010000000FFFFF0B587B004461421E5
:1010A0006846FFF7C5F82768234CDFF888C00022A0
:1010B000214912230325042620481034674518D1FE
:1010C0000F6847F002070F60096802AF01F00201E4
:1010D0000591C021CDE9001387E864006946FFF758
:1010E0008DFC206840F400102060206800F400109F
:1010F0001CE0DFF84CC0674519D10F6847F00207C4
:101100000F60096802AF01F0020105914FF44061E0
:10111000CDE9001387E864006946FFF76FFC20689B
:1011200040F480002060206800F48000059007B043
:10113000F0BD00000054004030380240000402407E
:10114000005800400248816802781144816070476D
:10115000040000200B4810B5016841F400710160E3
:10116000016841F480610160016841F480710160AF
:10117000032000F09BF80F2000F006F800F050F874
:10118000002010BD003C024030B505461F4887B026
:101190000024016841F010010160006806A900F018
:1011A0001000009001A800F02DF90498A8B100F0FB
:1011B00049F940001649174AB0FBF1F11648491E9B
:1011C000026040F2E732C0E90324C0E901148461FF
:1011D00000F0F8FC040003D015E000F033F9E9E773
:1011E0000D4800F093FD04000DD1362000F030F8DA
:1011F000102D07D200222946362000F037F8074884
:10120000056000E0012407B0204630BD40380240B0
:1012100040420F0000100040480400200800002059
:101220000A4808B5016841F480410160006800F493
:10123000804000900548001F016841F08051016026
:10124000006800F08050009008BD00004438024063
:10125000002809DB00F01F020121914040098000B5
:1012600000F1E020C0F8001170470000F0B40E4B10
:101270001B680C46C3F30223C3F10705042D00D9F4
:101280000425191D072901D2002300E0DB1E0126D9
:1012900006FA05F1491E214099409E40761E1640EF
:1012A0003143F0BC02F037BD0CED00E0064900F020
:1012B000070208684FF6FF03184040EA0220034A7D
:1012C00010430860704700000CED00E00000FA05D4
:1012D0002DE9F0470E46050065D0DFF81481D8F8F7
:1012E0000000F7B200F00700B04207D288F80070A3
:1012F000D8F8000000F00700B04254D128683D4CF7
:10130000810712D5400703D5206840F4E0502060E3
:101310002878000703D5206840F4604020602068EA
:10132000A96820F0F000084320602878C0072DD07D
:10133000304968680839012812D0022813D00328E0
:1013400011D00968890700292DDA216821F00301ED
:1013500001432160FFF750FC814641F2883A0EE0DC
:1013600009688903EFE709688901ECE7FFF744FCA6
:10137000A0EB0901514502D90320BDE8F0872068A0
:10138000696800F00C00B0EB810FEFD1D8F80010C5
:10139000404601F00701B14207D90770006800F02C
:1013A0000700B04201D00120E7E72878400705D5C3
:1013B0002068E96820F4E05008432060287800079E
:1013C00006D52068296920F4604040EAC100206009
:1013D00000F058F82168084AC1F30311515CC84075
:1013E0000649086006480068FFF7CEFE0020C4E703
:1013F000003C0240083802409C44000810000020D5
:10140000080000200F2202600C4A136803F0030357
:101410004360136803F0F0038360136803F4E05340
:10142000C36012684FF4E05303EAD2020261044839
:10143000006800F0070008607047000008380240AC
:10144000003C02400448054900680968044AC1F3A9
:101450008221515CC84070471000002008380240CB
:10146000AC4400080448054900680968044AC1F30F
:101470004231515CC84070471000002008380240DB
:10148000AC440008154810B5006810F00C02144870
:1014900013D04110042A0FD0082A0ED10F4C241F5C
:1014A0002268236802F03F025B0207D52068C0F380
:1014B0008810A0FB010106E0084610BD2168C1F3B9
:1014C0008811A1FB00010023FEF77AFE2168C1F319
:1014D0000141491C4900B0FBF1F010BD0838024041
:1014E0000024F4002DE9F84F04006ED02078DFF8D6
:1014F0004C93C007A9F104054AD009F10400016822
:10150000C1F38101012908D00068C0F381000228DD
:101510000AD1D9F80000400206D52868800337D5E3
:1015200060680028E1D033E06068B0F5803F10D0FB
:10153000B0F5A02F286810D020F4803028602868EB
:1015400020F4802028606068A8B1FFF755FB0646AC
:101550000DE0286840F48030F4E740F480202860F3
:10156000F7E700BFFFF748FB801B642873D82868A3
:101570008003F7D50CE0FFF73FFB064605E000BF10
:10158000FFF73AFB801B6428F0D828688003F7D463
:101590002078DFF8AC8280074FF0000A3ED5A748DC
:1015A000001D016811F00C0F08D00068C0F3810025
:1015B00002280BD1D9F80000400207D42868800720
:1015C00016D5E068012800D112E033E1E068B8B137
:1015D0000120C8F80000FFF70FFB064605E000BF3A
:1015E000FFF70AFB801B0228C0D828688007F7D5C0
:1015F0002868216920F0F80040EAC10028600DE069
:10160000C8F800A0FFF7F8FA064604E0FFF7F4FA7E
:10161000801B02281FD828688007F7D4207800078D
:1016200022D5864F87486169703771B10121016009
:10163000FFF7E2FA064604E0FFF7DEFA801B022815
:1016400009D838688007F7D50EE0C0F800A0FFF78A
:10165000D3FA064605E082E0FFF7CEFA801B0228A7
:101660007DD838688007F7D42078400768D5DFF840
:10167000CCB100270BF13C0BDBF80000C0000BD411
:10168000DBF8001041F08051CBF80010DBF80000CF
:10169000012700F0805000906B4E3068C00510D4D8
:1016A000306840F480703060FFF7A6FA009005E0E3
:1016B000FFF7A2FA0099401A022850D83068C005F6
:1016C000F6D55E4EA0686C3601280FD0052830682C
:1016D00010D020F001003060306820F0040030604D
:1016E000A068B8B1FFF788FA00900FE0306840F0CA
:1016F0000100F4E740F004003060F7E7FFF77CFA00
:101700000099411A41F28830814266D830688007DA
:10171000F4D50EE0FFF770FA009007E0FFF76CFADF
:101720000099411A41F28830814256D830688007CA
:10173000F4D42FB1DBF8001021F08051CBF8001069
:10174000A069C8B33D49091D0968C1F38101022997
:101750004AD00228504607D0C8F8600000E03CE0BC
:10176000FFF74AFA04463BE04746C8F86000FFF737
:1017700043FA064605E000BFFFF73EFA801B022849
:101780002BD828688001F7D4D4E907010843A16A5F
:101790002E4A490802EB0141626A41EA821108437C
:1017A00094F82C1040EA0161C9F800100120386655
:1017B000FFF722FA044606E03EE000BFFFF71CFAFE
:1017C000001B022809D828688001F7D534E000BF43
:1017D000FFF712FA001B022802D90320BDE8F88F98
:1017E00028688001F4D427E00128F7D0D9F8000058
:1017F000E26900F4800191421CD1226A00F03F01AD
:10180000914217D147F6C071626A0140B1EB821F65
:1018100010D1A26A4FF0FF3300F4403103EB5202C3
:10182000B1EB024F06D194F82C1000F07060B0EBD1
:10183000016F01D00120D1E70020CFE7043802403A
:1018400000004742800E4742007000400000FFFF4A
:1018500070B5040009D0606A002540B1256165615A
:10186000A56294F8510040B10CE0012070BD6068A1
:10187000B0F5827FF4D0E561F2E784F8505020465D
:1018800000F044F8022084F851002068016821F03B
:1018900040010160A088218900F4827001F40441B4
:1018A0000843A18901F400610843217C01F0020191
:1018B0000843217D01F001010843218B01F40071EF
:1018C0000843217F01F03801084394F8201001F00B
:1018D00080010843218D01F400510843216808600C
:1018E000A069042101EA104094F8241001F01001CD
:1018F0000843216848602068C16921F40061C16122
:101900006565012084F85100002070BD10B586B0D7
:10191000044614216846FEF78BFC13492068884270
:1019200020D112480021026842F48052026000680F
:1019300000F4805005900D481438026842F002020D
:101940000260006800F0020005903820009002203C
:10195000CDE9010103200390052004906946044865
:10196000FFF74CF806B010BD00300140443802408B
:10197000000402402DE9F84F044690F8500000277B
:101980001D461646894601280DD04FF0010B84F8FC
:1019900050B0FFF731F9804694F85100BA4601285B
:1019A00004D0022793E00220BDE8F88FB9F1000FC0
:1019B00073D0002E71D0032084F85100C4F854A0D5
:1019C000C4F83090A686E686C4F838A0A4F83CA0F7
:1019D000A4F83EA0C4F844A0C4F840A0A068B0F5A4
:1019E000004F09D12068016821F0400101602068A2
:1019F000016841F48041016020680168490603D410
:101A0000016841F040010160E068B0F5006F606876
:101A100003D030B3012E24D041E008B1012E1CD1F7
:101A2000206B21680088C86006E02068816889070B
:101A300009D5216B0988C160206B801C2063E08E72
:101A4000401EE08609E0FFF7D7F8A0EB0800A842A7
:101A500002D3681C01D031E07DB3E08E0028E4D1D0
:101A600020E0206B21680078087306E02068816818
:101A7000890709D5216B09780173206B401C20630D
:101A8000E08E401EE0860AE0FFF7B6F8A0EB080003
:101A9000A84203D3681C02D010E017E06DB1E08EBD
:101AA0000028E3D142462946204601F067FD08B1EF
:101AB00020206065A06818B106E0FFE7032706E074
:101AC0002068C16880680090606D00B1012784F8CB
:101AD00051B084F850A0384666E77047704710B59B
:101AE00090F83C20012A22D0012280F83C20CA68CC
:101AF0008C6822F4407222434C6822F480622243B4
:101B00000C6822F4006222430C6922F480522243C2
:101B10004C6922F400522243C969002322F4804216
:101B20000A4301684A6480F83C30002010BD02205E
:101B300010BD000070B590F83C20012A32D001247D
:101B400080F83C40022280F83D2003685A689D6876
:101B500022F070060A6832435A60134B02689A42B8
:101B600014D0B2F1804F11D0104B9A420ED0104BCE
:101B70009A420BD00F4B9A4208D00F4B9A4205D095
:101B80000E4B9A4202D00E4B9A4204D1496825F07E
:101B900080031943916080F83D40002180F83C109B
:101BA000084670BD022070BD0000014000040040E6
:101BB00000080040000C00400004014000400140CB
:101BC0000018004010B5040003D094F83D0010B197
:101BD00007E0012010BD002084F83C00204600F002
:101BE0001FF8022084F83D00211D206801F0AEFDA1
:101BF000012084F8460084F83E0084F83F0084F811
:101C0000400084F8410084F8420084F8430084F8DE
:101C1000440084F8450084F83D00002010BD000019
:101C200008B501681748814208D11748016841F09A
:101C300001010160006800F001000BE01248134A46
:101C4000001F914208D1016841F002010160006863
:101C500000F00200009008BD0D4A9142FBD10168DE
:101C600041F0200101600068002200F02000009097
:101C700006213720FFF7FAFABDE808403720FFF7C2
:101C8000E7BA000000000140443802400004004070
:101C90000014004090F83D10012901D00120704748
:101CA000022180F83D1000681149884214D0B0F13B
:101CB000804F11D00F4988420ED00F4988420BD077
:101CC0000E49884208D00E49884205D00D49884205
:101CD00002D00D49884204D1816801F0070106292C
:101CE00003D0016841F0010101600020704700004D
:101CF000000001400004004000080040000C0040CB
:101D000000040140004001400018004090F83D10E0
:101D1000012901D001207047022180F83D1001689F
:101D2000CA6842F00102CA6000681149884214D0B2
:101D3000B0F1804F11D00F4988420ED00E49884231
:101D40000BD00E49884208D00D49884205D00D4974
:101D5000884202D00C49884204D1816801F0070111
:101D6000062903D0016841F001010160002070479D
:101D7000000001400004004000080040000C00404A
:101D800000040140004001400018004070B50446C6
:101D900090F83C000025012817D0012684F83C600B
:101DA000022084F83D002068826822F0770222F445
:101DB0007F4282600868502838D00DDC20284FD040
:101DC00005DC90B3102811D14AE0022070BD302804
:101DD00046D040280AD13BE060282FD070280DD093
:101DE000B0F5805F03D0B0F5005F12D0012584F814
:101DF0003D60002084F83C00284670BDCB68D1E9E6
:101E00000121206801F013FD2068816841F077010D
:101E100009E0CB68D1E90121206801F008FD2068C4
:101E2000816841F480418160E1E719E0CA6849684E
:101E3000206801F0D1FD5021206806E0CA68496899
:101E4000206801F0DAFD6021206801F0FAFCCEE79D
:101E5000CA684968206801F0BFFD40212068F4E7A6
:101E6000226801461046F0E7704770B504460068E6
:101E700001694FF00005C943890715D4C168C943FA
:101E8000890711D4E91E016101202077206880694B
:101E90008007204602D0FFF7E7FF04E000F038F9A2
:101EA000204600F013FA257720680169C9434907E5
:101EB00017D4C168C943490713D46FF00401016105
:101EC000022020772068806910F4407F204602D0ED
:101ED000FFF7CAFF04E000F01BF9204600F0F6F916
:101EE000257720680169C943090716D4C168C94329
:101EF000090712D46FF008010161042020772068DF
:101F0000C0698007204602D0FFF7AEFF04E000F072
:101F1000FFF8204600F0DAF9257720680169C94307
:101F2000C90617D4C168C943C90613D46FF010019C
:101F30000161082020772068C06910F4407F2046A6
:101F400002D0FFF791FF04E000F0E2F8204600F035
:101F5000BDF9257720680169C943C90708D1C1685F
:101F6000C943C90704D1891E0161204600F014FA53
:101F700020680169C943090609D4C168C943090633
:101F800005D46FF0800101612046FFF7A6FD2068AF
:101F90000169C943490609D4C168C943490605D442
:101FA0006FF040010161204600F000FA20680169ED
:101FB000C94389060BD4C168C943890607D46FF0A9
:101FC000200101612046BDE87040FFF787BD70BD6C
:101FD00070B586B0044614216846FEF729F92468D6
:101FE0003F4D00223F4902233F48AC4211D10C68CB
:101FF00044F010040C60096801F0100105914FF4E1
:10200000D4410091CDE901320121CDE90321694696
:1020100012E0364DAC4213D1086840F00800086069
:102020000868694600F0080005904FF420400090D1
:10203000CDE901322E4814E0FEF7E0FC06B070BD99
:102040002C4DAC4210D1086840F0010008600868CF
:10205000694600F0010005900F200090CDE90132A3
:102060002548CDE90323E7E7244E0325B4420FD1E9
:10207000086840F0040008600868694600F0040041
:1020800005904FF470700090CDE901321C480FE0CC
:102090001C4EB4420FD10C6844F010040C60096867
:1020A00001F01001059160210091CDE901326946EE
:1020B000CDE90325C0E714488442BFD1086840F049
:1020C000020008600868694600F002000590E00020
:1020D0000090CDE901320920CDE903200B48ABE7A0
:1020E000000001403038024000100240000800406B
:1020F000000C0240000C00400000024000040140BF
:102100000008024000400140001800400004024066
:10211000704770B5044690F83C0000260D46012833
:102120000FD0012084F83C006AB1042A1DD0082A8F
:102130002FD00C2A3FD00126002084F83C003046E6
:1021400070BD022070BD206801F084FB20688169A9
:1021500041F0080181612068816921F004018161F9
:10216000206881692A69114311E0206801F0A2FB0F
:102170002068816941F4006181612068816921F4EE
:1021800080618161206881692A6941EA0221816157
:10219000D2E7206801F0C4FB2068C16941F0080162
:1021A000C1612068C16921F00401C1612068C16971
:1021B0002A69114311E0206801F0E6FB2068C1693B
:1021C00041F40061C1612068C16921F48061C1618D
:1021D0002068C1692A6941EA0221C161ACE710B5F2
:1021E000040003D094F83D0010B107E0012010BDB9
:1021F000002084F83C00204600F01EF8022084F8FD
:102200003D00211D206801F0A1FA012084F846005C
:1022100084F83E0084F83F0084F8400084F84100D0
:1022200084F8420084F8430084F8440084F84500B0
:1022300084F83D00002010BD08B51E4A01681E4804
:10224000914207D1016841F004010160006800F08B
:10225000040009E0194A914208D1016841F00801DF
:102260000160006800F00800009008BD124A144B9D
:10227000121D994207D1106840F0020010601068EA
:1022800000F00200F0E70F4B994207D1106840F4CC
:1022900080301060106800F48030E5E70A4A91420F
:1022A000E3D1016841F040010160006800F04000A6
:1022B000DAE700000008004040380240000C00400F
:1022C0000004014000400140001800407047000039
:1022D00010B50446022249B104290ED0082913D0B2
:1022E00094F84100012816D0012010BD94F83E005A
:1022F0000128F9D184F83E200FE094F83F0001282E
:10230000F2D184F83F2008E094F840000128EBD196
:1023100084F8402001E084F841200122206801F087
:1023200079FA16492068164A884201D0904203D1B2
:10233000436C43F4004343642068884213D0B0F1F7
:10234000804F10D00F4988420DD00F4988420AD0E3
:102350000E49884207D0904205D00D49884202D0EC
:102360000C49884204D1816801F00701062903D095
:10237000016841F001010160002010BD0000014032
:10238000000401400004004000080040000C004030
:10239000004001400018004000680349884201D114
:1023A000FEF7D0BE70470000001000407047704735
:1023B00070470000F8B5016804460868CA684B69B0
:1023C00010F00F0F4FF0000559D003F0010602F492
:1023D0009077374365D0C10705D0D10503D5216C6F
:1023E00041F001012164410705D5D90703D0216CD3
:1023F00041F002012164810705D5D90703D0216C82
:1024000041F004012164010707D502F020013143A6
:1024100003D0216C41F008012164216C00293AD0DD
:10242000800604D5900602D5204601F027FB2068DF
:102430004069216CC0F38010090700D460B32046C6
:1024400001F0F5FA20684069400621D52068143073
:1024500050E8001F21F0400140E80012002AF5D1A9
:10246000A06BA8B16C490165A06BFEF768F9002864
:1024700011D0A06B016D01B0BDE8F04008478306A4
:102480000FD593060DD52046BDE8F84001F0F6BA09
:102490002046FFF78DFFF8BD2046FFF789FF256432
:1024A000F8BD266B2023012E79D1C60677D5D60636
:1024B00075D50868486800904869400640D5A16B0A
:1024C000086840680004000CEAD0A28D8242E7D977
:1024D000E085C869B0F5807F2DD020680C3050E8C9
:1024E000001F21F4807140E80012002AF5D1206815
:1024F000143050E8001F21F0010140E80012002ACA
:10250000F5D12068143050E8001F21F0400140E868
:102510000012002AF5D184F83E30256320680C3083
:1025200050E8001F21F0100140E80012002AF5D108
:10253000A06BFEF7BBF8A08DE18D401A81B229E0B7
:10254000A08DE18D401A81B2E08D0028A8D000292D
:10255000A6D020680C3050E8002F22F4907240E89A
:102560000026002EF5D12068143050E8002F22F00C
:10257000010240E80026002EF5D184F83E302563A4
:1025800020680C3050E8002F22F0100240E80023B1
:10259000002BF5D12046FFF70AFFF8BDFFE705063F
:1025A0002BD5150629D594F83D002128F5D1A06832
:1025B000B0F5805F01D12069B0B1206A411C216271
:1025C000216800784860E08C401E0004000CE08424
:1025D000E3D12068C16821F08001C1602068C16832
:1025E00041F04001C160D8E7206A0088C0F30800CC
:1025F0004860206A801C2062E5E74006CDD5500681
:10260000CBD5CA68204622F04002CA6084F83D302B
:1026100000F057F9C1E700001F3A000870B5040048
:1026200004D094F83D00002510B106E0012070BDF3
:1026300084F83C50204600F023F8242084F83D0024
:102640002068C16821F40051C160204601F076FA8B
:102650002068016921F4904101612068416921F0FD
:102660002A0141612068C16841F40051C1602564BC
:10267000202084F83D0084F83E00002070BD00005A
:102680002DE9F04387B0064614216846FDF7D0FDDA
:10269000414F316841480222032307250024B942F3
:1026A00021D13E4914310E6846F010060E600968CB
:1026B00001F010010591016841F00101016000681D
:1026C000694600F00100059058028DE81500CDE93B
:1026D00003353348FEF792F9002209212520FEF741
:1026E000C5FD252053E02F4FB94252D12B4910315F
:1026F0000F6847F400370F60096801F40031059155
:10270000016841F0080101600068694600F00800B6
:10271000059060208DE81500CDE903352248FEF7CD
:102720006DF9234D21484FF000692860C5E90194F7
:102730000715C5E903476C614FF48038AC61C5E902
:10274000074828466C62FEF7DDF808B1FDF75FFF29
:10275000B563AE63164D154860351830E5E80209DB
:10276000402091C5124845F814496030AC61C5E974
:1027700007486C62FEF7C6F808B1FDF748FF7563BD
:10278000002207212620AE63FEF770FD2620FEF70B
:102790005FFD07B0BDE8F083001001403038024013
:1027A0000000024000440040000C024088600240EB
:1027B0008803002090F83E30202B0ED159B152B141
:1027C00090F83C30012B08D0012380F83C300023E6
:1027D000036301F039BA01207047022070470000FE
:1027E0000068084988420CD1074801782D2908D192
:1027F000017A0D2905D1407A0A2802D10349012026
:1028000008707047001001401005002000000020F3
:102810002DE9F843044690F83D001F4616460D4644
:1028200020284CD1C5B1BEB194F83C00012846D057
:10283000012084F83C004FF00008C4F840802120BB
:1028400084F83D00FEF7D8F9A6848146E684A068A6
:10285000B0F5805F03D004E00120BDE8F883206973
:1028600028B12E465FF0000584F83C800EE000267B
:10287000FAE78021204601F004FAA0B9AEB116F8BB
:10288000010B21684860E08C401EE084E08C4B46E0
:102890004FF0000200970028EBD14FF04001204696
:1028A00001F0EFF930B10320D7E735F8020BC0F3A0
:1028B0000800E6E7202084F83D000020CDE7022054
:1028C000CBE77047FEE701684A69D24352050FD44F
:1028D0006FF480624A61002140F8301F2022427369
:1028E0008173026942F004020261017301207047A2
:1028F000002070472DE9F84F0446C06A1E469346F3
:102900000D4621680A6842F480620A60082807D0F0
:10291000012805D010F5803F02D0206B112804D18A
:102920002068016841F4807101604FF001195B4635
:10293000002249462046009600F0C6F84FF4007881
:1029400040B120680068C00501D5C4F8408003206C
:10295000BDE8F88F2069DFF884A0B0F5804F0FD074
:102960000620216800EAD51747F0F00008613346D9
:102970005A460AF10601204600F0DAF858BB03E097
:10298000E8B240F001001CE02168E8B2086133467B
:102990005A465146204600F0CBF8E0B9206841691C
:1029A00081690091016841F4807101605B460022F9
:1029B00049462046009600F087F80028C1D147F02C
:1029C000F1002168086133465A465146204600F01E
:1029D000AFF80028BCD00120BAE7000002000100D7
:1029E000F8B50446C06A1E460D461746082807D0AB
:1029F000012805D010F5803F02D0206B122804D1A9
:102A00002068016841F480710160134600224FF094
:102A100001112046009600F057F840B12068006888
:102A2000C00502D54FF4007020640320F8BD206972
:102A3000B0F5804F0ED00620216800EAD51040F096
:102A4000F000086133463A460B49204600F070F822
:102A500078B902E005F0FE0000E0E8B22168086104
:102A6000054933463A46891F204600F061F80028A0
:102A7000DCD00120F8BD00000800010070B516464A
:102A80000D4604460DE02046FFF71DFF08B101206A
:102A900070BD681C05D0FEF7AFF8801BA84207D8B0
:102AA00035B120684069C0434007ECD4002070BDB8
:102AB000002044F8300F20216173A073216941F098
:102AC000200121612073E2E72DE9F0471E46904680
:102AD0000D460446C1F30747DDF8209008E0701C5E
:102AE00006D0FEF789F8A0EB0900B0420FD876B106
:102AF0002068012F18D0806925EA00000004000C2E
:102B000014D000214145EAD00020BDE8F087002024
:102B100044F8300F20216173A073216941F0200136
:102B2000216120730120F0E74069E5E70121E9E731
:102B30002DE9F0479A4691460E46044600254FF08F
:102B40002008C1F3074725E020684069C0434005DD
:102B500014D42068016841F40071016021686FF4A9
:102B600080604861256384F83D8084F83E50206C85
:102B700040F00400206484F83C501FE0B9F1FF3FAE
:102B800008D0FEF739F8A0EB0A0149450CD8B9F195
:102B9000000F09D02068012F13D0806926EA0000B9
:102BA0000004000C0BD0CFE744F8305F84F80D80B0
:102BB000A573206940F02000206125730120BDE845
:102BC000F0874069EAE72DE9F041002590460E467E
:102BD0000446202717E04069C043C0060CD454F8CF
:102BE000301B6FF01000486144F810596777A577E3
:102BF000206A2062257717E0FDF7FEFFA0EB0800B2
:102C0000B04208D83EB120684169C9434906E2D4C0
:102C10000020BDE8F08144F8305F6773A573206938
:102C200040F02000206125730120F2E770B51646C0
:102C30000D4604460DE02046FFF745FE08B1012091
:102C400070BD681C05D0FDF7D7FF801BA84207D8D0
:102C500035B120684069C0430006ECD4002070BD47
:102C6000002044F8300F20216173A073216941F0E6
:102C7000200121612073E2E710B5064C01224021BA
:102C80002046FDF7B3FF20460122BDE81040802119
:102C9000FDF7ACBF0000024010B50648FEF7FAFF92
:102CA00000210448FFF714FB02490020096848632B
:102CB00010BD0000C00000200D4808B5016841F4B7
:102CC000001101600068002200F40010009005214E
:102CD0001020FEF7CBFA1020FEF7BAFA00220521E9
:102CE0001120FEF7C3FABDE808401120FEF7B0BA84
:102CF000303802402DE9F04387B014216846FDF7D3
:102D000097FA36480024016841F01001016001681B
:102D100001F010010591016841F080010160016836
:102D200001F080010591016841F001010160016835
:102D300001F001010591016841F0020101600168A3
:102D400001F002010591016841F00801016001688C
:102D500001F008010591016841F00401016000687B
:102D60001F4F00F0040005900022C0213846FDF7F7
:102D70003DFFDFF87080002201214046FDF736FF5D
:102D8000DFF864904FF4AA46002231464846FDF72A
:102D90002DFF182001258DE8310069461348FDF705
:102DA0002DFEC0200090CDE90154694638460394B9
:102DB000FDF724FE0095CDE9015469464046039491
:102DC000FDF71CFE0220CDE90240CDE90065694611
:102DD0004846FDF713FE07B0BDE8F08330380240E7
:102DE0000000024000040240000C024000100240BB
:102DF0000D4810B50B4901600C49416000214FF4AA
:102E000080428160C0E9031241618161C161016258
:102E1000FDF7F8FE002803D0BDE81040FDF7F7BB32
:102E200010BD00000054004018000020A0860100E2
:102E30000D4810B50B4901600C49416000214FF469
:102E400080428160C0E9031241618161C161016218
:102E5000FDF7D8FE002803D0BDE81040FDF7D7BB32
:102E600010BD0000005800406C000020A08601004A
:102E70000F4810B50D4901604FF482714160002187
:102E80008160C1604FF400720161C0E90512C16147
:102E90000162416281620A21C162FEF7D9FC002809
:102EA00003D0BDE81040FDF7B2BB10BD00300140BB
:102EB0009004002010B588B01C216846FDF7B8F9D1
:102EC000154814490024C0E9001441F26701C0E923
:102ED000024104618461FFF782F908B1FDF797FBB5
:102EE0006020CDE900040294002269460A48049457
:102EF000FFF70FF908B1FDF78AFB0422694606487F
:102F0000FFF707F908B1FDF782FB0348FFF760F808
:102F100008B010BD00180040B802002010B596B0EF
:102F200000240F9410941194129413941C21684659
:102F30001494FDF77DF9202107A8FDF779F93548AC
:102F4000334901600121C0E9011441F26701C0E980
:102F5000031444618461FEF735FE08B1FDF757FBA9
:102F60004FF480500F900FA92A48FEF70FFF08B1C9
:102F7000FDF74DFB2748FFF732F908B1FDF747FB96
:102F80002020CDE9130413A92248FEF7D3FD08B190
:102F9000FDF73DFB6020CDE9000402940394049406
:102FA0000594002269461B480694FFF7B2F808B161
:102FB000FDF72DFB042269461648FFF7AAF808B171
:102FC000FDF725FB082269461248FFF7A2F808B171
:102FD000FDF71DFB0C2269460E48FFF79AF808B171
:102FE000FDF715FB0794089409944FF400500A94D8
:102FF000CDE90B4040000E9007A90648FEF76FFD93
:1030000008B1FDF704FB0348FEF7E2FF16B010BD60
:1030100000000140C000002010B586B00024164812
:103020000094019402940394049412490594C0E915
:10303000001441F26701C0E9024104618461FEF7B6
:10304000C1FD08B1FDF7E3FA4FF4805000906946E6
:103050000948FEF79BFE08B1FDF7D9FA049404A9CC
:1030600005480594FEF766FD002801D0FDF7CFFA6C
:1030700006B010BD000400400801002010B58AB061
:10308000002407941C2168460894FDF7D1F81A48DB
:103090001849C0E9001441F26701C0E90241046126
:1030A0008461FFF79CF808B1FDF7B1FA079407A90E
:1030B00011480894FEF73EFD08B1FDF7A8FA60201C
:1030C000CDE900040294042269460B480494FFF7FA
:1030D00020F808B1FDF79BFA0C2269460648FFF775
:1030E00018F808B1FDF793FA0348FEF771FF0AB02C
:1030F00010BD0000000800405001002010B58AB04B
:10310000002407941C2168460894FDF791F8224892
:103110002049C0E9001441F26701C0E9024104619D
:103120008461FFF75CF808B1FDF771FA079407A90D
:1031300019480894FEF7FEFC08B1FDF768FA602014
:10314000CDE9000402940022694613480494FEF776
:10315000E0FF08B1FDF75BFA042269460E48FEF76E
:10316000D8FF08B1FDF753FA082269460A48FEF76E
:10317000D0FF08B1FDF74BFA0C2269460648FEF76E
:10318000C8FF08B1FDF743FA0348FEF721FF0AB074
:1031900010BD0000000C0040980100201CB5002468
:1031A0000E4800940C49019401600521C0E9011406
:1031B000C7218461C160FEF705FD08B1FDF727FA5C
:1031C0000094694605480194FEF7B4FC002801D03C
:1031D000FDF71DFA1CBD000000140040E0010020B6
:1031E00010B592B000240F941C2168461094FDF78E
:1031F0001FF8202107A8FDF71BF82D482B49016077
:103200000121C0E9011441F26701C0E903144461DE
:103210008461FEF7E4FF08B1FDF7F9F90F940FA9F7
:1032200023481094FEF786FC08B1FDF7F0F9602002
:10323000CDE90004029403940494059400226946A5
:103240001B480694FEF765FF08B1FDF7E0F904227C
:1032500069461748FEF75DFF08B1FDF7D8F9082267
:1032600069461348FEF755FF08B1FDF7D0F90C2267
:1032700069460F48FEF74DFF08B1FDF7C8F90794FE
:10328000089409944FF400500A94CDE90B40400093
:103290000E9007A90648FEF722FC08B1FDF7B7F922
:1032A0000348FEF795FE12B010BD00000004014077
:1032B0002802002010B588B01C216846FCF7B8FF32
:1032C00016481549002401600121C0E9011441F2AA
:1032D0006701C0E903148461FEF781FF08B1FDF7BF
:1032E00096F96020CDE900040294002269460B485B
:1032F0000494FEF70EFF08B1FDF789F90422694630
:103300000648FEF706FF08B1FDF781F90348FEF70E
:103310005FFE08B010BD00000040014070020020B8
:103320000C4810B50A4901604FF4E13141600021B9
:1033300081600C22C160C0E904128161C161FFF7A4
:103340006DF9002803D0BDE81040FDF760B910BD4D
:1033500000100140000300200C4810B50A4901602C
:103360004FF4E1314160002181600C22C160C0E96D
:1033700004128161C161FFF751F9002803D0BDE853
:103380001040FDF744B910BD004400404403002044
:10339000FEE7FEE710B50021084601F00FF8002116
:1033A000084601F01DF80021084601F02BF8002125
:1033B000084601F039F80021084601F047F80021DD
:1033C000084601F055F89FED040A00F05DFEBDE8E7
:1033D000104000F039B800000000FA44DFED190A8F
:1033E000010900F00F0320EE200A0629BCEEC00AF6
:1033F00027D2DFE801F003080E141A2010EE102A7D
:10340000002100F003BF10EE102A0021184600F042
:1034100021BF10EE102A0021184600F03FBF10EE29
:10342000102A0021184600F05DBF10EE102A00217E
:10343000184600F07BBF10EE102A0021184600F05D
:1034400099BF70470000804510B500242DED028B18
:103450009FED068A2046B0EE480AFFF7BFFF641CC6
:10346000E4B2602CF6D3BDEC028B10BD000000006E
:103470002DE9F04F2F4FC18890F8029090F803800B
:1034800006794579386885B0C2B2C2F580740022E9
:1034900000928DF8009001928DF8018001F0FF0BF1
:1034A0008DF802608DF804B04FEA112A8DF80350B0
:1034B0008DF805A0062C07D306226946FDF7AAF869
:1034C0003868801D386019E022466946194FFDF7BB
:1034D000A1F83868204438600520FDF77DFAC4F172
:1034E000060007043F0C09D00DEB0401114C3A46CD
:1034F0002068FDF78FF82068384420600EA002ABEA
:1035000007C883E807008DF80C608DF80D508DF822
:103510000A908DF80EB08DF80B808DF80FA04FF04B
:10352000FF330A2202A90748FFF772F905B0BDE888
:10353000F08F0000140000202D01000000000000AA
:103540000D0A0000000300207047000010B50024A1
:103550002DED028B9FED088A2046B0EE480AFFF75A
:103560003DFFC820FDF738FA641CE4B2102CF3D3F9
:10357000BDEC028B10BD00000000000038B5044611
:103580001248134B0068B0FBF3F04FF47A735843C2
:1035900000906068B0F5827F0DD10B46009200224A
:1035A0008021204600F016F870B1606D40F02000D8
:1035B0006065032038BD009830B1401E009020683F
:1035C0008068C0430006F6D5002038BD10000020FA
:1035D00000366E012DE9F8431E46914688460446A2
:1035E000089DFDF709FB401B351AFDF705FB074653
:1035F00025480068C0F3CB30684338E0701C37D0F2
:10360000FDF7FAFAC01BA84203D215B1009860B3C7
:103610002CE02068416821F0E00141606068B0F56D
:10362000827F0BD1A068B0F5004F02D0B0F5806F5B
:1036300004D12068016821F040010160A06AB0F562
:10364000005F09D12068016821F400510160206801
:10365000016841F400510160012084F8510000200C
:1036600084F850000320BDE8F8830025401E009038
:103670002068816838EA010004D000214945BDD1A5
:103680000020F0E70121F9E71000002070477047A3
:1036900030B593B030216846FCF7CAFD14210CA860
:1036A000FCF7C6FD1D480025016841F0805101600E
:1036B000006800F0805011901948016841F4804181
:1036C00001600068022400F4804011900120009005
:1036D000000401908001CDE9064008AA0420A82139
:1036E00082E813000B906846FDF7FCFE08B172B645
:1036F000FEE70CA90F2081E831004FF4A0500F9095
:103700004FF48050109005210CA8FDF7E1FD002832
:1037100001D072B6FEE713B030BD00004038024061
:10372000007000400248016841F470010160704778
:1037300088ED00E00148FEF798BB00004804002037
:103740000148FEF792BB0000E0010020F0B50268DE
:10375000254C264D264E274F274B4FF0804CA0423C
:1037600009D0604507D0A84205D0B04203D0B84286
:1037700001D0984204D122F0700E4A6842EA0E024B
:10378000A0421BD0604519D0A84217D0B04215D036
:10379000B84213D0984211D0184DA8420ED0184DFF
:1037A000A8420BD0174DA84208D0174DA84205D00B
:1037B000164DA84202D0164DA84203D122F44075FE
:1037C000CA682A434D6922F080022A4302608A684F
:1037D000C2620A688262A04201D0984201D109699E
:1037E000016301214161F0BD00000140000400407F
:1037F00000080040000C004000040140004001406F
:10380000004401400048014000180040001C0040F6
:103810000020004010B501F01F030121046A994007
:103820008C430462016A9A401143016210BD10B5D5
:10383000846842EA032224F47F440A4322438260DC
:1038400010BD826822F070020A4342F007018160D5
:1038500070470000F0B5026A22F001020262036ABA
:1038600042688469124E24F073050C682C4323F0DF
:1038700002058B682B430D4DA84201D0B04205D103
:1038800023F00807CB683B4323F00403A84201D090
:10389000B04205D14D6922F4407215438A692A432A
:1038A00042608461496841630362F0BD00000140E9
:1038B00000040140F0B5026A22F010020262026ABE
:1038C000436884690D6824F4E64444EA05248D685D
:1038D00022F0200242EA05120F4D104EA84201D0FC
:1038E000B04206D1CF6822F0800242EA071222F0ED
:1038F0004002A84201D0B04207D14D6923F4406391
:1039000043EA85038D6943EA85034360846149681E
:1039100081630262F0BD000000000140000401402C
:10392000F0B5026A22F480720262026A4368C469D6
:1039300022F4007224F073050C68124E2C438D683B
:1039400042EA05220E4DA84201D0B04206D1CF680E
:1039500022F4006242EA072222F48062A84201D0E7
:10396000B04207D14D6923F4405343EA05138D69F2
:1039700043EA05134360C4614968C1630262F0BD54
:10398000000001400004014030B5026A22F4805278
:103990000262046A4268C3690D6823F4E64343EA9D
:1039A00005238D6824F4005444EA0534084DA842E8
:1039B00002D0084DA84204D14D6922F4804242EA67
:1039C00085124260C36149680164046230BD000031
:1039D000000001400004014010B5036A046A24F0AD
:1039E00001040462846924F0F00444EA021423F020
:1039F0000A020A438461026210BD10B5036A23F013
:103A0000100303628369046A23F4704343EA0232B9
:103A100024F0A00343EA01118261016210BD10B5D8
:103A2000806B0021C185C184FEF7C2FC10BD016816
:103A30000C3151E8002F22F4907241E80023002B52
:103A4000F5D10168143151E8002F22F0010241E85C
:103A50000023002BF5D1016B012909D101680C313C
:103A600051E8002F22F0100241E80023002BF5D18D
:103A7000202180F83E1000210163704708B590F8BE
:103A80003E10222901D0022008BD82684FF48053E5
:103A90009A4201D1016921B1816A9A421BD04AB18F
:103AA0000AE00268816A5268C2F308020A80816AE9
:103AB000891C08E0026972B10268526802F07F0254
:103AC0000A70816A491C8162C18D491E0904090C72
:103AD000C18503D019E002685268F1E70168CA683D
:103AE00022F02002CA600168CA6822F48072CA60AB
:103AF00001684A6922F001024A61202180F83E10E3
:103B0000016B012903D0FEF76BFE002008BD0021E8
:103B1000016301680C3151E8002F22F0100241E8E6
:103B20000023002BF5D101680A68D20602D50A6885
:103B300049680091818DFEF73AFCE6E770B50446CE
:103B400000680169E26821F4405111430161216973
:103B5000A068E26908436169114308432168CA68A3
:103B600049F20C639A430243CA6020684169A26922
:103B700021F440711143416131492068884202D0EB
:103B80003049884202D1FDF76DFC01E0FDF75AFC97
:103B9000E2690023192164253226B2F5004F6268DC
:103BA00028D0A0FB0101930F9200FCF709FB01460E
:103BB000B0FBF5F06FF01802504301EB800006EB0C
:103BC0000010B0FBF5F000F0F002B1FBF5F002EBF5
:103BD0000012B1FBF5F06FF01803584301EB8000C1
:103BE00006EB0010B0FBF5F000F00F002168104468
:103BF000886070BDA0FB010192185B41FCF7E0FA00
:103C00000146B0FBF5F00201B1FBF5F06FF01803CF
:103C1000584301EB800006EBC000B0FBF5F000F06C
:103C2000F80002EB4002B1FBF5F0584301EB8000D5
:103C300006EBC000B0FBF5F000F00700D6E700008F
:103C4000001001400014014081628285C28500217C
:103C50000164222280F83E2080F83C10016921B1E5
:103C60000168CA6842F48072CA6001684A6942F019
:103C700001024A610068C16841F02001C160002072
:103C800070472DE9F041984617460E460446069DBA
:103C900027E0681C25D02DB1FCF7AEFFA0EB080093
:103CA000A8421ED920680C3050E8001F21F4D071C2
:103CB00040E80012002AF5D12068143050E8001FB7
:103CC00021F0010140E80012002AF5D1202084F8FB
:103CD0003D0084F83E00002084F83C000320BDE84D
:103CE000F0812068006836EA000004D00020B84265
:103CF000CFD00020F3E70120F9E700000148FEF7EC
:103D000059BB0000000300200148FEF753BB000030
:103D100044030020FEE70907090E002804DB00F138
:103D2000E02080F80014704700F00F0000F1E02060
:103D300080F8141D704700002DE9F0412DED020BB5
:103D40009FED3D0B2DED028B9FED3D8BDDE9025488
:103D5000C4F30A50A0F2FF36142E37DA002E18DA18
:103D600053EC102B9DED020B51EC100BFCF777FA86
:103D700053EC182BFCF7D4FB57D2002CA4BF002423
:103D8000254652DA24F00040284318BF2E4C4CD070
:103D90001AE02E4820FA06F704EA070028431FD04D
:103DA00053EC102B9DED020B51EC100BFCF757FA66
:103DB00053EC182BFCF7B4FB37D2002C03DA4FF48A
:103DC0008010F0400444BC4300252EE0332E07DC75
:103DD000A6F114004FF0FF3121FA00F73D4206D161
:103DE0009DED020BBDEC028B02B0BDE8F08153ECFF
:103DF000102B9DED020B51EC100BFCF7D4FA53EC99
:103E0000182BFCF78DFB10D2002C0DDA142E08BFF6
:103E1000641C09D0C6F13400012101FA00F02844E5
:103E2000A84238BF641C0546BD43CDE902549DED50
:103E3000020BD7E7000000009C7500883CE4377E49
:103E400000000000000000000000F0BFFFFF0F00B6
:103E500002E008C8121F08C1002AFAD17047704753
:103E6000002001E001C1121F002AFBD170470000B1
:103E700070B5334E00253570FDF76CF9FFF708FC7F
:103E8000FEF738FFFEF718FFFFF74AFAFFF764FA6C
:103E9000FFF7C2F8FFF782F9FFF740F8FFF7EEF8F7
:103EA000FFF72CF9FFF79CF9FFF704FAFFF702F888
:103EB000FEF79EFFFEF7BCFFFEF7DAFFFEF7ECFE13
:103EC000FFF768FAFEF7D8FEFFF740FB0A221D490C
:103ED0001D48FEF76FFC1B4C307848B11948FFF7BE
:103EE000C7FA0A2217491848FEF764FC357004E047
:103EF0000A2214491448FEF75DFCA078FF28EBD194
:103F0000E078FF28E8D12079FF28E5D16079002802
:103F1000E2D1A0790028DFD1E0790028DCD109487E
:103F2000FFF7A6FA202209A10D48FCF78CF90C48EE
:103F30004FF4104141620B4909680162002070BDD5
:103F400000000020100500200003002057696C6C61
:103F500069616D2D54656C6C2E6D69640000000004
:103F6000E8040020140000203EB542F210748DF8E1
:103F70000400012301AA802106480094FCF7F6FF03
:103F8000012302AA802103480094FCF7FFFE9DF85C
:103F900008003EBD6C0000203EB542F210748DF862
:103FA0000400012301AA822106480094FCF7DEFFE9
:103FB000012302AA822103480094FCF7E7FE9DF842
:103FC00008003EBD6C0000203EB542F210748DF832
:103FD0000400012301AA842106480094FCF7C6FFCF
:103FE000012302AA842103480094FCF7CFFE9DF828
:103FF00008003EBD6C0000203EB542F210748DF802
:104000000400012301AA862106480094FCF7AEFFB4
:10401000012302AA862103480094FCF7B7FE9DF80D
:1040200008003EBD6C0000203EB542F210748DF8D1
:104030000400012301AA882106480094FCF796FF9A
:10404000012302AA882103480094FCF79FFE9DF8F3
:1040500008003EBD6C0000203EB542F210748DF8A1
:104060000400012301AA902106480094FCF77EFF7A
:10407000012302AA902103480094FCF787FE9DF8D3
:1040800008003EBD6C0000202DE9FF5FDFED5D0AFA
:1040900060EE200A9FED5C0A80EE201AB7EE000A5F
:1040A000F6EE000A31EE400A30EE200A10EE100A59
:1040B000FCF795F941EC100BFFF73EFE51EC100BAD
:1040C000FCF774F9C0B200900020FFF74DFF814665
:1040D0000020FFF761FF80460020FFF775FF0746CD
:1040E0000020FFF789FF06460020FFF79DFF0546E9
:1040F0000020FFF7B1FF044609F07F0040F01001F7
:1041000008F07F0040F01000039007F07F0040F0BF
:104110001000029006F07F0040F01000019005F0C2
:104120007F0040F0100B04F07F0040F0100A0020E8
:1041300000F044F90020039900F052F900200299A0
:1041400000F060F90020019900F06EF95946002056
:1041500000F07CF95146002000F08AF9FE20009919
:1041600000F02CF9FE20009900F03AF9FE200099A9
:1041700000F048F9FE20009900F056F9FE20009961
:1041800000F064F9FE20009900F072F94946002021
:1041900000F014F94146002000F022F939460020D1
:1041A00000F030F93146002000F03EF929460020A9
:1041B00000F04CF92146002000F05AF90220FCF7EB
:1041C0000BFC49F0A101002000F0F8F848F0A10133
:1041D000002000F005F947F0A101002000F012F9DD
:1041E00046F0A101002000F01FF945F0A1010020D8
:1041F00000F02CF904B044F0A101BDE8F05F00200C
:1042000000F036B91F856B3F20BCBE4570B5044633
:1042100006200E4600EB84001546C9B2C0B200F07D
:10422000CDF8072000EB8400C0B2C6F3072100F0F0
:10423000C5F8082000EB8400E9B2C0B200F0BEF877
:10424000092000EB8400C5F30721BDE87040C0B22F
:1042500000F0B4B870B5044606200E4600EB8400AA
:104260001546C9B2C0B200F0BBF8072000EB8400CD
:10427000C0B2C6F3072100F0B3F8082000EB8400B9
:10428000E9B2C0B200F0ACF8092000EB8400C5F33D
:104290000721BDE87040C0B200F0A2B870B5044676
:1042A00006200E4600EB84001546C9B2C0B200F0ED
:1042B000A9F8072000EB8400C0B2C6F3072100F084
:1042C000A1F8082000EB8400E9B2C0B200F09AF82F
:1042D000092000EB8400C5F30721BDE87040C0B29F
:1042E00000F090B870B5044606200E4600EB84003E
:1042F0001546C9B2C0B200F097F8072000EB840061
:10430000C0B2C6F3072100F08FF8082000EB84004C
:10431000E9B2C0B200F088F8092000EB8400C5F3D0
:104320000721BDE87040C0B200F07EB870B5044609
:1043300006200E4600EB84001546C9B2C0B200F05C
:1043400085F8072000EB8400C0B2C6F3072100F017
:104350007DF8082000EB8400E9B2C0B200F076F8E6
:10436000092000EB8400C5F30721BDE87040C0B20E
:1043700000F06CB870B5044606200E4600EB8400D1
:104380001546C9B2C0B200F073F8072000EB8400F4
:10439000C0B2C6F3072100F06BF8082000EB8400E0
:1043A000E9B2C0B200F064F8092000EB8400C5F364
:1043B0000721BDE87040C0B200F05AB81CB5022316
:1043C0008DF8040042F210708DF80510009001AADB
:1043D00080210248FCF7CAFD1CBD00006C000020D3
:1043E0001CB502238DF8040042F210708DF8051000
:1043F000009001AA82210248FCF7B8FD1CBD000014
:104400006C0000201CB502238DF8040042F21070ED
:104410008DF80510009001AA84210248FCF7A6FD42
:104420001CBD00006C0000201CB502238DF80400A8
:1044300042F210708DF80510009001AA8621024802
:10444000FCF794FD1CBD00006C0000201CB502238D
:104450008DF8040042F210708DF80510009001AA4A
:1044600088210248FCF782FD1CBD00006C00002082
:104470001CB502238DF8040042F210708DF805106F
:10448000009001AA90210248FCF770FD1CBD0000BD
:104490006C00002000061016000610160000000038
:1044A00000000000010203040607080900000000E4
:1044B00001020304D444000800000020180000009A
:1044C000503E0008EC4400081800002008150000C9
:1044D000603E000800000000010000001000000025
:0C44E000000000000024F4000090000028
:040000050800018965
:00000001FF
