:020000040800F2
:10000000101A00209D0100082B350008592900080E
:1000100029350008D3070008013F00080000000050
:10002000000000000000000000000000A1380008EF
:100030006908000800000000FD360008B538000817
:10004000B7010008B7010008B7010008B7010008B0
:10005000B7010008B7010008B7010008B7010008A0
:10006000B7010008B7010008B7010008B701000890
:10007000B7010008B7010008B7010008B701000880
:10008000D5070008E1070008B7010008B70100081C
:10009000B7010008B7010008B7010008B701000860
:1000A000B7010008B7010008B7010008B701000850
:1000B000B7010008B7010008B7010008B701000840
:1000C000B7010008B7010008B7010008B701000830
:1000D000B7010008E93E0008F53E0008B701000836
:1000E000B7010008B7010008B7010008B701000810
:1000F000B7010008B7010008B7010008B701000800
:10010000B7010008B7010008B7010008B7010008EF
:10011000B7010008B70100085D3900086939000817
:10012000B7010008B7010008B7010008B7010008CF
:10013000B7010008B7010008B7010008B7010008BF
:10014000B7010008B7010008B7010008B7010008AF
:10015000B7010008B7010008B7010008B70100089F
:10016000B7010008B7010008B7010008B70100088F
:10017000B7010008B7010008B7010008000000003F
:10018000B7010008B7010008DFF80CD000F0E4FA6E
:1001900000480047B1490008101A0020064880476F
:1001A00006480047FEE7FEE7FEE7FEE7FEE7FEE75C
:1001B000FEE7FEE7FEE7FEE74D390008890100088B
:1001C0002DE9F05F0546002092469B46884606468C
:1001D000814640241BE0284641464746224600F01F
:1001E0000BFA53465A46C01A914110D3114618468D
:1001F000224600F0F2F92D1A67EB01084F4622461D
:100200000120002100F0E9F917EB00094E41201E02
:10021000A4F10104DFDC484631462A464346BDE8E6
:10022000F09FD2B201E000F8012B491EFBD27047CB
:100230000022F6E710B513460A4604461946FFF7B2
:10024000F0FF204610BD2DE9FE4F804681EA0300F5
:10025000C00F0C46009021F0004123F00045B8EBA0
:100260000200A94105D24046214690461C460B4655
:10027000024623F00040104347D0270DC7F30A0081
:10028000C3F30A510290401A019040286BDAC3F37D
:10029000130040F4801B0098924620B10023D2EB5B
:1002A000030A63EB0B0B01985946C0F1400250461C
:1002B00000F093F906460D4650465946019A00F063
:1002C000ABF910EB08006141002487EA115284EA7F
:1002D000E7731A4340D0009A62B3019A012A4FEAA9
:1002E000075215DC001B61EB02014FF0004202EAED
:1002F0000752CDE90042001C41F5801132462B46E1
:1003000000F0ABF903B0BDE8F08F40462146F9E7B5
:10031000001B61EB0201001C41F5801300185B41DA
:100320002018A2F5001747EB030140EAD570B61973
:100330006D4111E06D084FEA360645EAC0754FEA97
:100340000752001B61EB0201001C41F580114908B6
:100350004FEA30000019514132462B4603B0BDE848
:10036000F04F00F06BB90098012240000023D0EB61
:10037000020263EBE073009821464FEAE074B8EBA9
:10038000000061EB0401E9E783F000435BE781F0E3
:10039000004158E72DE9FE4F81EA030404F00044D0
:1003A00021F0004100944FF0000B23F0004350EA8D
:1003B00001045ED052EA03045BD0C3F30A54C1F3D4
:1003C0000A552C44A4F2F3340194A0FB0254C1F367
:1003D000130141F48011C3F3130343F4801301FBB1
:1003E000024400FB034E840A970A44EA815447EA18
:1003F0008357A4FB076802958D0A05FB07854FEA22
:10040000932C04FB0C542705029D4FEA065847EA3B
:100410001637B5EB08056EEB070C870E920E47EA10
:10042000811742EA8312A7FB0201B6EB0B0164EBD2
:1004300000042B0D43EA0C335E1844EB1C50DA46E3
:100440005146E7FB0201C5F313044FEA0B3343EABD
:1004500014534FEA0432019C43EA0603A4F10C044E
:100460000294009CCDE900B400F0F7F803B0BDE8B9
:10047000F08F00200146F9E72DE9F04D81EA0304F1
:1004800004F0004B21F0004514464FF0000A23F021
:10049000004150EA050220D054EA01021DD0C5F304
:1004A0000A570246C5F31303C1F31300C1F30A56FA
:1004B00040F4801543F48013A7EB0608101BD646C2
:1004C00008F2FD3873EB050002D308F1010801E0E2
:1004D00092185B41B8F1000F03DA00200146BDE835
:1004E000F08D00204FF48011064684460EE0171B65
:1004F00073EB050705D3121B63EB050306434CEAB8
:10050000010C49084FEA300092185B4150EA01079C
:10051000EDD152EA030012D082EA040083EA050119
:10052000084305D0101BAB4106D20122002306E090
:1005300000224FF0004302E06FF0010253101AEB6B
:1005400006004CEB085110EB0A0041EB0B01BDE833
:10055000F04D00F073B8C1F30A5210B5C1F31301A6
:1005600040F2FF3341F480119A4201DA002010BDBD
:1005700040F233439A42A2F2334203DC524200F08B
:100580003BF810BD904010BD00F0004230F000403C
:100590000AD0C10D01F56071C0F3160042EA0151A5
:1005A000C20840071143704700200146704730B52C
:1005B0000B46014600202022012409E021FA02F521
:1005C0009D4205D303FA02F5491B04FA02F52844BB
:1005D000151EA2F10102F1DC30BD202A04DB203A15
:1005E00000FA02F1002070479140C2F1200320FA86
:1005F00003F3194390407047202A04DB203A21FA84
:1006000002F00021704721FA02F3D040C2F120022B
:100610009140084319467047202A06DBCB17203A41
:1006200041FA02F043EAE07306E041FA02F3D040F7
:10063000C2F12002914008431946704710B5141EBC
:1006400073F1000408DA401C41F1000192185B418B
:100650001A4301D120F0010010BD2DE9F04D924662
:100660009B4611B1B1FA81F202E0B0FA80F2203279
:100670009046FFF7B2FF04460F4640EA0A0041EAFF
:100680000B0153465A46084313D0114653EA010062
:1006900019D0C8F140025046FFF7AEFF05460E469E
:1006A000504659464246FFF798FF084305D00120BF
:1006B00004E020463946BDE8F08D0020054346EAB7
:1006C000E0762C4337430A986305E40AA0EB080060
:1006D0000022FD0A44EA47540A3002D500200146B0
:1006E000E9E7010510196941DDE90845001969418B
:1006F000BDE8F04DA2E7C1F30A52C1F3130140F285
:10070000FF3341F480119A4202DA0020014670471B
:1007100040F233439A42A2F2334202DC5242FFF7E4
:100720006BBFFFF75ABF000030B5041E71F1000423
:1007300004DB4FF00044404264EB0101141E73F1EE
:10074000000405DB1C464FF00043524263EB0403F8
:10075000994208BF904230BD064C074D06E0E06864
:1007600040F0010394E8070098471034AC42F6D3F8
:10077000FFF70EFD88550008A855000870B58C18C5
:1007800010F8015B15F0070301D110F8013B2A11A5
:1007900006D110F8012B03E010F8016B01F8016B92
:1007A0005B1EF9D12B0705D40023521E0DD401F88E
:1007B000013BFAE710F8013BCB1A921C03E013F857
:1007C000015B01F8015B521EF9D5A142D8D300208C
:1007D00070BDFEE7014800F0A5B80000A4080020A5
:1007E000014800F09FB800000409002001681823A8
:1007F000CAB2103AB2FBF3F2054B6FF30901032AB8
:100800009B5CC36500D9091D8165084670470000DF
:10081000A04B000810B5014600208B698A6A4FF092
:10082000C07453B1B3F5005F15D072B1012A0CD07A
:10083000022A0AD0032A09D104E01AB1012A06D0FB
:10084000022A03D1C96AC90100D5012010BDC96AB5
:10085000A142FAD010BD002AF7D0012AF2D0022A14
:10086000F3D0032AF3D010BD704772B6FEE72DE92E
:10087000F0410446876D00F09FFA064694F8350073
:100880000025022806D08020606584F834500120BD
:10089000BDE8F0812068016821F016010160206840
:1008A000416921F080014161206C08B9A06C20B140
:1008B0002068016821F0080101602068016821F0CA
:1008C000010101600CE000F077FA801B052807D9D0
:1008D00020206065032084F8350084F83450D7E781
:1008E00020680068C007EED194F85C103F20884073
:1008F000B860012084F8350084F834500020C7E740
:1009000090F83510022903D08021416501207047FD
:10091000052180F835100068016821F001010160AF
:10092000002070472DE9F84304464FF00009CDF848
:10093000009063484FF41651A56D0068B0FBF1F7C5
:100940002E6894F85C10082000FA01F131420FD0B3
:1009500021680A6852070BD50A6822F004020A606F
:1009600094F85C108840A860606D40F001006065FC
:1009700094F85C104FF0010808FA01F0304208D0FA
:1009800021684969090604D5A860606D40F002003D
:10099000606594F85C1004208840304208D02168DB
:1009A0000968890704D5A860606D40F0040060659F
:1009B00094F85C1010208840304218D021680968F3
:1009C000090714D5A86020680168490304D50068A8
:1009D000000308D5A16C07E00168C90503D40168CC
:1009E00021F008010160216C09B12046884794F884
:1009F0005C1020208840304231D021680968C90647
:100A00002DD5A86094F8350005282068016806D027
:100A1000490347D5006800031DD4616C1CE021F038
:100A2000160101602068416921F080014161206C5C
:100A300008B9A06C20B12068016821F008010160AC
:100A400094F85C103F208840A86084F8358084F8D2
:100A50003490216D1FE0E16B09B120468847606D3D
:100A600000282BD0606DC00714D0052084F8350015
:100A70002068016821F0010101600098401C00908D
:100A8000B84203D820680068C007F6D184F83580E2
:100A900084F83490E16C002910D001B02046BDE804
:100AA000F04308470168C905D5D4016821F0100159
:100AB000016084F8358084F83490CCE7BDE8F88391
:100AC0000C0000202DE9F041044600F075F90646BF
:100AD0005CB1022084F83500002584F83450206889
:100AE000016821F0010101600DE00120BDE8F08105
:100AF00000F062F9801B052805D9202060650320DD
:100B000084F83500F2E720680068C007F0D1226859
:100B1000116820480140D4E901031843D4E90336A1
:100B20003343184363691843A3691843E3691843BF
:100B3000236A18430843616A042903D1D4E90B13DB
:100B400019430843106020684069666A20F0070175
:100B500030460E43012704280CD1A06A0643E06A00
:100B600040B12046FFF756FE20B14020606584F872
:100B70003570BAE7206846612046FFF737FE94F8E3
:100B80005C203F2191408160656584F835700020CC
:100B9000ACE700003F8010F070B5044600F00CF99F
:100BA0000546601C02D004480078044400F004F9B3
:100BB000401BA042FAD370BD000000202DE9F84F81
:100BC000DFF8BCA10022012503264FF00F090AF12E
:100BD000040BAAF1040E00BF0B6805FA02F42340CF
:100BE000A34270D10F7907F00307012F01D0022F24
:100BF00016D187684FEA420806FA08FC27EA0C0774
:100C0000D1F80CC00CFA08FC4CEA070CC0F808C07C
:100C10004768A7430C79C4F3001494403C434460F4
:100C20000C79E443A4070AD0C4684FEA420C06FAE0
:100C30000CF7BC438F6807FA0CF72743C7600C79A1
:100C400004F00304022C12D1D40800EB840CDCF86D
:100C500020405707FF0E09FA07F824EA0804D1F8E4
:100C6000108008FA07F848EA0408CCF820800468E5
:100C70004FEA420C06FA0CF7BC430F7907F0030762
:100C800007FA0CF7274307604C6814F4403F70D014
:100C90003C4C276847F480472760246822F003070C
:100CA00004F480440094384C07EB040CDCF808484A
:100CB00097074FEA177809FA08F7BC43334FB84251
:100CC00002D1002724E054E0314FB84201D101277E
:100CD0001EE0304FB84201D1022719E02E4FB84232
:100CE00001D1032714E02D4FB84201D104270FE0B2
:100CF0002B4FB84201D105270AE02A4FB84201D153
:100D0000062705E0284FB84201D1072700E0082751
:100D100007FA08F72743CCF80878DAF80040574676
:100D2000D1F804C09C435FEACC2C00D51C433C6046
:100D3000DBF800405F46D1F804C09C435FEA8C2C8E
:100D400000D51C433C60DEF800407746D1F804C073
:100D50009C435FEA8C3C00D51C433C60084F083F35
:100D60003C68D1F804C09C435FEACC3C00D51C43EE
:100D70003C60521C102AFFF42FAFBDE8F88F000032
:100D8000083C01404438024000300140000002406D
:100D90000004024000080240000C02400010024023
:100DA0000014024000180240001C02400AB1816198
:100DB00070470904FBE700000148806870470000A5
:100DC0000000002070B5040025D094F83D000025F7
:100DD00020B984F83C50204600F0D6FA242084F84C
:100DE0003D002068016821F0010101602068016870
:100DF00041F4004101602068016821F40041016074
:100E000000F098FC4D4A6168914201D84C4900E0DD
:100E10004C49884201D2012070BD4B492368B0FB88
:100E2000F1F15E6826F03F060E435E606368934210
:100E300006D94FF4967359434FF47A73B1FBF3F12B
:100E40002368491C1E6A26F03F0631431962616817
:100E5000914210D84900401EB0FBF1F2521CC2F37F
:100E60000B02042A01D2042022E0B0FBF1F0401C66
:100E7000C0F30B001CE0A268F2B301EBC10303EB6B
:100E80000116431EB3FBF6F35B1C43F480431B05C2
:100E900049D092B301EBC10202EB0111401EB0FB3D
:100EA000F1F0401CC0F30B0040F4804040F40040DF
:100EB0002168CA694CF6FF739A431043C861D4E9AC
:100EC000071001432068026822F0C002114301604C
:100ED000D4E9030101432068826848F2FF339A4352
:100EE00011438160D4E9050108432168CA6822F0F2
:100EF000FF021043C86001E00EE016E020680168C0
:100F000041F0010101602564202084F83D00256343
:100F100084F83E50002070BD01EB4106431EB3FB38
:100F2000F6F35B1CB3E70120C2E701EB4101401E71
:100F3000B0FBF1F0401CC0F30B00B7E7A086010046
:100F400080841E0000093D0040420F002DE9F84F4B
:100F50001F4690468A460446DDF82890FFF72CFF8E
:100F6000054694F83D00202875D1192301226C49CB
:100F70002046009501F046FE0028F5D194F83C008B
:100F8000012868D0012084F83C0020680168C90766
:100F900003D1016841F0010101602068016821F47A
:100FA00000610160222084F83D00102084F83E009A
:100FB00000262664C4F824806785608D2085594802
:100FC000E0622B464A465146204601F0DDFC0028EF
:100FD00078D1208D544F68B1012814D002282068A0
:100FE000016816D041F48061016020684169806920
:100FF000009087E02068416981690091016841F4AF
:10100000007101607EE02068016821F48061016068
:10101000F0E721F4806101602068016841F400611B
:10102000E2E7032848D801280AD0022814D04B460A
:10103000002239462046009501F0E4FDD8BB27E0A8
:101040002A464946204601F05CFEA0BB20680069A4
:10105000616A08704DE061E04B4600223946204647
:10106000009501F0CFFD30BB2068016841F40071AC
:10107000016020680069616A0870606A401C6062F3
:10108000218D491E2185618D491E618521682EE0D3
:101090002068016821F48061016020680069616A4C
:1010A0000870606A401C6062208D401E2085608D43
:1010B000401E6085D0E705E02A464946204601F0FB
:1010C00020FE10B10120BDE8F88F20680069616A38
:1010D0000870606A401C6062218D491E2185618D07
:1010E000491E618521684A69D24352070AD40969B9
:1010F0000170606A401C6062208D401E2085608DFA
:10110000401E6085208D00288BD1202084F83D0072
:1011100084F83E6084F83C600020D4E70220D2E7E7
:10112000020010000000FFFF040001002DE9F84F4D
:101130001F4690468A460446DDF82890FFF73CFE9D
:10114000054694F83D0020287FD11923012240490B
:101150002046009501F056FD002876D194F83C0019
:10116000012872D0012084F83C0020680168C9077A
:1011700003D1016841F0010101602068016821F498
:1011800000610160212084F83D00102084F83E00B9
:1011900000262664C4F824806785608D20852D484C
:1011A000E0622B464A465146204601F063FC90B966
:1011B000206841698069009036E02A464946204609
:1011C00001F0D2FD50B1206C042804D120680168E0
:1011D00041F4007101600120BDE8F88F606A216868
:1011E00000780861606A401C6062618D491E6185FB
:1011F000218D491E89B2218522685369DB435B0733
:101200000BD451B100781061606A401C6062608D3F
:10121000401E6085208D401E20852A464946204676
:1012200001F0CAFC0028CED1208D0028C5D154F889
:101230003D0B016841F400710160202004F81E0993
:10124000E67766770020C7E7FFE70220C4E70000E3
:10125000020010000000FFFF2DE9FF4F83B09A4607
:10126000DDE9119793460446DDF84080FFF7A4FDC1
:10127000054694F83D0020287FD1192301224049DA
:101280002046009501F0BEFC002876D194F83C0081
:10129000012872D0012084F83C0020680168C90749
:1012A00003D1016841F0010101602068016821F467
:1012B00000610160212084F83D00402084F83E0058
:1012C00000262664C4F82480A4F82A90608D208526
:1012D0002C48E062CDE9007553465A4620460499F1
:1012E00001F016FC70B930E02A463946204601F07C
:1012F0003BFD58B1206C042804D12068016841F4FA
:1013000000710160012007B0BDE8F08F606A2168BC
:1013100000780861606A401C6062218D491E89B2B4
:101320002185628D521E628522685369DB435B070B
:101330000BD469B100781061606A401C6062208D36
:10134000401E2085608D401E6085208D0028CBD1F9
:101350002A463946204601F02FFC0028CAD154F80D
:101360003D0B016841F400710160202004F81E0962
:10137000E67766770020C6E7FFE70220C3E70000B4
:10138000020010000000FFFFF0B587B004461421F2
:101390006846FEF74DFF2768234CDFF888C000221F
:1013A000214912230325042620481034674518D10B
:1013B0000F6847F002070F60096802AF01F00201F1
:1013C0000591C021CDE9001387E864006946FFF765
:1013D000F5FB206840F400102060206800F4001045
:1013E0001CE0DFF84CC0674519D10F6847F00207D1
:1013F0000F60096802AF01F0020105914FF44061EE
:10140000CDE9001387E864006946FFF7D7FB206841
:1014100040F480002060206800F48000059007B050
:10142000F0BD00000054004030380240000402408B
:10143000005800400248816802781144816070477A
:10144000000000200B4810B5016841F400710160F4
:10145000016841F480610160016841F480710160BC
:10146000032000F09BF80F2000F006F800F050F881
:10147000002010BD003C024030B505461F4887B033
:101480000024016841F010010160006806A900F025
:101490001000009001A800F02DF90498A8B100F008
:1014A00049F940001649174AB0FBF1F11648491EA8
:1014B000026040F2E732C0E90324C0E9011484610C
:1014C00000F0B2FB040003D015E000F033F9E9E7C7
:1014D0000D4800F04DFC04000DD1362000F030F82E
:1014E000102D07D200222946362000F037F8074891
:1014F000056000E0012407B0204630BD40380240BE
:1015000040420F0000100040640900200400002049
:101510000A4808B5016841F480410160006800F4A0
:10152000804000900548001F016841F08051016033
:10153000006800F08050009008BD00004438024070
:10154000002809DB00F01F020121914040098000C2
:1015500000F1E020C0F8001170470000F0B40E4B1D
:101560001B680C46C3F30223C3F10705042D00D901
:101570000425191D072901D2002300E0DB1E0126E6
:1015800006FA05F1491E214099409E40761E1640FC
:101590003143F0BC02F0F4BC0CED00E0064900F071
:1015A000070208684FF6FF03184040EA0220034A8A
:1015B00010430860704700000CED00E00000FA05E1
:1015C0002DE9F0470E46050065D0DFF81481D8F804
:1015D0000000F7B200F00700B04207D288F80070B0
:1015E000D8F8000000F00700B04254D128683D4C04
:1015F000810712D5400703D5206840F4E0502060F1
:101600002878000703D5206840F4604020602068F7
:10161000A96820F0F000084320602878C0072DD08A
:10162000304968680839012812D0022813D00328ED
:1016300011D00968890700292DDA216821F00301FA
:1016400001432160FFF7B8FB814641F2883A0EE082
:1016500009688903EFE709688901ECE7FFF7ACFB4C
:10166000A0EB0901514502D90320BDE8F0872068AD
:10167000696800F00C00B0EB810FEFD1D8F80010D2
:10168000404601F00701B14207D90770006800F039
:101690000700B04201D00120E7E72878400705D5D0
:1016A0002068E96820F4E0500843206028780007AB
:1016B00006D52068296920F4604040EAC100206016
:1016C00000F058F82168084AC1F30311515CC84082
:1016D0000649086006480068FFF7CEFE0020C4E710
:1016E000003C024008380240A84B00080C000020D3
:1016F000040000200F2202600C4A136803F0030369
:101700004360136803F0F0038360136803F4E0534D
:10171000C36012684FF4E05303EAD2020261044846
:10172000006800F0070008607047000008380240B9
:10173000003C02400448054900680968044AC1F3B6
:101740008221515CC84070470C00002008380240DC
:10175000B84B00080448054900680968044AC1F309
:101760004231515CC84070470C00002008380240EC
:10177000B84B0008154810B5006810F00C0214486A
:1017800013D04110042A0FD0082A0ED10F4C241F69
:101790002268236802F03F025B0207D52068C0F38D
:1017A0008810A0FB010106E0084610BD2168C1F3C6
:1017B0008811A1FB00010023FEF702FD2168C1F39F
:1017C0000141491C4900B0FBF1F010BD083802404E
:1017D0000024F4002DE9F84F04006ED02078DFF8E3
:1017E0004C93C007A9F104054AD009F1040001682F
:1017F000C1F38101012908D00068C0F381000228EB
:101800000AD1D9F80000400206D52868800337D5F0
:1018100060680028E1D033E06068B0F5803F10D008
:10182000B0F5A02F286810D020F4803028602868F8
:1018300020F4802028606068A8B1FFF7BDFA064652
:101840000DE0286840F48030F4E740F48020286000
:10185000F7E700BFFFF7B0FA801B642873D8286849
:101860008003F7D50CE0FFF7A7FA064605E000BFB6
:10187000FFF7A2FA801B6428F0D828688003F7D409
:101880002078DFF8AC8280074FF0000A3ED5A748E9
:10189000001D016811F00C0F08D00068C0F3810032
:1018A00002280BD1D9F80000400207D4286880072D
:1018B00016D5E068012800D112E033E1E068B8B144
:1018C0000120C8F80000FFF777FA064605E000BFE0
:1018D000FFF772FA801B0228C0D828688007F7D566
:1018E0002868216920F0F80040EAC10028600DE076
:1018F000C8F800A0FFF760FA064604E0FFF75CFABC
:10190000801B02281FD828688007F7D4207800079A
:1019100022D5864F87486169703771B10121016016
:10192000FFF74AFA064604E0FFF746FA801B022852
:1019300009D838688007F7D50EE0C0F800A0FFF797
:101940003BFA064605E082E0FFF736FA801B0228E4
:101950007DD838688007F7D42078400768D5DFF84D
:10196000CCB100270BF13C0BDBF80000C0000BD41E
:10197000DBF8001041F08051CBF80010DBF80000DC
:10198000012700F0805000906B4E3068C00510D4E5
:10199000306840F480703060FFF70EFA009005E088
:1019A000FFF70AFA0099401A022850D83068C0059B
:1019B000F6D55E4EA0686C3601280FD00528306839
:1019C00010D020F001003060306820F0040030605A
:1019D000A068B8B1FFF7F0F900900FE0306840F070
:1019E0000100F4E740F004003060F7E7FFF7E4F9A6
:1019F0000099411A41F28830814266D830688007E8
:101A0000F4D50EE0FFF7D8F9009007E0FFF7D4F91E
:101A10000099411A41F28830814256D830688007D7
:101A2000F4D42FB1DBF8001021F08051CBF8001076
:101A3000A069C8B33D49091D0968C1F381010229A4
:101A40004AD00228504607D0C8F8600000E03CE0C9
:101A5000FFF7B2F904463BE04746C8F86000FFF7DD
:101A6000ABF9064605E000BFFFF7A6F9801B022888
:101A70002BD828688001F7D4D4E907010843A16A6C
:101A80002E4A490802EB0141626A41EA8211084389
:101A900094F82C1040EA0161C9F800100120386662
:101AA000FFF78AF9044606E03EE000BFFFF784F93D
:101AB000001B022809D828688001F7D534E000BF50
:101AC000FFF77AF9001B022802D90320BDE8F88F3E
:101AD00028688001F4D427E00128F7D0D9F8000065
:101AE000E26900F4800191421CD1226A00F03F01BA
:101AF000914217D147F6C071626A0140B1EB821F73
:101B000010D1A26A4FF0FF3300F4403103EB5202D0
:101B1000B1EB024F06D194F82C1000F07060B0EBDE
:101B2000016F01D00120D1E70020CFE70438024047
:101B300000004742800E4742007000400000FFFF57
:101B40007047704710B590F83C20012A22D001223E
:101B500080F83C20CA688C6822F4407222434C68AA
:101B600022F4806222430C6822F4006222430C6952
:101B700022F4805222434C6922F400522243C96964
:101B8000002322F480420A4301684A6480F83C3012
:101B9000002010BD022010BD70B590F83C20012A35
:101BA00032D0012480F83C40022280F83D200368B6
:101BB0005A689D6822F070060A6832435A60134BD7
:101BC00002689A4214D0B2F1804F11D0104B9A4261
:101BD0000ED0104B9A420BD00F4B9A4208D00F4BAD
:101BE0009A4205D00E4B9A4202D00E4B9A4204D133
:101BF000496825F080031943916080F83D40002139
:101C000080F83C10084670BD022070BD0000014005
:101C10000004004000080040000C004000040140A7
:101C2000004001400018004010B5040003D094F8B3
:101C30003D0010B107E0012010BD002084F83C00F9
:101C4000204600F01FF8022084F83D00211D206886
:101C500001F090FE012084F8460084F83E0084F8EC
:101C60003F0084F8400084F8410084F8420084F882
:101C7000430084F8440084F8450084F83D000020C7
:101C800010BD000008B501681748814208D1174807
:101C9000016841F001010160006800F001000BE003
:101CA0001248134A001F914208D1016841F0020115
:101CB0000160006800F00200009008BD0D4A9142EA
:101CC000FBD1016841F0200101600068002200F0B2
:101CD0002000009006213720FFF740FCBDE80840B7
:101CE0003720FFF72DBC00000000014044380240BF
:101CF000000400400014004090F83D10012901D07C
:101D000001207047022180F83D1000681149884287
:101D100014D0B0F1804F11D00F4988420ED00F4936
:101D200088420BD00E49884208D00E49884205D01F
:101D30000D49884202D00D49884204D1816801F0E2
:101D40000701062903D0016841F00101016000206C
:101D500070470000000001400004004000080040FF
:101D6000000C004000040140004001400018004009
:101D700090F83D10012901D001207047022180F820
:101D80003D100168CA6842F00102CA60006811494A
:101D9000884214D0B0F1804F11D00F4988420ED044
:101DA0000E4988420BD00E49884208D00D4988421E
:101DB00005D00D49884202D00C49884204D181687F
:101DC00001F00701062903D0016841F0010101601B
:101DD000002070470000014000040040000800405F
:101DE000000C004000040140004001400018004089
:101DF00070B5044690F83C000025012817D0012654
:101E000084F83C60022084F83D002068826822F05B
:101E1000770222F47F4282600868502838D00DDCB7
:101E200020284FD005DC90B3102811D14AE00220C1
:101E300070BD302846D040280AD13BE060282FD022
:101E400070280DD0B0F5805F03D0B0F5005F12D0E0
:101E5000012584F83D60002084F83C00284670BDD0
:101E6000CB68D1E90121206801F0F5FD2068816887
:101E700041F0770109E0CB68D1E90121206801F048
:101E8000EAFD2068816841F480418160E1E719E062
:101E9000CA684968206801F0B3FE5021206806E056
:101EA000CA684968206801F0BCFE6021206801F022
:101EB000DCFDCEE7CA684968206801F0A1FE402138
:101EC0002068F4E7226801461046F0E7704770B5D5
:101ED0000446006801694FF00005C943890715D41D
:101EE000C168C943890711D4E91E01610120207727
:101EF000206880698007204602D0FFF7E7FF04E0F2
:101F000000F072F9204600F057FA25772068016941
:101F1000C943490717D4C168C943490713D46FF0AF
:101F200004010161022020772068806910F4407F5D
:101F3000204602D0FFF7CAFF04E000F055F9204622
:101F400000F03AFA257720680169C943090716D4D9
:101F5000C168C943090712D46FF008010161042068
:101F600020772068C0698007204602D0FFF7AEFFC7
:101F700004E000F039F9204600F01EFA25772068C9
:101F80000169C943C90617D4C168C943C90613D436
:101F90006FF010010161082020772068C06910F4FB
:101FA000407F204602D0FFF791FF04E000F01CF9CB
:101FB000204600F001FA257720680169C943C90766
:101FC00008D1C168C943C90704D1891E01612046EF
:101FD00000F058FA20680169C943090609D4C168AC
:101FE000C943090605D46FF0800101612046FFF75F
:101FF000A7FD20680169C943490609D4C168C943DE
:10200000490605D46FF040010161204600F044FA12
:1020100020680169C94389060BD4C168C943890690
:1020200007D46FF0200101612046BDE87040FFF742
:1020300088BD70BDF0B587B0044614216846FEF730
:10204000F7F85C4A216800245B48022501265B4BB7
:1020500091420AD1016841F010010160006800F06E
:10206000100005904FF4D44086E0554A554FB1F129
:10207000804F13D0DFF850C10326614534D1016889
:1020800041F00201016000680096CDE9015400F0C2
:102090000200CDE904506946039488E0016841F0EC
:1020A00001010160016801F001010591016841F041
:1020B000020101600068694600F0020005902020DE
:1020C0000090CDE90154CDE903461046FEF776FDB8
:1020D00008200090CDE901546946384651E000BF20
:1020E000FEF76CFD07B0F0BDDFF8E0C061450FD131
:1020F000016841F0080101600068694600F00800CD
:1021000005904FF420400090CDE90154304811E093
:10211000DFF8C0C0614510D1016841F001010160E4
:102120000068694600F0010005900F200090CDE99D
:1021300001541046CDE90345D2E7274A91420FD119
:10214000016841F0040101600068694600F0040084
:1021500005904FF470700090CDE901541F4810E0D5
:102160001F4A914210D1016841F0100101600068DE
:1021700000F01000059060200090CDE90154694600
:102180001846CDE90346ABE7164A9142AAD1016849
:1021900041F0020101600068694600F0020005900C
:1021A000D0000090CDE901540920CDE90340384624
:1021B00096E7000000000140303802400010024065
:1021C00000000240000402400004004000080040FB
:1021D000000C0240000C00400004014000080240D6
:1021E0000040014000180040704770B5044690F868
:1021F0003C0000260D4601280FD0012084F83C0049
:102200006AB1042A1DD0082A2FD00C2A3FD00126FB
:10221000002084F83C00304670BD022070BD20686C
:1022200001F02CFC2068816941F00801816120687F
:10223000816921F004018161206881692A69114363
:1022400011E0206801F04AFC2068816941F40061D6
:1022500081612068816921F48061816120688169E0
:102260002A6941EA02218161D2E7206801F06CFC11
:102270002068C16941F00801C1612068C16921F08D
:102280000401C1612068C1692A69114311E0206815
:1022900001F08EFC2068C16941F40061C1612068D1
:1022A000C16921F48061C1612068C1692A6941EA7C
:1022B0000221C161ACE710B5040003D094F83D00E1
:1022C00010B107E0012010BD002084F83C0020463A
:1022D00000F01EF8022084F83D00211D206801F066
:1022E00049FB012084F8460084F83E0084F83F0052
:1022F00084F8400084F8410084F8420084F84300E8
:1023000084F8440084F8450084F83D00002010BDA6
:1023100008B502682248B2F1804F0BD021498A42A9
:1023200010D1016841F004010160006800F0040070
:10233000009008BD016841F001010160006800F0F3
:102340000100F5E718498A4207D1016841F0080108
:102350000160006800F00800EAE71149134B091D0D
:102360009A4207D1086840F002000860086800F04F
:102370000200DDE70E4B9A4207D1086840F4803036
:102380000860086800F48030D2E70A498A42D0D158
:10239000016841F040010160006800F04000C7E7BB
:1023A0004038024000080040000C0040000401409A
:1023B00000400140001800407047000010B504467E
:1023C000022249B104290ED0082913D094F8410003
:1023D000012816D0012010BD94F83E000128F9D143
:1023E00084F83E200FE094F83F000128F2D184F8F1
:1023F0003F2008E094F840000128EBD184F8402009
:1024000001E084F841200122206801F017FB164901
:102410002068164A884201D0904203D1436C43F4AD
:10242000004343642068884213D0B0F1804F10D03D
:102430000F4988420DD00F4988420AD00E49884280
:1024400007D0904205D00D49884202D00C498842FD
:1024500004D1816801F00701062903D0016841F029
:1024600001010160002010BD000001400004014096
:102470000004004000080040000C00400040014003
:102480000018004000680349884201D1FEF7D2BF1E
:102490007047000000100040704770477047000010
:1024A000F8B5016804460868CA684B6910F00F0F58
:1024B0004FF0000559D003F0010602F4907737433E
:1024C00065D0C10705D0D10503D5216C41F00101CC
:1024D0002164410705D5D90703D0216C41F00201E1
:1024E0002164810705D5D90703D0216C41F004018F
:1024F0002164010707D502F02001314303D0216C8C
:1025000041F008012164216C00293AD0800604D5ED
:10251000900602D5204601F0C5FB20684069216C79
:10252000C0F38010090700D460B3204601F093FB8C
:1025300020684069400621D52068143050E8001F0B
:1025400021F0400140E80012002AF5D1A06BA8B1AB
:102550006C490165A06BFEF7D3F9002811D0A06B80
:10256000016D01B0BDE8F040084783060FD5930622
:102570000DD52046BDE8F84001F094BB2046FFF79A
:102580008DFFF8BD2046FFF789FF2564F8BD266B57
:102590002023012E79D1C60677D5D60675D50868D1
:1025A000486800904869400640D5A16B08684068BB
:1025B0000004000CEAD0A28D8242E7D9E085C86908
:1025C000B0F5807F2DD020680C3050E8001F21F43A
:1025D000807140E80012002AF5D12068143050E8DC
:1025E000001F21F0010140E80012002AF5D1206807
:1025F000143050E8001F21F0400140E80012002A8A
:10260000F5D184F83E30256320680C3050E8001F77
:1026100021F0100140E80012002AF5D1A06BFEF76E
:1026200026F9A08DE18D401A81B229E0A08DE18DBF
:10263000401A81B2E08D0028A8D00029A6D02068D9
:102640000C3050E8002F22F4907240E80026002E53
:10265000F5D12068143050E8002F22F0010240E844
:102660000026002EF5D184F83E30256320680C301A
:1026700050E8002F22F0100240E80023002BF5D193
:102680002046FFF70AFFF8BDFFE705062BD5150624
:1026900029D594F83D002128F5D1A068B0F5805FD8
:1026A00001D12069B0B1206A411C21622168007803
:1026B0004860E08C401E0004000CE084E3D12068F8
:1026C000C16821F08001C1602068C16841F040010B
:1026D000C160D8E7206A0088C0F308004860206A1B
:1026E000801C2062E5E74006CDD55006CBD5CA68F0
:1026F000204622F04002CA6084F83D3000F02BF9F9
:10270000C1E70000473C000870B5040004D094F80D
:102710003D00002510B106E0012070BD84F83C505A
:10272000204600F023F8242084F83D002068C1688A
:1027300021F40051C160204601F014FB20680169BA
:1027400021F4904101612068416921F02A01416131
:102750002068C16841F40051C1602564202084F8DC
:102760003D0084F83E00002070BD00002DE9F043DC
:1027700087B0064614216846FDF75AFD414F31687F
:1027800041480222032307250024B94221D13E49B2
:1027900014310E6846F010060E60096801F0100151
:1027A0000591016841F0010101600068694600F08F
:1027B0000100059058028DE81500CDE90335334836
:1027C000FEF7FCF9002209212520FEF7C7FE25208F
:1027D00053E02F4FB94252D12B4910310F6847F4C3
:1027E00000370F60096801F400310591016841F07C
:1027F000080101600068694600F00800059060204B
:102800008DE81500CDE903352248FEF7D7F9234DB1
:1028100021484FF000692860C5E901940715C5E912
:1028200003476C614FF48038AC61C5E9074828461E
:102830006C62FEF747F908B1FEF717F8B563AE63AF
:10284000164D154860351830E5E80209402091C55D
:10285000124845F814496030AC61C5E907486C621C
:10286000FEF730F908B1FEF700F875630022072182
:102870002620AE63FEF772FE2620FEF761FE07B04B
:10288000BDE8F083001001403038024000000240F3
:1028900000440040000C024088600240A408002070
:1028A000704700002DE9F843044690F83D001F46AC
:1028B00016460D4620284CD1C5B1BEB194F83C0057
:1028C000012846D0012084F83C004FF00008C4F8ED
:1028D0004080212084F83D00FEF76EFAA6848146F0
:1028E000E684A068B0F5805F03D004E00120BDE875
:1028F000F883206928B12E465FF0000584F83C80FB
:102900000EE00026FAE78021204601F0B1FAA0B9D6
:10291000AEB116F8010B21684860E08C401EE084DF
:10292000E08C4B464FF0000200970028EBD14FF0AF
:102930004001204601F09CFA30B10320D7E735F87A
:10294000020BC0F30800E6E7202084F83D000020D9
:10295000CDE70220CBE77047FEE701684A69D24322
:1029600052050FD46FF480624A61002140F8301F95
:10297000202242738173026942F0040202610173F2
:1029800001207047002070472DE9F84F0446C06AC7
:102990001E4693460D4621680A6842F480620A602A
:1029A000082807D0012805D010F5803F02D0206B01
:1029B000112804D12068016841F4807101604FF052
:1029C00001195B46002249462046009600F01AF99C
:1029D0004FF4007840B120680068C00501D5C4F804
:1029E00040800320BDE8F88F2069DFF884A0B0F5AF
:1029F000804F0FD00620216800EAD51747F0F0007D
:102A0000086133465A460AF10601204600F02EF9C5
:102A100058BB03E0E8B240F001001CE02168E8B2D6
:102A2000086133465A465146204600F01FF9E0B986
:102A30002068416981690091016841F480710160F9
:102A40005B46002249462046009600F0DBF800284D
:102A5000C1D147F0F1002168086133465A4651461A
:102A6000204600F003F90028BCD00120BAE700009E
:102A700002000100F8B50446C06A1E460D4617461E
:102A8000082807D0012805D010F5803F02D0206B20
:102A9000122804D12068016841F480710160134656
:102AA00000224FF001112046009600F0ABF840B133
:102AB00020680068C00502D54FF400702064032030
:102AC000F8BD2069B0F5804F0ED00620216800EADD
:102AD000D51040F0F000086133463A460B492046D5
:102AE00000F0C4F878B902E005F0FE0000E0E8B2BA
:102AF00021680861054933463A46891F204600F09F
:102B0000B5F80028DCD00120F8BD00000800010065
:102B10002DE9F843044600680D46DDE90897016891
:102B20009846164641F4807101604B4600224FF0F2
:102B300001112046009700F065F848B12068006850
:102B4000C00502D54FF4007020640320BDE8F8836F
:102B5000216805F0FE0008613B464A4615492046BB
:102B600000F084F888B920684169806900903A468D
:102B70004946204600F0F8F848B1206C042804D1FA
:102B80002068016841F4007101600120DEE7F5B2C0
:102B9000B8F1010F09D02168300A08613A46494668
:102BA000204600F0E1F80028E7D120680561002008
:102BB000CCE700000200010070B516460D46044641
:102BC0000DE02046FFF7C9FE08B1012070BD681C6A
:102BD00005D0FEF7F1F8801BA84207D835B1206870
:102BE0004069C0434007ECD4002070BD002044F889
:102BF000300F20216173A073216941F02001216110
:102C00002073E2E72DE9F0471E4690460D46044644
:102C1000C1F30747DDF8209008E0701C06D0FEF7EE
:102C2000CBF8A0EB0900B0420FD876B12068012F95
:102C300018D0806925EA00000004000C14D000219F
:102C40004145EAD00020BDE8F087002044F8300F6D
:102C500020216173A073216941F02001216120735B
:102C60000120F0E74069E5E70121E9E72DE9F047B8
:102C70009A4691460E46044600254FF02008C1F3BF
:102C8000074725E020684069C043400514D4206808
:102C9000016841F40071016021686FF4806048614F
:102CA000256384F83D8084F83E50206C40F0040099
:102CB000206484F83C501FE0B9F1FF3F08D0FEF7D4
:102CC0007BF8A0EB0A0149450CD8B9F1000F09D0F7
:102CD0002068012F13D0806926EA00000004000C50
:102CE0000BD0CFE744F8305F84F80D80A5732069DE
:102CF00040F02000206125730120BDE8F087406985
:102D0000EAE72DE9F041002590460E4604462027CB
:102D100017E04069C043C0060CD454F8301B6FF074
:102D20001000486144F810596777A577206A20623F
:102D3000257717E0FEF740F8A0EB0800B04208D86E
:102D40003EB120684169C9434906E2D40020BDE88C
:102D5000F08144F8305F6773A573206940F020006C
:102D6000206125730120F2E770B516460D46044632
:102D70000DE02046FFF7F1FD08B1012070BD681C91
:102D800005D0FEF719F8801BA84207D835B1206896
:102D90004069C0430006ECD4002070BD002044F818
:102DA000300F20216173A073216941F0200121615E
:102DB0002073E2E710B5064C012240212046FDF7C2
:102DC000F5FF20460122BDE810408021FDF7EEBF4F
:102DD0000000024010B50648FEF78EFF00210448AF
:102DE000FFF7ECFA024900200968486310BD0000B3
:102DF000940500200D4808B5016841F400110160F8
:102E00000068002200F40010009005211020FEF759
:102E1000A5FB1020FEF794FB002205211120FEF7F0
:102E20009DFBBDE808401120FEF78ABB3038024008
:102E30002DE9F04186B014216846FDF7F9F92F48D5
:102E40000024016841F010010160016801F01001E7
:102E50000591016841F080010160016801F0800185
:102E60000591016841F001010160016801F0010173
:102E70000591016841F002010160016801F0020161
:102E80000591016841F008010160016801F0080145
:102E90000591016841F0040101600068184F00F0DD
:102EA000040005900022C0213846FDF77FFFDFF8BF
:102EB00054804FF4AA46002231464046FDF776FF83
:102EC000182001258DE8310069460F48FDF776FE90
:102ED000C0200090CDE90154694638460394FDF7BF
:102EE0006DFE0220CDE90240CDE90065694640460D
:102EF000FDF764FE06B0BDE8F08100003038024006
:102F000000000240000C0240001002400D4810B5C5
:102F10000B4901600C49416000214FF480428160FF
:102F2000C0E9031241618161C1610162FDF74AFF9D
:102F3000002803D0BDE81040FDF797BC10BD00008D
:102F400000540040EC040020A08601000D4810B59C
:102F50000B4901600C49416000214FF480428160BF
:102F6000C0E9031241618161C1610162FDF72AFF7D
:102F7000002803D0BDE81040FDF777BC10BD00006D
:102F80000058004040050020A086010010B588B020
:102F90001C216846FDF74CF9154814490024C0E986
:102FA000001441F26701C0E9024104618461FFF746
:102FB00082F908B1FDF759FC6020CDE900040294C4
:102FC000002269460A480494FFF70FF908B1FDF79B
:102FD0004CFC042269460648FFF707F908B1FDF7E3
:102FE00044FC0348FFF726F808B010BD0018004065
:102FF000D407002010B596B000240F9410941194BB
:10300000129413941C2168461494FDF711F92021A1
:1030100007A8FDF70DF93548334901600121C0E9E2
:10302000011441F26701C0E9031444618461FEF7B1
:10303000FBFD08B1FDF719FC4FF480500F900FA96C
:103040002A48FEF7D5FE08B1FDF70FFC2748FFF729
:1030500032F908B1FDF709FC2020CDE9130413A9CA
:103060002248FEF799FD08B1FDF7FFFB6020CDE98E
:1030700000040294039404940594002269461B48BA
:103080000694FFF7B2F808B1FDF7EFFB042269469A
:103090001648FFF7AAF808B1FDF7E7FB08226946D2
:1030A0001248FFF7A2F808B1FDF7DFFB0C226946D2
:1030B0000E48FFF79AF808B1FDF7D7FB079408947C
:1030C00009944FF400500A94CDE90B4040000E9053
:1030D00007A90648FEF736FD08B1FDF7C6FB034811
:1030E000FEF7A8FF16B010BD0000014094050020B7
:1030F00010B58AB0002407941C2168460894FDF797
:1031000097F819484FF08041C0E9001441F2670177
:10311000C0E9024104618461FFF7CDF808B1FDF711
:10312000A4FB079407A910480894FEF735FD08B1E1
:10313000FDF79BFB6020CDE9000402940022694664
:1031400009480494FFF751F808B1FDF78EFB0422FB
:1031500069460548FFF749F808B1FDF786FB0248C4
:10316000FEF768FF0AB010BDDC05002010B58EB078
:1031700000240794089409940A940B941C2168462F
:103180000C94FDF755F822482049C0E9001441F29B
:103190006701C0E9024104618461FEF745FD08B1A1
:1031A000FDF763FB4FF48050079007A91848FEF71E
:1031B0001FFE08B1FDF759FB1548FFF77CF808B171
:1031C000FDF753FB0B940BA911480C94FEF7E4FC9C
:1031D00008B1FDF74AFB6020CDE900040294082203
:1031E00069460B480494FFF700F808B1FDF73DFB72
:1031F0000C2269460648FEF7F8FF08B1FDF735FBDB
:103200000348FEF717FF0EB010BD00000004004099
:103210002406002010B58AB0002407941C216846BB
:103220000894FDF705F81A481849C0E9001441F25E
:103230006701C0E9024104618461FFF73CF808B10D
:10324000FDF713FB079407A911480894FEF7A4FCA7
:1032500008B1FDF70AFB6020CDE9000402940422C6
:1032600069460B480494FEF7C0FF08B1FDF7FDFA6C
:103270000C2269460648FEF7B8FF08B1FDF7F5FADB
:103280000348FEF7D7FE0AB010BD0000000800405A
:103290006C06002010B58AB0002407941C216846F3
:1032A0000894FCF7C5FF22482049C0E9001441F208
:1032B0006701C0E9024104618461FEF7FCFF08B1C7
:1032C000FDF7D3FA079407A919480894FEF764FCA0
:1032D00008B1FDF7CAFA6020CDE90004029400228B
:1032E000694613480494FEF780FF08B1FDF7BDFA64
:1032F000042269460E48FEF778FF08B1FDF7B5FADB
:10330000082269460A48FEF770FF08B1FDF7ADFADA
:103310000C2269460648FEF768FF08B1FDF7A5FADA
:103320000348FEF787FE0AB010BD0000000C004005
:10333000B40600201CB500240E4800940C490194EA
:1033400001600521C0E90114C7218461C160FEF755
:103350006BFC08B1FDF789FA0094694605480194B1
:10336000FEF71AFC002801D0FDF77FFA1CBD000013
:1033700000140040FC06002010B592B000240F9409
:103380001C2168461094FCF753FF202107A8FCF786
:103390004FFF2D482B4901600121C0E9011441F282
:1033A0006701C0E9031444618461FEF784FF08B13A
:1033B000FDF75BFA0F940FA923481094FEF7ECFB7E
:1033C00008B1FDF752FA6020CDE90004029403949D
:1033D00004940594002269461B480694FEF705FFF5
:1033E00008B1FDF742FA042269461748FEF7FDFED0
:1033F00008B1FDF73AFA082269461348FEF7F5FED0
:1034000008B1FDF732FA0C2269460F48FEF7EDFECF
:1034100008B1FDF72AFA0794089409944FF4005074
:103420000A94CDE90B4040000E9007A90648FEF72C
:1034300089FB08B1FDF719FA0348FEF7FBFD12B04E
:1034400010BD0000000401404407002010B588B002
:103450001C216846FCF7ECFE164815490024016063
:103460000121C0E9011441F26701C0E9031484613C
:10347000FEF721FF08B1FDF7F8F96020CDE900045F
:103480000294002269460B480494FEF7AEFE08B190
:10349000FDF7EBF9042269460648FEF7A6FE08B1DF
:1034A000FDF7E3F90348FEF7C5FD08B010BD0000C5
:1034B000004001408C0700200C4810B50A4901600B
:1034C0004FF4E1314160002181600C22C160C0E90C
:1034D00004128161C161FFF717F9002803D0BDE82C
:1034E0001040FDF7C2B910BD001001401C080020BB
:1034F0000C4810B50A4901604FF4E13141600021E8
:1035000081600C22C160C0E904128161C161FFF7D2
:10351000FBF8002803D0BDE81040FDF7A6B910BDA8
:103520000044004060080020FEE7FEE770B500247C
:1035300004F1B000C0B200F08BF8002000F088F871
:10354000102000F085F80025002000F093F86D1C95
:10355000EDB2802DF8D3641CE4B2082CE8D370BD22
:1035600010B5C820FDF718FBBDE8104000F0CABC3C
:1035700010B50446B031C8B200F06AF8102040EA35
:10358000141000F065F804F00F00BDE8104000F0E2
:103590005FB800002DE9F041203A00240D46804636
:1035A000D6B27F2803D900208D1C8046EDB2102BA7
:1035B00029460FD0FFF7DCFF164906EB460001EB6A
:1035C0004005285D00F056F8641CE4B2062CF8D3E0
:1035D000BDE8F081FFF7CCFF0F4F00BF04EB0610F2
:1035E000385C00F047F8641CE4B2082CF6D36D1C7C
:1035F000E9B24046FFF7BCFF5FF0000404EB0610A1
:103600003844007A00F036F8641CE4B2082CF5D394
:10361000DEE70000C04B0008E84D00082DE9F0414E
:103620001F4616468846054600240AE03B464146AA
:103630002846FFF7AFFF0835EDB2782D06D8641C99
:10364000E4B2325D002A01D0102CEFD3BDE8F08146
:1036500001B584B001214FF4807204A88DE8070001
:103660000B46002278210248FDF7F6FD05B000BDAB
:10367000EC04002001B584B001214FF4807204A84D
:103680008DE807000B46402278210248FDF7E4FD53
:1036900005B000BDEC04002010B50021084601F083
:1036A0006DFA9FED040A01F005FABDE8104000F044
:1036B00011B8000000004842DFED050A002120EEAD
:1036C000200ABCEEC00A10EE102A01F033BA000046
:1036D0000000804510B500242DED028B9FED068A79
:1036E0002046B0EE480AFFF7E7FF641CE4B2102C56
:1036F000F6D3BDEC028B10BD000000007047000047
:1037000070B52DED028B0E4604460021DFED388AA0
:10371000B6EE008A102337A20846FFF77FFF9FED21
:103720003A0B3BA153EC102B3D4800F015FC102345
:103730003B4A06210020FFF771FF012544E000BF4E
:1037400094ED020ADFED370A20EE200AC0EE080AE7
:10375000BCEEE00A10EE100AFDF71EFA20793938A7
:1037600019283ED2DFE800F00D0F3D113D133D1545
:10377000173D3D3D193D3D1B3D1D3D1F213D233D59
:103780002500002016E0012014E0032012E00420B0
:1037900010E005200EE006200CE008200AE00A20D8
:1037A00008E00B2006E00C2004E00D2002E00E20D3
:1037B00000E00F20A178012917D0B0EE680A00BF01
:1037C000FFF77AFF6D1CADB20C34B542B8D9BDEC31
:1037D000028B1023BDE87040002113A20846FFF7BA
:1037E0001DBF16A000F0A8FBCBE79FED200AE7E77E
:1037F000000000005069616E6F20506C61792053A9
:103800007461727400000000000000000000E03FDE
:1038100053706565643A25302E32662020202000E2
:10382000AC09002000007A445069616E6F20506C32
:10383000617920456E642020200000005B455252D3
:103840004F5D5B663A5069616E6F4D696469506C9B
:1038500061795D50574D5F4368616E616C204E6FBA
:103860007420646566696E65640D0A003333733FC6
:1038700010B500242DED028B9FED088A2046B0EE96
:10388000480AFFF719FFC820FDF786F9641CE4B267
:10389000102CF3D3BDEC028B10BD00000000000023
:1038A00070470000012211020148FDF77FBA0000B5
:1038B000000C02407047000030B593B030216846DC
:1038C000FCF7B6FC14210CA8FCF7B2FC1D4800253F
:1038D000016841F080510160006800F08050119053
:1038E0001948016841F4804101600068022400F435
:1038F0008040119001200090000401908001CDE9EA
:10390000064008AA0420A82182E813000B9068460C
:10391000FDF760FF08B172B6FEE70CA90F2081E841
:1039200031004FF4A0500F904FF4805010900521BB
:103930000CA8FDF745FE002801D072B6FEE713B0D3
:1039400030BD00004038024000700040024801686D
:1039500041F470010160704788ED00E00148FEF716
:10396000B6BA0000640900200148FEF7B0BA0000B2
:10397000FC060020F0B50268254C264D264E274F48
:10398000274B4FF0804CA04209D0604507D0A84299
:1039900005D0B04203D0B84201D0984204D122F001
:1039A000700E4A6842EA0E02A0421BD0604519D050
:1039B000A84217D0B04215D0B84213D0984211D0C7
:1039C000184DA8420ED0184DA8420BD0174DA84252
:1039D00008D0174DA84205D0164DA84202D0164D6A
:1039E000A84203D122F44075CA682A434D6922F0E7
:1039F00080022A4302608A68C2620A688262A04228
:103A000001D0984201D10969016301214161F0BDF2
:103A1000000001400004004000080040000C00408D
:103A200000040140004001400044014000480140C2
:103A300000180040001C00400020004010B501F0BC
:103A40001F030121046A99408C430462016A9A4071
:103A50001143016210BD10B5846842EA032224F4C8
:103A60007F440A432243826010BD826822F07002C4
:103A70000A4342F00701816070470000F0B5026A16
:103A800022F001020262036A42688469124E24F045
:103A900073050C682C4323F002058B682B430D4DF6
:103AA000A84201D0B04205D123F00807CB683B43C0
:103AB00023F00403A84201D0B04205D14D6922F49D
:103AC000407215438A692A434260846149684163B0
:103AD0000362F0BD0000014000040140F0B5026A3D
:103AE00022F010020262026A436884690D6824F4BD
:103AF000E64444EA05248D6822F0200242EA0512D9
:103B00000F4D104EA84201D0B04206D1CF6822F02E
:103B1000800242EA071222F04002A84201D0B042DD
:103B200007D14D6923F4406343EA85038D6943EA75
:103B3000850343608461496881630262F0BD0000CF
:103B40000000014000040140F0B5026A22F48072D6
:103B50000262026A4368C46922F4007224F07305A9
:103B60000C68124E2C438D6842EA05220E4DA84285
:103B700001D0B04206D1CF6822F4006242EA0722A7
:103B800022F48062A84201D0B04207D14D6923F4EB
:103B9000405343EA05138D6943EA05134360C4614A
:103BA0004968C1630262F0BD0000014000040140A9
:103BB00030B5026A22F480520262046A4268C36924
:103BC0000D6823F4E64343EA05238D6824F400548A
:103BD00044EA0534084DA84202D0084DA84204D159
:103BE0004D6922F4804242EA85124260C36149680D
:103BF0000164046230BD0000000001400004014087
:103C000010B5036A046A24F001040462846924F094
:103C1000F00444EA021423F00A020A4384610262B7
:103C200010BD10B5036A23F0100303628369046AB0
:103C300023F4704343EA023224F0A00343EA011163
:103C40008261016210BD10B5806B0021C185C18405
:103C5000FEF724FC10BD01680C3151E8002F22F45E
:103C6000907241E80023002BF5D10168143151E82E
:103C7000002F22F0010241E80023002BF5D1016B57
:103C8000012909D101680C3151E8002F22F01002FE
:103C900041E80023002BF5D1202180F83E100021BF
:103CA0000163704708B590F83E10222901D0022028
:103CB00008BD82684FF480539A4201D1016921B155
:103CC000816A9A421BD04AB10AE00268816A52684E
:103CD000C2F308020A80816A891C08E0026972B195
:103CE0000268526802F07F020A70816A491C816290
:103CF000C18D491E0904090CC18503D019E0026871
:103D00005268F1E70168CA6822F02002CA600168BF
:103D1000CA6822F48072CA6001684A6922F001020E
:103D20004A61202180F83E10016B012903D0FEF783
:103D3000B7FD002008BD0021016301680C3151E886
:103D4000002F22F0100241E80023002BF5D101687A
:103D50000A68D20602D50A6849680091818DFEF78B
:103D60009CFBE6E770B5044600680169E26821F44F
:103D70004051114301612169A068E269084361690A
:103D8000114308432168CA6849F20C639A4302430D
:103D9000CA6020684169A26921F440711143416100
:103DA00031492068884202D03049884202D1FDF76B
:103DB000D1FC01E0FDF7BEFCE26900231921642576
:103DC0003226B2F5004F626828D0A0FB0101930FA4
:103DD0009200FCF7F5F90146B0FBF5F06FF0180220
:103DE000504301EB800006EB0010B0FBF5F000F053
:103DF000F002B1FBF5F002EB0012B1FBF5F06FF051
:103E00001803584301EB800006EB0010B0FBF5F0FF
:103E100000F00F0021681044886070BDA0FB010114
:103E200092185B41FCF7CCF90146B0FBF5F00201BA
:103E3000B1FBF5F06FF01803584301EB800006EB7F
:103E4000C000B0FBF5F000F0F80002EB4002B1FB5F
:103E5000F5F0584301EB800006EBC000B0FBF5F035
:103E600000F00700D6E700000010014000140140F8
:103E70002DE9F041984617460E460446069D27E078
:103E8000681C25D02DB1FCF797FFA0EB0800A842D5
:103E90001ED920680C3050E8001F21F4D07140E892
:103EA0000012002AF5D12068143050E8001F21F0DC
:103EB000010140E80012002AF5D1202084F83D00DD
:103EC00084F83E00002084F83C000320BDE8F08127
:103ED0002068006836EA000004D00020B842CFD045
:103EE0000020F3E70120F9E70148FEF7D9BA000006
:103EF0001C0800200148FEF7D3BA0000600800202B
:103F0000FEE70000FEB50024094F4FF4807501263E
:103F10003819CDE9000601230022782102950548D1
:103F2000FDF79AF9641CE4B21B2CF1D3FEBD00002E
:103F300010000020EC0400200FB4054B10B503A9BD
:103F4000044A029800F08AF910BC5DF814FB0000E6
:103F500095490008E80400200FB4084B10B504A9E7
:103F600002AA039800F07AF9044602A9002000F0A2
:103F70000CFD204610BC5DF814FB00008B490008C6
:103F80000907090E002804DB00F1E02080F8001486
:103F9000704700F00F0000F1E02080F8141D70471A
:103FA0002DE9F0412DED020B9FED3D0B2DED028B28
:103FB0009FED3D8BDDE90254C4F30A50A0F2FF36B9
:103FC000142E37DA002E18DA53EC102B9DED020B6D
:103FD00051EC100BFCF737F953EC182BFCF7A4FB52
:103FE00057D2002CA4BF0024254652DA24F000400A
:103FF000284318BF2E4C4CD01AE02E4820FA06F762
:1040000004EA070028431FD053EC102B9DED020B50
:1040100051EC100BFCF717F953EC182BFCF784FB51
:1040200037D2002C03DA4FF48010F0400444BC4334
:1040300000252EE0332E07DCA6F114004FF0FF31EF
:1040400021FA00F73D4206D19DED020BBDEC028B3B
:1040500002B0BDE8F08153EC102B9DED020B51EC4A
:10406000100BFCF794F953EC182BFCF75DFB10D206
:10407000002C0DDA142E08BF641C09D0C6F13400E0
:10408000012101FA00F02844A84238BF641C05460B
:10409000BD43CDE902549DED020BD7E700000000BF
:1040A0009C7500883CE4377E0000000000000000A2
:1040B0000000F0BFFFFF0F0002E008C8121F08C198
:1040C000002AFAD170477047002001E001C1121F99
:1040D000002AFBD1704700002DE9FF5F82B000216C
:1040E000DDE90430020DDDF840B0034318D044F69A
:1040F0001050A2F2FF3242431514119801281FD02C
:10410000A5EB0B00401C5FEA000A4FF000064E4F83
:10411000DFF83891B046504615D5CAF1000413E0D7
:10412000119801244AA3012801D16FEA0B010298DA
:10413000119AC0E90031C0E9024206B0BDE8F09F23
:10414000CBF10000DFE704460021404A491842EB6A
:104150000450CDE9001012E0E00707D032463B469C
:1041600040464946FCF716F98046894632463B46AA
:1041700010461946FCF70EF906460F466410002C4F
:10418000EAD1DDE90401DDE90023BAF1000F06DA26
:10419000FCF700F942464B46FCF7FCF805E0FCF75B
:1041A0006BF942464B46FCF767F904460E4600227F
:1041B000284BFCF7B9FA03D84FF0FF30014607E06F
:1041C0000022254B20463146FCF73DF8FCF793FAD8
:1041D000102409E0002C0ADB0A220023FBF7F0FF81
:1041E000039B30321A55641E50EA0102F2D1641C5E
:1041F000039AC4F111031444119A012A03D0012235
:1042000008430DD10AE0084304D000204FF0110B01
:10421000119072E7A3EB0B056D1E0DE05B4504DD0D
:104220004FF0000205F1010504E003DA4FF000024F
:10423000A5F10105002AECD002981199C0E90231DC
:10424000C0E9004579E70000000014400000F03F9D
:10425000300000000000F0430000E03F2DE9FF4F78
:1042600095B09B468946064600250FE2252877D162
:1042700000242746F84A0121059400E0044316F87B
:10428000013F203B01FA03F01042F7D130782A2891
:1042900011D06FF02F033078A0F13002092A16D820
:1042A000059A44F0020402EB820203EB420210443E
:1042B000761C0590EFE759F8042B0592002A03DAE3
:1042C000504244F40054059044F00204761C3078C7
:1042D0002E2816D116F8010F44F004042A280DD018
:1042E0006FF02F023078A0F13003092B09D807EBCB
:1042F000870302EB4303C718761CF3E759F8047BE6
:10430000761C30786C280FD006DC4C2817D0682833
:104310000DD06A2814D104E0742810D07A280FD167
:104320000DE044F400140AE044F4801401E044F485
:1043300040147278824202D104F58014761C761CF7
:10434000307866280BD013DC582877D009DC002899
:1043500075D04528F6D04628F4D047281AD19DE1DB
:1043600018E0632835D0642879D0652812D195E10A
:10437000702873D008DC6728F1D069286FD06E28C8
:104380000DD06F2806D1B5E073282CD0752875D0D4
:10439000782874D05A46179990476D1C75E1C4F37C
:1043A0000250022809D003280DD0D9F800100428A3
:1043B0000DD00D6009F1040967E1D9F80010EA1782
:1043C000C1E90052F6E7D9F800100D80F2E70D7050
:1043D000F0E719F8041B8DF8001000208DF801009B
:1043E000EA46012003E059F804AB4FF0FF306107C3
:1043F0004FF0000102D40DE008F101018846B942F6
:104400000FDA8045F8DB1AF808100029F4D108E02B
:1044100008F1010188468142FADB1AF808100029E8
:10442000F6D105985B46A0EB080721463846179A57
:1044300000F094FA284400EB080507E04DE029E17C
:104440000DE01AF8010B5A4617999047B8F1010888
:10445000F7D25B4621463846179A13E142E00A221A
:104460000092C4F302524FF0000A022A08D059F811
:1044700004CB032A4FEAEC710AD00DE029E02AE0D0
:1044800009F1070121F00702F2E802C1914609E0B3
:104490000FFA8CFC4FEAEC71042A03D14FFA8CFC22
:1044A0004FEAEC71002907DA0A460021DCF1000C22
:1044B00061EB02012D2202E0220504D52B228DF8AA
:1044C0000420012203E0E20701D02022F7E7904612
:1044D00059E00A2102E010220DE010214FF0000AFD
:1044E00000910BE010224FF0000A44F0040408276A
:1044F000009203E008224FF0000A0092C4F3025237
:10450000022A05D059F804CB0021032A08D009E07B
:1045100009F1070121F00702F2E802C1914605E026
:104520001FFA8CFC042A01D10CF0FF0C4FF000089C
:10453000220728D5702806D0009B83F0100353EA89
:104540000A0305D00EE040228DF80420012208E085
:104550005CEA010206D030228DF804208DF80500B7
:1045600002229046009B83F0080353EA0A030AD113
:104570005CEA010201D1620705D530228DF80420E2
:104580004FF001087F1E582804D034A003900EA8D5
:1045900002900DE036A0F9E753466046009AFBF71B
:1045A0000FFE84460398825C0298401E02900270BF
:1045B0005CEA0100F0D1029806A9081A00F1200A6D
:1045C000600702D524F4803400E00127574502DD5E
:1045D000A7EB0A0000E0002000EB0A01009005981C
:1045E0004144401A0590E00306D45B462146179AE1
:1045F000059800F0B3F90544002706E001A85A46E3
:10460000C05D179990476D1C7F1C4745F6DBE003A2
:104610000CD55B462146179A059800F09FF9054492
:1046200004E030205A46179990476D1C0099481EA7
:1046300000900029F5DC08E0029802995A460078BB
:10464000491C0291179990476D1CBAF10001AAF11B
:10465000010AF1DC65E10000092801003031323344
:1046600034353637383961626364656600000000AE
:104670003031323334353637383941424344454698
:104680000000000000F058F90544761C307800283E
:104690007FF4ECAD19B02846BDE8F08F620700D476
:1046A000062709F1070222F0070CFCE80223E14685
:1046B00003F000485FEA080C02D00FF2702C0DE006
:1046C0005FEA045C02D50FF2682C07E05FEAC47C65
:1046D00002D00FF2602C01E0AFF2700C4FF0FF3807
:1046E00023F00043CDF850C065280CD006DC4528E7
:1046F00009D046281DD047283DD13DE0662818D076
:1047000067287ED138E00021112F01DB112000E065
:10471000781CCDE9000106A90EA8FFF7DDFCDDE954
:104720000F010E9A03910021009207F1010A0491F2
:104730004DE04FF000400097CDE9011006A90EA80A
:10474000FFF7CAFCDDE90F0203920E9B11990022CC
:10475000DDF80CA00093049211B9791C00EB010A5A
:10476000B7EB0A0004D4C0F1FF3007F1010A04904E
:10477000AAEB0700019044E0012F00DA0127002195
:10478000112F01DD112000E03846CDE9000106A916
:104790000EA8FFF7A1FCDDE90F010E9A039100219D
:1047A00004910092BA4621070CD40399514500DACE
:1047B0008A46BAF1010F05DD009AAAF10101515CA8
:1047C000302908D0B84202DA10F1040F06DA0121CC
:1047D000CDE9011015E0AAF10101E9E7002805DCA7
:1047E000049901440491AAEB000102E0411C5145E7
:1047F00000DD8A460499401A401C01904FF00040A9
:104800000290200704D40198504501DBCDF80480C4
:1048100000208DF84F0002980DF14F07B0F1004FC6
:1048200025D02B200E9002984FF0020800280CDAB9
:10483000404202902D200E9007E00A210298FBF7DB
:10484000B6FE3031029007F8011DB8F10001A8F161
:104850000108F2DC02980028EFD1791E0E9808704A
:10486000307800F0200040F0450007F8020D12A853
:10487000C01B00F107081498007800B1012000EB7C
:104880000A01019801EBE07105984144401A401E6D
:104890000590E00306D45B462146179A059800F080
:1048A0005DF805441498007818B15A461799904756
:1048B0006D1CE00324D55B462146179A059800F04D
:1048C0004DF805441CE00498002807DBDDE90301EE
:1048D000884203DD0098405C179901E01799302069
:1048E0005A469047049805F10105401C0490019830
:1048F000401E019004D12E205A46179990476D1CF6
:10490000BAF10001AAF1010ADDDC05E017F8010B9C
:104910005A46179990476D1CB8F10001A8F101089B
:10492000F4DC5B462146179A0598ABE62D000000A3
:104930002B000000200000002DE9F0410446002576
:104940001E461746880404D405E039462020B047A7
:104950006D1C641EF9D52846BDE8F0812DE9F041B3
:10496000044600251E469046C80301D5302700E0C6
:104970002027880404D505E041463846B0476D1C21
:10498000641EF9D52846BDE8F0810A68531C0B6007
:104990001070704713B56423012269460348FDF780
:1049A00081FF0228F7D000981CBD00001C080020E1
:1049B000FCF748FDFEF780FFFEF73AFAFEF71AFA19
:1049C000FEF77AFDFEF794FDFEF7D0FBFEF7B2FC92
:1049D000FEF710FBFEF78CFBFEF71CFCFEF75AFC03
:1049E000FEF7CAFCFEF732FDFEF7D0FAFEF78EFAAC
:1049F000FEF7ACFAFEF7EEF9FEF74EFEFEF7DAF937
:104A0000FEF7AEFDFEF792FDFEF732FFFEF74AFF1E
:104A100012A0FFF791FA0021102313A20846FEF717
:104A2000FDFD102313A202210020FEF7F7FD102345
:104A300012A204210020FEF7F1FD10230FA206218F
:104A40000020FEF7EBFD4FF4FA6464210C48FEF7FA
:104A500057FE2046FCF7A0F8F7E700004D4355202D
:104A600053746172740D0A004D4355205374617282
:104A70000000000020202020202020002020000016
:104A80002C0000203EB542F210748DF80400012382
:104A900001AA842106480094FCF748FB012302AADE
:104AA000842103480094FCF751FA9DF808003EBDAC
:104AB00040050020DFED1D0A70B560EE200A9FED75
:104AC0001C0A80EE201AB7EE000AF6EE000A31EE5C
:104AD000400A30EE200A10EE100AFBF755FD41ECBB
:104AE000100BFFF75DFA51EC100BFBF734FDC5B26C
:104AF0000020FFF7C7FF044600F07F0040F01001E0
:104B0000002000F03BF82946FE2000F037F821464F
:104B1000002000F033F80220FCF73EF844F0A10139
:104B2000BDE87040002000F029B800001F856B3FF1
:104B300020BCBE4570B5044606200E4600EB84003E
:104B40001546C9B2C0B200F019F8072000EB840086
:104B5000C0B2C6F3072100F011F8082000EB840072
:104B6000E9B2C0B200F00AF8092000EB8400C5F3F6
:104B70000721BDE87040C0B2AFF300801CB502232E
:104B80008DF8040042F210708DF80510009001AA13
:104B900084210248FCF7CAFA1CBD00004005002031
:104BA00000061016000610160000000000000000AD
:104BB00001020304060708090000000001020304C3
:104BC0000000000000000000002F000000000700AF
:104BD000070000147F147F1400242A7F2A12006229
:104BE00064081323003649552250000005030000D5
:104BF00000001C224100000041221C000014083E5D
:104C000008140008083E0808000000A06000000822
:104C10000808080800006060000000201008040276
:104C2000003E5149453E0000427F40000042615134
:104C30004946002141454B31001814127F100027CE
:104C400045454539003C4A49493000017109050391
:104C500000364949493600064949291E00003636C2
:104C60000000000056360000000814224100001425
:104C70001414141400004122140800020151090602
:104C800000324959513E007C1211127C007F494983
:104C90004936003E41414122007F4141221C007FB4
:104CA00049494941007F09090901003E4149497AC2
:104CB000007F0808087F0000417F4100002040413C
:104CC0003F01007F08142241007F40404040007FA8
:104CD000020C027F007F0408107F003E4141413EEC
:104CE000007F09090906003E4151215E007F091934
:104CF00029460046494949310001017F0101003F31
:104D00004040403F001F2040201F003F4038403FB0
:104D10000063140814630007087008070061514914
:104D2000454300007F41410000552A552A550000A7
:104D300041417F0000040201020400404040404025
:104D4000000001020400002054545478007F4844BD
:104D5000443800384444442000384444487F0038F4
:104D60005454541800087E0901020018A4A4A47C1D
:104D7000007F080404780000447D400000408084E7
:104D80007D00007F102844000000417F4000007C2F
:104D900004180478007C080404780038444444383B
:104DA00000FC242424180018242418FC007C080487
:104DB000040800485454542000043F444020003C60
:104DC0004040207C001C2040201C003C4030403CE7
:104DD000004428102844001CA0A0A07C0044645477
:104DE0004C441414141414140000000000000000BB
:104DF0000000000000000000000000F800000000BB
:104E0000000000333000000000100C06100C0600FB
:104E1000000000000000000040C07840C078400062
:104E2000043F04043F040400007088FC08300000C4
:104E3000001820FF211E0000F008F000E01800001C
:104E400000211C031E211E0000F0088870000000D5
:104E50001E2123241927211010160E000000000027
:104E60000000000000000000000000E01804020044
:104E7000000000071820400000020418E0000000B5
:104E80000040201807000000404080F080404000B3
:104E90000202010F01020200000000F00000000009
:104EA0000101011F010101000000000000000000DD
:104EB00080B0700000000000000000000000000052
:104EC00000010101010101010000000000000000DB
:104ED0000030300000000000000000008060180476
:104EE000006018060100000000E010080810E00053
:104EF000000F102020100F00001010F8000000001C
:104F00000020203F20200000007008080888700062
:104F100000302824222130000030088888483000E2
:104F20000018202020110E000000C02010F8000002
:104F300000070424243F240000F80888880808009B
:104F40000019212020110E0000E0108888180000B0
:104F5000000F112020110E0000380808C838080082
:104F60000000003F00000000007088080888700002
:104F7000001C222121221C0000E010080810E00083
:104F80000000312222110F00000000C0C00000000C
:104F90000000003030000000000000800000000031
:104FA0000000806000000000000080402010080029
:104FB00000010204081020004040404040404000F2
:104FC00004040404040404000008102040800000CD
:104FD0000020100804020100007048080808F000D2
:104FE0000000003036010000C030C828E810E000A2
:104FF0000718272423140B000000C038E00000002D
:10500000203C23020227382008F888888870000096
:10501000203F202020110E00C0300808080838006A
:10502000071820202010080008F808080810E000E1
:10503000203F202020100F0008F88888E808100082
:10504000203F20202320180008F88888E808100056
:10505000203F200003000000C0300808083800008E
:1050600007182020221E020008F808000008F8088F
:10507000203F210101213F20000808F80808000016
:105080000020203F2020000000000808F808080049
:10509000C08080807F00000008F888C028180800C1
:1050A000203F20012638200008F8080000000000FA
:1050B000203F20202020300008F8F800F8F80800F1
:1050C000203F003F003F200008F830C00008F808EB
:1050D000203F200007183F00E01008080810E000FB
:1050E0000F10202020100F0008F808080808F00012
:1050F000203F210101010000E01008080810E00035
:105100000F18242438504F0008F8888888887000C9
:10511000203F2000030C3020007088080808380069
:105120000038202121221C00180808F8080818005F
:105130000000203F2000000008F808000008F808E0
:10514000001F202020201F000878880000C8380891
:10515000000007380E010000F80800F80008F80009
:10516000033C0700073C03000818688080681808A3
:1051700020302C03032C30200838C800C838080021
:105180000000203F2000000010080808C838080070
:105190002038262120201800000000FE0202020014
:1051A0000000007F40404000000C30C000000000C4
:1051B000000000010638C00000020202FE000000EC
:1051C000004040407F000000000004020202040092
:1051D00000000000000000000000000000000000CF
:1051E00080808080808080800002020400000000B7
:1051F00000000000000000000000808080800000AF
:105200000019242222223F2008F80080800000009C
:10521000003F112020110E0000000080808000005F
:10522000000E112020201100000000808088F8006E
:10523000000E112020103F200000808080800000A0
:10524000001F222222221300008080F08888881804
:105250000020203F2020000000008080808080000F
:10526000006B94949493600008F8008080800000A4
:10527000203F210000203F2000809898000000007F
:105280000020203F202000000000008098980000AF
:1052900000C08080807F000008F8000080808000CF
:1052A000203F24022D302000000808F800000000F4
:1052B0000020203F202000008080808080808000AF
:1052C000203F20003F20003F808000808080000041
:1052D000203F210000203F200000808080800000CF
:1052E000001F202020201F00808000808000000000
:1052F00080FFA12020110E0000000080808080002F
:10530000000E112020A0FF8080808000808080001F
:1053100020203F212000010000008080808080004C
:105320000033242424241900008080E080800000C1
:105330000000001F2020000080800000008080000E
:10534000001F202020103F2080808000008080806F
:1053500000010E30080601008080008000808080FF
:105360000F300C030C300F00008080008080800024
:105370000020312E0E31200080808000008080804F
:1053800080818E70180601000080808080808000FF
:105390000021302C2221300000000000807C02021D
:1053A00000000000003F40400002027C800000003E
:1053B0000040403F0000000000000000FF0000002F
:1053C00000000000FF0000000000041464040CB49E
:1053D0000202423302000000000000000000000052
:1053E000000000000000000040412111090503FFFA
:1053F00003050911214140000000000000000000E9
:1054000000000000000000001010D0FF900010917C
:105410009690F090949310000000000000000000AF
:105420000000000000000000040300FF000104046D
:105430000404FF0404040400000000000000000055
:105440000000000000000000008060F80704E4A4F1
:10545000A4BFA4A4E40400000000000000000000B9
:105460000000000000000000010000FF40407F4AF3
:105470004A4A4A4A7F404000000000000000000005
:1054800000000000000000000000F888888888FF05
:1054900088888888F80000000000000000000000F4
:1054A000000000000000000000001F080808087F3E
:1054B000888888889F80F0000000000000000000BD
:1054C00000000000000000000000FE0282828282D4
:1054D000FA82828282820200000000000000000046
:1054E000000000000000000080601F40404040407D
:1054F0007F40404458404000000000000000000091
:105500000000000000000000008060F80704E4A430
:10551000A4BFA4A4E40400000000000000000000F8
:105520000000000000000000010000FF40407F4A32
:105530004A4A4A4A7F404000000000000000000044
:10554000000000000000000000000000000000005B
:10555000000000000000000000000000000000004B
:1055600000000000000000000000363600000000CF
:10557000000000000000000000000000000000002B
:105580000000000000000000A855000800000020F6
:10559000EC0400007C0700081C580008EC04002004
:1055A00024150000C8400008320182101324F412B0
:1055B000AE100C1040B081FFA1A6A83FC8D3D00EFA
:1055C000D580D805D9F1DA12D8308D14AF1A01027E
:1055D000633E4B1A020C63454A1A030C634A6D3250
:1055E0000429171EB96DDB3E051863517732063268
:1055F000512E4B92A43E0718626132084A3E303366
:105600003D0972455A0A30411A0B30633C4E2A0C50
:105610007862441A0D0C634D6B320E5A4D481A0FC6
:1056200018634C5D29E85A4C182A11A862627A1254
:10563000A81C5B3E131863487532145A3C189A151F
:1056400090321672482A178462635A182429602AF5
:10565000194862735A1A3029181A1B185A3A3D1AF7
:105660001C0C6341422A1D90625C9A1E902A1FC046
:1056700062612A20E44A65485A21CC5EFB8A2F3CAD
:1056800022F01E5A7CC53D2324634F5732245A4FC3
:10569000782A253C626B5A263029182A276019542B
:1056A000415A2854369C99593E29323A36A30EEA7B
:1056B0003A2A72411A2B306339401A2C0C5A40C0D6
:1056C0002A2DF0626D322E4A39C05B3F2FFC411A01
:1056D00030242A3E79311A310C6345492A32FC6262
:1056E000693233295F193C333C34324A1E3633D396
:1056F0003E35241A512419F0333B3632512E4B9249
:10570000A43E3718626232385A3ED8298072451A50
:105710003A24633C442A3B78623C1A3C0C5A4D3C88
:105720005A3D542DB1F88A3C4429A71E8DAFB83D8F
:105730003F24634C5E2A40A84A56603241324C5E98
:105740008EAF783C42A81EC0E24B3E4324634865BE
:10575000297329FC2D2749523E8C29779E26491210
:105760003C469C2A479062582A483C4A6A605A49FB
:10577000241EA30EEA3A4A18233A551E7FC5D73D88
:105780004B0C63414B2A4C90626829B0296C5E1027
:10579000EA203D4E902E3533333E4FC062642A508E
:1057A000F04A6D6029EC29C036FB8A2F3B52323A11
:1057B0003661F1D53D5329DC415A5458411A553CC4
:1057C0002A39B9311A560C2A406D311A570C634FD9
:1057D0005F9A58603259324F5EE52BBE3C5A482ED4
:1057E000C0E2AB3D5B90625E325C3A407834553E3D
:1057F0005D3A39902BAF3B1F299C411A5F30633EC5
:10580000601A600C5A45912A61FC626A3262323E2B
:0C58100036B96D5B3F63724529F7B24A60
:040000050800018965
:00000001FF
